{
  "_format": "hh-sol-artifact-1",
  "contractName": "RewardRatePool",
  "sourceName": "contracts/RewardRatePool.sol",
  "abi": [
    {
      "inputs": [
        {
          "internalType": "address",
          "name": "target",
          "type": "address"
        }
      ],
      "name": "AddressEmptyCode",
      "type": "error"
    },
    {
      "inputs": [
        {
          "internalType": "address",
          "name": "account",
          "type": "address"
        }
      ],
      "name": "AddressInsufficientBalance",
      "type": "error"
    },
    {
      "inputs": [],
      "name": "FailedInnerCall",
      "type": "error"
    },
    {
      "inputs": [],
      "name": "InvalidInitialization",
      "type": "error"
    },
    {
      "inputs": [],
      "name": "NotInitializing",
      "type": "error"
    },
    {
      "inputs": [
        {
          "internalType": "address",
          "name": "owner",
          "type": "address"
        }
      ],
      "name": "OwnableInvalidOwner",
      "type": "error"
    },
    {
      "inputs": [
        {
          "internalType": "address",
          "name": "account",
          "type": "address"
        }
      ],
      "name": "OwnableUnauthorizedAccount",
      "type": "error"
    },
    {
      "inputs": [
        {
          "internalType": "address",
          "name": "token",
          "type": "address"
        }
      ],
      "name": "SafeERC20FailedOperation",
      "type": "error"
    },
    {
      "anonymous": false,
      "inputs": [
        {
          "indexed": false,
          "internalType": "address",
          "name": "newBeneficiary",
          "type": "address"
        }
      ],
      "name": "BeneficiaryUpdated",
      "type": "event"
    },
    {
      "anonymous": false,
      "inputs": [
        {
          "indexed": false,
          "internalType": "uint256",
          "name": "amount",
          "type": "uint256"
        }
      ],
      "name": "FundsReleased",
      "type": "event"
    },
    {
      "anonymous": false,
      "inputs": [
        {
          "indexed": false,
          "internalType": "uint64",
          "name": "version",
          "type": "uint64"
        }
      ],
      "name": "Initialized",
      "type": "event"
    },
    {
      "anonymous": false,
      "inputs": [
        {
          "indexed": true,
          "internalType": "address",
          "name": "previousOwner",
          "type": "address"
        },
        {
          "indexed": true,
          "internalType": "address",
          "name": "newOwner",
          "type": "address"
        }
      ],
      "name": "OwnershipTransferStarted",
      "type": "event"
    },
    {
      "anonymous": false,
      "inputs": [
        {
          "indexed": true,
          "internalType": "address",
          "name": "previousOwner",
          "type": "address"
        },
        {
          "indexed": true,
          "internalType": "address",
          "name": "newOwner",
          "type": "address"
        }
      ],
      "name": "OwnershipTransferred",
      "type": "event"
    },
    {
      "inputs": [],
      "name": "ANNUAL_INTEREST_RATE",
      "outputs": [
        {
          "internalType": "uint64",
          "name": "",
          "type": "uint64"
        }
      ],
      "stateMutability": "view",
      "type": "function"
    },
    {
      "inputs": [],
      "name": "BASIS_POINTS",
      "outputs": [
        {
          "internalType": "uint64",
          "name": "",
          "type": "uint64"
        }
      ],
      "stateMutability": "view",
      "type": "function"
    },
    {
      "inputs": [],
      "name": "SENT",
      "outputs": [
        {
          "internalType": "contract IERC20",
          "name": "",
          "type": "address"
        }
      ],
      "stateMutability": "view",
      "type": "function"
    },
    {
      "inputs": [],
      "name": "acceptOwnership",
      "outputs": [],
      "stateMutability": "nonpayable",
      "type": "function"
    },
    {
      "inputs": [],
      "name": "beneficiary",
      "outputs": [
        {
          "internalType": "address",
          "name": "",
          "type": "address"
        }
      ],
      "stateMutability": "view",
      "type": "function"
    },
    {
      "inputs": [
        {
          "internalType": "uint256",
          "name": "balance",
          "type": "uint256"
        },
        {
          "internalType": "uint256",
          "name": "timeElapsed",
          "type": "uint256"
        }
      ],
      "name": "calculateInterestAmount",
      "outputs": [
        {
          "internalType": "uint256",
          "name": "",
          "type": "uint256"
        }
      ],
      "stateMutability": "pure",
      "type": "function"
    },
    {
      "inputs": [
        {
          "internalType": "uint256",
          "name": "timestamp",
          "type": "uint256"
        }
      ],
      "name": "calculateReleasedAmount",
      "outputs": [
        {
          "internalType": "uint256",
          "name": "",
          "type": "uint256"
        }
      ],
      "stateMutability": "view",
      "type": "function"
    },
    {
      "inputs": [],
      "name": "calculateTotalDeposited",
      "outputs": [
        {
          "internalType": "uint256",
          "name": "",
          "type": "uint256"
        }
      ],
      "stateMutability": "view",
      "type": "function"
    },
    {
      "inputs": [
        {
          "internalType": "address",
          "name": "_beneficiary",
          "type": "address"
        },
        {
          "internalType": "address",
          "name": "_sent",
          "type": "address"
        }
      ],
      "name": "initialize",
      "outputs": [],
      "stateMutability": "nonpayable",
      "type": "function"
    },
    {
      "inputs": [],
      "name": "lastPaidOutTime",
      "outputs": [
        {
          "internalType": "uint256",
          "name": "",
          "type": "uint256"
        }
      ],
      "stateMutability": "view",
      "type": "function"
    },
    {
      "inputs": [],
      "name": "owner",
      "outputs": [
        {
          "internalType": "address",
          "name": "",
          "type": "address"
        }
      ],
      "stateMutability": "view",
      "type": "function"
    },
    {
      "inputs": [],
      "name": "payoutReleased",
      "outputs": [],
      "stateMutability": "nonpayable",
      "type": "function"
    },
    {
      "inputs": [],
      "name": "pendingOwner",
      "outputs": [
        {
          "internalType": "address",
          "name": "",
          "type": "address"
        }
      ],
      "stateMutability": "view",
      "type": "function"
    },
    {
      "inputs": [],
      "name": "renounceOwnership",
      "outputs": [],
      "stateMutability": "nonpayable",
      "type": "function"
    },
    {
      "inputs": [
        {
          "internalType": "uint256",
          "name": "timestamp",
          "type": "uint256"
        }
      ],
      "name": "rewardRate",
      "outputs": [
        {
          "internalType": "uint256",
          "name": "",
          "type": "uint256"
        }
      ],
      "stateMutability": "view",
      "type": "function"
    },
    {
      "inputs": [
        {
          "internalType": "address",
          "name": "newBeneficiary",
          "type": "address"
        }
      ],
      "name": "setBeneficiary",
      "outputs": [],
      "stateMutability": "nonpayable",
      "type": "function"
    },
    {
      "inputs": [],
      "name": "totalPaidOut",
      "outputs": [
        {
          "internalType": "uint256",
          "name": "",
          "type": "uint256"
        }
      ],
      "stateMutability": "view",
      "type": "function"
    },
    {
      "inputs": [
        {
          "internalType": "address",
          "name": "newOwner",
          "type": "address"
        }
      ],
      "name": "transferOwnership",
      "outputs": [],
      "stateMutability": "nonpayable",
      "type": "function"
    }
  ],
  "bytecode": "0x608060405234801561001057600080fd5b50610c7c806100206000396000f3fe608060405234801561001057600080fd5b50600436106101365760003560e01c8063ab5fcdc9116100b2578063cea0196211610081578063e30c397811610066578063e30c397814610249578063f2fde38b14610251578063f85bb0f01461026457600080fd5b8063cea019621461022d578063e1f1c4a71461024057600080fd5b8063ab5fcdc9146101e8578063b6783393146101f1578063bc135d7514610212578063ca5980871461022557600080fd5b806360e52ecb11610109578063715018a6116100ee578063715018a6146101d057806379ba5097146101d85780638da5cb5b146101e057600080fd5b806360e52ecb146101aa5780636cc8e783146101bd57600080fd5b80631357e1dc1461013b5780631c31f7101461015757806338af3eed1461016c578063485cc95514610197575b600080fd5b61014460025481565b6040519081526020015b60405180910390f35b61016a610165366004610adb565b61026c565b005b60015461017f906001600160a01b031681565b6040516001600160a01b03909116815260200161014e565b61016a6101a5366004610af6565b6102c8565b60005461017f906001600160a01b031681565b6101446101cb366004610b29565b610421565b61016a6104bf565b61016a6104d3565b61017f610520565b61014460035481565b6101f9609181565b60405167ffffffffffffffff909116815260200161014e565b610144610220366004610b42565b610555565b61014461059a565b61014461023b366004610b29565b61061c565b6101f96103e881565b61017f610652565b61016a61025f366004610adb565b61067b565b61016a610700565b61027461077d565b600180546001600160a01b0319166001600160a01b0383169081179091556040519081527feee59a71c694e68368a1cb0d135c448051bbfb12289e6c2223b0ceb100c2321d9060200160405180910390a150565b7ff0c57e16840df040f15088dc2f81fe391c3923bec73e23a9662efc9c229c6a00805468010000000000000000810460ff16159067ffffffffffffffff166000811580156103135750825b905060008267ffffffffffffffff1660011480156103305750303b155b90508115801561033e575080155b1561035c5760405163f92ee8a960e01b815260040160405180910390fd5b845467ffffffffffffffff19166001178555831561039057845468ff00000000000000001916680100000000000000001785555b600180546001600160a01b03808a166001600160a01b0319928316179092554260035560008054928916929091169190911790556103cd336107af565b831561041857845468ff000000000000000019168555604051600181527fc7f505b2f371ae2175ee4913f4499e1f2633a7b5936321eed1cdaeb6115181d29060200160405180910390a15b50505050505050565b600080600354836104329190610b7a565b6000546040516370a0823160e01b81523060048201529192506104ab916001600160a01b03909116906370a0823190602401602060405180830381865afa158015610481573d6000803e3d6000fd5b505050506040513d601f19601f820116820180604052508101906104a59190610b8d565b82610555565b6002546104b89190610ba6565b9392505050565b6104c761077d565b6104d160006107c0565b565b33806104dd610652565b6001600160a01b0316146105145760405163118cdaa760e01b81526001600160a01b03821660048201526024015b60405180910390fd5b61051d816107c0565b50565b6000807f9016d09d72d40fdae2fd8ceac6b6234c7706214fd39c1cd1e609a0528c1993005b546001600160a01b031692915050565b60006105676103e86301e13380610bb9565b67ffffffffffffffff168261057d609186610be5565b6105879190610be5565b6105919190610bfc565b90505b92915050565b600254600080546040516370a0823160e01b81523060048201529192916001600160a01b03909116906370a0823190602401602060405180830381865afa1580156105e9573d6000803e3d6000fd5b505050506040513d601f19601f8201168201806040525081019061060d9190610b8d565b6106179190610ba6565b905090565b60008061062883610421565b9050600061063461059a565b905061064a6106438383610b7a565b6078610555565b949350505050565b6000807f237e158222e3e6968b72b9db0d8043aacf074ad9f650f0d1606b4d82ee432c00610545565b61068361077d565b7f237e158222e3e6968b72b9db0d8043aacf074ad9f650f0d1606b4d82ee432c0080546001600160a01b0319166001600160a01b03831690811782556106c7610520565b6001600160a01b03167f38d16b8cac22d99fc7c124b9cd0de2d3fa1faef420bfe791d8c362d765e2270060405160405180910390a35050565b600061070b42610421565b905060006002548261071d9190610b7a565b6002839055426003556040518181529091507f952b264c8e0a06cddb4bbaa6d6af1d565145329fd95bbe72cb2b53942b2dc9669060200160405180910390a1600154600054610779916001600160a01b039182169116836107f8565b5050565b33610786610520565b6001600160a01b0316146104d15760405163118cdaa760e01b815233600482015260240161050b565b6107b7610864565b61051d816108b2565b7f237e158222e3e6968b72b9db0d8043aacf074ad9f650f0d1606b4d82ee432c0080546001600160a01b0319168155610779826108e4565b604080516001600160a01b038416602482015260448082018490528251808303909101815260649091019091526020810180517bffffffffffffffffffffffffffffffffffffffffffffffffffffffff1663a9059cbb60e01b17905261085f908490610955565b505050565b7ff0c57e16840df040f15088dc2f81fe391c3923bec73e23a9662efc9c229c6a005468010000000000000000900460ff166104d157604051631afcd79f60e31b815260040160405180910390fd5b6108ba610864565b6001600160a01b03811661051457604051631e4fbdf760e01b81526000600482015260240161050b565b7f9016d09d72d40fdae2fd8ceac6b6234c7706214fd39c1cd1e609a0528c19930080546001600160a01b031981166001600160a01b03848116918217845560405192169182907f8be0079c531659141344cd1fd0a4f28419497f9722a3daafe3b4186f6b6457e090600090a3505050565b600061096a6001600160a01b038416836109b8565b9050805160001415801561098f57508080602001905181019061098d9190610c1e565b155b1561085f57604051635274afe760e01b81526001600160a01b038416600482015260240161050b565b60606105918383600084600080856001600160a01b031684866040516109de9190610c40565b60006040518083038185875af1925050503d8060008114610a1b576040519150601f19603f3d011682016040523d82523d6000602084013e610a20565b606091505b5091509150610a30868383610a3a565b9695505050505050565b606082610a4f57610a4a82610a96565b6104b8565b8151158015610a6657506001600160a01b0384163b155b15610a8f57604051639996b31560e01b81526001600160a01b038516600482015260240161050b565b50806104b8565b805115610aa65780518082602001fd5b604051630a12f52160e11b815260040160405180910390fd5b80356001600160a01b0381168114610ad657600080fd5b919050565b600060208284031215610aed57600080fd5b61059182610abf565b60008060408385031215610b0957600080fd5b610b1283610abf565b9150610b2060208401610abf565b90509250929050565b600060208284031215610b3b57600080fd5b5035919050565b60008060408385031215610b5557600080fd5b50508035926020909101359150565b634e487b7160e01b600052601160045260246000fd5b8181038181111561059457610594610b64565b600060208284031215610b9f57600080fd5b5051919050565b8082018082111561059457610594610b64565b67ffffffffffffffff818116838216028082169190828114610bdd57610bdd610b64565b505092915050565b808202811582820484141761059457610594610b64565b600082610c1957634e487b7160e01b600052601260045260246000fd5b500490565b600060208284031215610c3057600080fd5b815180151581146104b857600080fd5b6000825160005b81811015610c615760208186018101518583015201610c47565b50600092019182525091905056fea164736f6c6343000814000a",
  "linkReferences": {},
  "deployedLinkReferences": {}
}