{
  "_format": "hh-sol-artifact-1",
  "contractName": "RewardRatePool",
  "sourceName": "contracts/RewardRatePool.sol",
  "abi": [
    {
      "inputs": [
        {
          "internalType": "address",
          "name": "target",
          "type": "address"
        }
      ],
      "name": "AddressEmptyCode",
      "type": "error"
    },
    {
      "inputs": [
        {
          "internalType": "address",
          "name": "account",
          "type": "address"
        }
      ],
      "name": "AddressInsufficientBalance",
      "type": "error"
    },
    {
      "inputs": [],
      "name": "FailedInnerCall",
      "type": "error"
    },
    {
      "inputs": [],
      "name": "InvalidInitialization",
      "type": "error"
    },
    {
      "inputs": [],
      "name": "NotInitializing",
      "type": "error"
    },
    {
      "inputs": [
        {
          "internalType": "address",
          "name": "owner",
          "type": "address"
        }
      ],
      "name": "OwnableInvalidOwner",
      "type": "error"
    },
    {
      "inputs": [
        {
          "internalType": "address",
          "name": "account",
          "type": "address"
        }
      ],
      "name": "OwnableUnauthorizedAccount",
      "type": "error"
    },
    {
      "inputs": [
        {
          "internalType": "address",
          "name": "token",
          "type": "address"
        }
      ],
      "name": "SafeERC20FailedOperation",
      "type": "error"
    },
    {
      "anonymous": false,
      "inputs": [
        {
          "indexed": false,
          "internalType": "address",
          "name": "newBeneficiary",
          "type": "address"
        }
      ],
      "name": "BeneficiaryUpdated",
      "type": "event"
    },
    {
      "anonymous": false,
      "inputs": [
        {
          "indexed": false,
          "internalType": "uint256",
          "name": "amount",
          "type": "uint256"
        }
      ],
      "name": "FundsReleased",
      "type": "event"
    },
    {
      "anonymous": false,
      "inputs": [
        {
          "indexed": false,
          "internalType": "uint64",
          "name": "version",
          "type": "uint64"
        }
      ],
      "name": "Initialized",
      "type": "event"
    },
    {
      "anonymous": false,
      "inputs": [
        {
          "indexed": true,
          "internalType": "address",
          "name": "previousOwner",
          "type": "address"
        },
        {
          "indexed": true,
          "internalType": "address",
          "name": "newOwner",
          "type": "address"
        }
      ],
      "name": "OwnershipTransferStarted",
      "type": "event"
    },
    {
      "anonymous": false,
      "inputs": [
        {
          "indexed": true,
          "internalType": "address",
          "name": "previousOwner",
          "type": "address"
        },
        {
          "indexed": true,
          "internalType": "address",
          "name": "newOwner",
          "type": "address"
        }
      ],
      "name": "OwnershipTransferred",
      "type": "event"
    },
    {
      "inputs": [],
      "name": "ANNUAL_SIMPLE_PAYOUT_RATE",
      "outputs": [
        {
          "internalType": "uint64",
          "name": "",
          "type": "uint64"
        }
      ],
      "stateMutability": "view",
      "type": "function"
    },
    {
      "inputs": [],
      "name": "BASIS_POINTS",
      "outputs": [
        {
          "internalType": "uint64",
          "name": "",
          "type": "uint64"
        }
      ],
      "stateMutability": "view",
      "type": "function"
    },
    {
      "inputs": [],
      "name": "SENT",
      "outputs": [
        {
          "internalType": "contract IERC20",
          "name": "",
          "type": "address"
        }
      ],
      "stateMutability": "view",
      "type": "function"
    },
    {
      "inputs": [],
      "name": "acceptOwnership",
      "outputs": [],
      "stateMutability": "nonpayable",
      "type": "function"
    },
    {
      "inputs": [],
      "name": "beneficiary",
      "outputs": [
        {
          "internalType": "address",
          "name": "",
          "type": "address"
        }
      ],
      "stateMutability": "view",
      "type": "function"
    },
    {
      "inputs": [
        {
          "internalType": "uint256",
          "name": "balance",
          "type": "uint256"
        },
        {
          "internalType": "uint256",
          "name": "timeElapsed",
          "type": "uint256"
        }
      ],
      "name": "calculatePayoutAmount",
      "outputs": [
        {
          "internalType": "uint256",
          "name": "",
          "type": "uint256"
        }
      ],
      "stateMutability": "pure",
      "type": "function"
    },
    {
      "inputs": [],
      "name": "calculateReleasedAmount",
      "outputs": [
        {
          "internalType": "uint256",
          "name": "",
          "type": "uint256"
        }
      ],
      "stateMutability": "view",
      "type": "function"
    },
    {
      "inputs": [],
      "name": "calculateTotalDeposited",
      "outputs": [
        {
          "internalType": "uint256",
          "name": "",
          "type": "uint256"
        }
      ],
      "stateMutability": "view",
      "type": "function"
    },
    {
      "inputs": [
        {
          "internalType": "address",
          "name": "_beneficiary",
          "type": "address"
        },
        {
          "internalType": "address",
          "name": "_sent",
          "type": "address"
        }
      ],
      "name": "initialize",
      "outputs": [],
      "stateMutability": "nonpayable",
      "type": "function"
    },
    {
      "inputs": [],
      "name": "lastPaidOutTime",
      "outputs": [
        {
          "internalType": "uint256",
          "name": "",
          "type": "uint256"
        }
      ],
      "stateMutability": "view",
      "type": "function"
    },
    {
      "inputs": [],
      "name": "owner",
      "outputs": [
        {
          "internalType": "address",
          "name": "",
          "type": "address"
        }
      ],
      "stateMutability": "view",
      "type": "function"
    },
    {
      "inputs": [],
      "name": "payoutReleased",
      "outputs": [],
      "stateMutability": "nonpayable",
      "type": "function"
    },
    {
      "inputs": [],
      "name": "pendingOwner",
      "outputs": [
        {
          "internalType": "address",
          "name": "",
          "type": "address"
        }
      ],
      "stateMutability": "view",
      "type": "function"
    },
    {
      "inputs": [],
      "name": "renounceOwnership",
      "outputs": [],
      "stateMutability": "nonpayable",
      "type": "function"
    },
    {
      "inputs": [],
      "name": "rewardRate",
      "outputs": [
        {
          "internalType": "uint256",
          "name": "",
          "type": "uint256"
        }
      ],
      "stateMutability": "view",
      "type": "function"
    },
    {
      "inputs": [
        {
          "internalType": "address",
          "name": "newBeneficiary",
          "type": "address"
        }
      ],
      "name": "setBeneficiary",
      "outputs": [],
      "stateMutability": "nonpayable",
      "type": "function"
    },
    {
      "inputs": [],
      "name": "totalPaidOut",
      "outputs": [
        {
          "internalType": "uint256",
          "name": "",
          "type": "uint256"
        }
      ],
      "stateMutability": "view",
      "type": "function"
    },
    {
      "inputs": [
        {
          "internalType": "address",
          "name": "newOwner",
          "type": "address"
        }
      ],
      "name": "transferOwnership",
      "outputs": [],
      "stateMutability": "nonpayable",
      "type": "function"
    }
  ],
  "bytecode": "0x6080604052348015600f57600080fd5b50610ba98061001f6000396000f3fe608060405234801561001057600080fd5b50600436106100e65760003560e01c80631357e1dc146100eb5780631c31f7101461010757806332f7c3841461011c57806338af3eed14610124578063485cc9551461014457806360e52ecb14610157578063715018a61461016a57806379ba5097146101725780637b0a47ee1461017a5780638da5cb5b14610182578063ab1a4a2f1461018a578063ab5fcdc91461019f578063ca598087146101a8578063d66fcb69146101b0578063e1f1c4a7146101c3578063e30c3978146101cc578063f2fde38b146101d4578063f85bb0f0146101e7575b600080fd5b6100f460025481565b6040519081526020015b60405180910390f35b61011a6101153660046109fc565b6101ef565b005b6100f461024d565b600154610137906001600160a01b031681565b6040516100fe9190610a17565b61011a610152366004610a2b565b6102ef565b600054610137906001600160a01b031681565b61011a610422565b61011a610436565b6100f461047e565b6101376104b2565b610192609781565b6040516100fe9190610a5e565b6100f460035481565b6100f46104cd565b6100f46101be366004610a72565b610554565b6101926103e881565b610137610598565b61011a6101e23660046109fc565b6105a3565b61011a610614565b6101f7610690565b600180546001600160a01b0319166001600160a01b0383161790556040517feee59a71c694e68368a1cb0d135c448051bbfb12289e6c2223b0ceb100c2321d90610242908390610a17565b60405180910390a150565b6000806003544261025e9190610aaa565b6000546040516370a0823160e01b81529192506102dc916001600160a01b03909116906370a0823190610295903090600401610a17565b602060405180830381865afa1580156102b2573d6000803e3d6000fd5b505050506040513d601f19601f820116820180604052508101906102d69190610abd565b82610554565b6002546102e99190610ad6565b91505090565b60006102f96106c2565b805490915060ff600160401b82041615906001600160401b03166000811580156103205750825b90506000826001600160401b0316600114801561033c5750303b155b90508115801561034a575080155b156103685760405163f92ee8a960e01b815260040160405180910390fd5b84546001600160401b0319166001178555831561039157845460ff60401b1916600160401b1785555b600180546001600160a01b03808a166001600160a01b0319928316179092554260035560008054928916929091169190911790556103ce336106e6565b831561041957845460ff60401b191685556040517fc7f505b2f371ae2175ee4913f4499e1f2633a7b5936321eed1cdaeb6115181d29061041090600190610a5e565b60405180910390a15b50505050505050565b61042a610690565b61043460006106f7565b565b3380610440610598565b6001600160a01b031614610472578060405163118cdaa760e01b81526004016104699190610a17565b60405180910390fd5b61047b816106f7565b50565b60008061048961024d565b905060006104956104cd565b90506104ab6104a48383610aaa565b6078610554565b9250505090565b6000806104bd61071a565b546001600160a01b031692915050565b600254600080546040516370a0823160e01b81529192916001600160a01b03909116906370a0823190610504903090600401610a17565b602060405180830381865afa158015610521573d6000803e3d6000fd5b505050506040513d601f19601f820116820180604052508101906105459190610abd565b61054f9190610ad6565b905090565b60006105666103e86301e13380610ae9565b6001600160401b03168261057b609786610b12565b6105859190610b12565b61058f9190610b29565b90505b92915050565b6000806104bd61073e565b6105ab610690565b60006105b561073e565b80546001600160a01b0319166001600160a01b03841690811782559091506105db6104b2565b6001600160a01b03167f38d16b8cac22d99fc7c124b9cd0de2d3fa1faef420bfe791d8c362d765e2270060405160405180910390a35050565b600061061e61024d565b90506000600254826106309190610aaa565b6002839055426003556040518181529091507f952b264c8e0a06cddb4bbaa6d6af1d565145329fd95bbe72cb2b53942b2dc9669060200160405180910390a160015460005461068c916001600160a01b03918216911683610762565b5050565b336106996104b2565b6001600160a01b031614610434573360405163118cdaa760e01b81526004016104699190610a17565b7ff0c57e16840df040f15088dc2f81fe391c3923bec73e23a9662efc9c229c6a0090565b6106ee6107b9565b61047b816107de565b600061070161073e565b80546001600160a01b0319168155905061068c82610810565b7f9016d09d72d40fdae2fd8ceac6b6234c7706214fd39c1cd1e609a0528c19930090565b7f237e158222e3e6968b72b9db0d8043aacf074ad9f650f0d1606b4d82ee432c0090565b604080516001600160a01b038416602482015260448082018490528251808303909101815260649091019091526020810180516001600160e01b031663a9059cbb60e01b1790526107b490849061086c565b505050565b6107c16108c6565b61043457604051631afcd79f60e31b815260040160405180910390fd5b6107e66107b9565b6001600160a01b038116610472576000604051631e4fbdf760e01b81526004016104699190610a17565b600061081a61071a565b80546001600160a01b038481166001600160a01b031983168117845560405193945091169182907f8be0079c531659141344cd1fd0a4f28419497f9722a3daafe3b4186f6b6457e090600090a3505050565b60006108816001600160a01b038416836108e0565b905080516000141580156108a65750808060200190518101906108a49190610b4b565b155b156107b45782604051635274afe760e01b81526004016104699190610a17565b60006108d06106c2565b54600160401b900460ff16919050565b606061058f8383600084600080856001600160a01b031684866040516109069190610b6d565b60006040518083038185875af1925050503d8060008114610943576040519150601f19603f3d011682016040523d82523d6000602084013e610948565b606091505b5091509150610958868383610964565b925050505b9392505050565b60608261097957610974826109b7565b61095d565b815115801561099057506001600160a01b0384163b155b156109b05783604051639996b31560e01b81526004016104699190610a17565b508061095d565b8051156109c75780518082602001fd5b604051630a12f52160e11b815260040160405180910390fd5b80356001600160a01b03811681146109f757600080fd5b919050565b600060208284031215610a0e57600080fd5b61058f826109e0565b6001600160a01b0391909116815260200190565b60008060408385031215610a3e57600080fd5b610a47836109e0565b9150610a55602084016109e0565b90509250929050565b6001600160401b0391909116815260200190565b60008060408385031215610a8557600080fd5b50508035926020909101359150565b634e487b7160e01b600052601160045260246000fd5b8181038181111561059257610592610a94565b600060208284031215610acf57600080fd5b5051919050565b8082018082111561059257610592610a94565b6001600160401b038181168382160290811690818114610b0b57610b0b610a94565b5092915050565b808202811582820484141761059257610592610a94565b600082610b4657634e487b7160e01b600052601260045260246000fd5b500490565b600060208284031215610b5d57600080fd5b8151801515811461095d57600080fd5b6000825160005b81811015610b8e5760208186018101518583015201610b74565b50600092019182525091905056fea164736f6c634300081a000a",
  "linkReferences": {},
  "deployedLinkReferences": {}
}