{
  "_format": "hh-sol-artifact-1",
  "contractName": "ServiceNodeRewards",
  "sourceName": "contracts/ServiceNodeRewards.sol",
  "abi": [
    {
      "inputs": [
        {
          "internalType": "address",
          "name": "target",
          "type": "address"
        }
      ],
      "name": "AddressEmptyCode",
      "type": "error"
    },
    {
      "inputs": [
        {
          "internalType": "address",
          "name": "account",
          "type": "address"
        }
      ],
      "name": "AddressInsufficientBalance",
      "type": "error"
    },
    {
      "inputs": [
        {
          "internalType": "uint64",
          "name": "serviceNodeID",
          "type": "uint64"
        }
      ],
      "name": "BLSPubkeyAlreadyExists",
      "type": "error"
    },
    {
      "inputs": [
        {
          "internalType": "uint64",
          "name": "serviceNodeID",
          "type": "uint64"
        },
        {
          "components": [
            {
              "internalType": "uint256",
              "name": "X",
              "type": "uint256"
            },
            {
              "internalType": "uint256",
              "name": "Y",
              "type": "uint256"
            }
          ],
          "internalType": "struct BN256G1.G1Point",
          "name": "pubkey",
          "type": "tuple"
        }
      ],
      "name": "BLSPubkeyDoesNotMatch",
      "type": "error"
    },
    {
      "inputs": [
        {
          "internalType": "uint64",
          "name": "serviceNodeID",
          "type": "uint64"
        },
        {
          "internalType": "address",
          "name": "contributor",
          "type": "address"
        }
      ],
      "name": "CallerNotContributor",
      "type": "error"
    },
    {
      "inputs": [],
      "name": "ContractAlreadyStarted",
      "type": "error"
    },
    {
      "inputs": [],
      "name": "ContractNotStarted",
      "type": "error"
    },
    {
      "inputs": [
        {
          "internalType": "uint256",
          "name": "required",
          "type": "uint256"
        },
        {
          "internalType": "uint256",
          "name": "provided",
          "type": "uint256"
        }
      ],
      "name": "ContributionTotalMismatch",
      "type": "error"
    },
    {
      "inputs": [],
      "name": "DeleteSentinelNodeNotAllowed",
      "type": "error"
    },
    {
      "inputs": [
        {
          "internalType": "uint64",
          "name": "serviceNodeID",
          "type": "uint64"
        },
        {
          "internalType": "address",
          "name": "contributor",
          "type": "address"
        }
      ],
      "name": "EarlierLeaveRequestMade",
      "type": "error"
    },
    {
      "inputs": [],
      "name": "EnforcedPause",
      "type": "error"
    },
    {
      "inputs": [],
      "name": "ExpectedPause",
      "type": "error"
    },
    {
      "inputs": [],
      "name": "FailedInnerCall",
      "type": "error"
    },
    {
      "inputs": [
        {
          "internalType": "address",
          "name": "operator",
          "type": "address"
        },
        {
          "internalType": "address",
          "name": "contributor",
          "type": "address"
        }
      ],
      "name": "FirstContributorMismatch",
      "type": "error"
    },
    {
      "inputs": [
        {
          "internalType": "uint256",
          "name": "numSigners",
          "type": "uint256"
        },
        {
          "internalType": "uint256",
          "name": "requiredSigners",
          "type": "uint256"
        }
      ],
      "name": "InsufficientBLSSignatures",
      "type": "error"
    },
    {
      "inputs": [],
      "name": "InvalidBLSProofOfPossession",
      "type": "error"
    },
    {
      "inputs": [],
      "name": "InvalidBLSSignature",
      "type": "error"
    },
    {
      "inputs": [],
      "name": "InvalidInitialization",
      "type": "error"
    },
    {
      "inputs": [
        {
          "internalType": "uint64",
          "name": "serviceNodeID",
          "type": "uint64"
        },
        {
          "internalType": "uint256",
          "name": "timestamp",
          "type": "uint256"
        },
        {
          "internalType": "uint256",
          "name": "currenttime",
          "type": "uint256"
        }
      ],
      "name": "LeaveRequestTooEarly",
      "type": "error"
    },
    {
      "inputs": [],
      "name": "MaxContributorsExceeded",
      "type": "error"
    },
    {
      "inputs": [],
      "name": "NotInitializing",
      "type": "error"
    },
    {
      "inputs": [],
      "name": "NullRecipient",
      "type": "error"
    },
    {
      "inputs": [
        {
          "internalType": "address",
          "name": "owner",
          "type": "address"
        }
      ],
      "name": "OwnableInvalidOwner",
      "type": "error"
    },
    {
      "inputs": [
        {
          "internalType": "address",
          "name": "account",
          "type": "address"
        }
      ],
      "name": "OwnableUnauthorizedAccount",
      "type": "error"
    },
    {
      "inputs": [
        {
          "internalType": "address",
          "name": "expectedRecipient",
          "type": "address"
        },
        {
          "internalType": "address",
          "name": "providedRecipient",
          "type": "address"
        },
        {
          "internalType": "uint256",
          "name": "serviceNodeID",
          "type": "uint256"
        }
      ],
      "name": "RecipientAddressDoesNotMatch",
      "type": "error"
    },
    {
      "inputs": [],
      "name": "RecipientRewardsTooLow",
      "type": "error"
    },
    {
      "inputs": [
        {
          "internalType": "address",
          "name": "token",
          "type": "address"
        }
      ],
      "name": "SafeERC20FailedOperation",
      "type": "error"
    },
    {
      "inputs": [
        {
          "internalType": "uint64",
          "name": "serviceNodeID",
          "type": "uint64"
        }
      ],
      "name": "ServiceNodeDoesntExist",
      "type": "error"
    },
    {
      "inputs": [
        {
          "internalType": "uint64",
          "name": "serviceNodeID",
          "type": "uint64"
        },
        {
          "internalType": "uint256",
          "name": "timestamp",
          "type": "uint256"
        },
        {
          "internalType": "uint256",
          "name": "currenttime",
          "type": "uint256"
        }
      ],
      "name": "SignatureExpired",
      "type": "error"
    },
    {
      "inputs": [
        {
          "internalType": "uint64",
          "name": "serviceNodeID",
          "type": "uint64"
        },
        {
          "internalType": "address",
          "name": "contributor",
          "type": "address"
        }
      ],
      "name": "SmallContributorLeaveTooEarly",
      "type": "error"
    },
    {
      "anonymous": false,
      "inputs": [
        {
          "indexed": false,
          "internalType": "uint256",
          "name": "newMax",
          "type": "uint256"
        }
      ],
      "name": "BLSNonSignerThresholdMaxUpdated",
      "type": "event"
    },
    {
      "anonymous": false,
      "inputs": [
        {
          "indexed": false,
          "internalType": "uint64",
          "name": "version",
          "type": "uint64"
        }
      ],
      "name": "Initialized",
      "type": "event"
    },
    {
      "anonymous": false,
      "inputs": [
        {
          "indexed": true,
          "internalType": "uint64",
          "name": "serviceNodeID",
          "type": "uint64"
        },
        {
          "components": [
            {
              "internalType": "uint256",
              "name": "X",
              "type": "uint256"
            },
            {
              "internalType": "uint256",
              "name": "Y",
              "type": "uint256"
            }
          ],
          "indexed": false,
          "internalType": "struct BN256G1.G1Point",
          "name": "pubkey",
          "type": "tuple"
        }
      ],
      "name": "NewSeededServiceNode",
      "type": "event"
    },
    {
      "anonymous": false,
      "inputs": [
        {
          "indexed": true,
          "internalType": "uint64",
          "name": "serviceNodeID",
          "type": "uint64"
        },
        {
          "indexed": false,
          "internalType": "address",
          "name": "initiator",
          "type": "address"
        },
        {
          "components": [
            {
              "internalType": "uint256",
              "name": "X",
              "type": "uint256"
            },
            {
              "internalType": "uint256",
              "name": "Y",
              "type": "uint256"
            }
          ],
          "indexed": false,
          "internalType": "struct BN256G1.G1Point",
          "name": "pubkey",
          "type": "tuple"
        },
        {
          "components": [
            {
              "internalType": "uint256",
              "name": "serviceNodePubkey",
              "type": "uint256"
            },
            {
              "internalType": "uint256",
              "name": "serviceNodeSignature1",
              "type": "uint256"
            },
            {
              "internalType": "uint256",
              "name": "serviceNodeSignature2",
              "type": "uint256"
            },
            {
              "internalType": "uint16",
              "name": "fee",
              "type": "uint16"
            }
          ],
          "indexed": false,
          "internalType": "struct IServiceNodeRewards.ServiceNodeParams",
          "name": "serviceNode",
          "type": "tuple"
        },
        {
          "components": [
            {
              "internalType": "address",
              "name": "addr",
              "type": "address"
            },
            {
              "internalType": "uint256",
              "name": "stakedAmount",
              "type": "uint256"
            }
          ],
          "indexed": false,
          "internalType": "struct IServiceNodeRewards.Contributor[]",
          "name": "contributors",
          "type": "tuple[]"
        }
      ],
      "name": "NewServiceNode",
      "type": "event"
    },
    {
      "anonymous": false,
      "inputs": [
        {
          "indexed": true,
          "internalType": "address",
          "name": "previousOwner",
          "type": "address"
        },
        {
          "indexed": true,
          "internalType": "address",
          "name": "newOwner",
          "type": "address"
        }
      ],
      "name": "OwnershipTransferStarted",
      "type": "event"
    },
    {
      "anonymous": false,
      "inputs": [
        {
          "indexed": true,
          "internalType": "address",
          "name": "previousOwner",
          "type": "address"
        },
        {
          "indexed": true,
          "internalType": "address",
          "name": "newOwner",
          "type": "address"
        }
      ],
      "name": "OwnershipTransferred",
      "type": "event"
    },
    {
      "anonymous": false,
      "inputs": [
        {
          "indexed": false,
          "internalType": "address",
          "name": "account",
          "type": "address"
        }
      ],
      "name": "Paused",
      "type": "event"
    },
    {
      "anonymous": false,
      "inputs": [
        {
          "indexed": true,
          "internalType": "address",
          "name": "recipientAddress",
          "type": "address"
        },
        {
          "indexed": false,
          "internalType": "uint256",
          "name": "amount",
          "type": "uint256"
        },
        {
          "indexed": false,
          "internalType": "uint256",
          "name": "previousBalance",
          "type": "uint256"
        }
      ],
      "name": "RewardsBalanceUpdated",
      "type": "event"
    },
    {
      "anonymous": false,
      "inputs": [
        {
          "indexed": true,
          "internalType": "address",
          "name": "recipientAddress",
          "type": "address"
        },
        {
          "indexed": false,
          "internalType": "uint256",
          "name": "amount",
          "type": "uint256"
        }
      ],
      "name": "RewardsClaimed",
      "type": "event"
    },
    {
      "anonymous": false,
      "inputs": [
        {
          "indexed": true,
          "internalType": "uint64",
          "name": "serviceNodeID",
          "type": "uint64"
        },
        {
          "indexed": false,
          "internalType": "address",
          "name": "operator",
          "type": "address"
        },
        {
          "components": [
            {
              "internalType": "uint256",
              "name": "X",
              "type": "uint256"
            },
            {
              "internalType": "uint256",
              "name": "Y",
              "type": "uint256"
            }
          ],
          "indexed": false,
          "internalType": "struct BN256G1.G1Point",
          "name": "pubkey",
          "type": "tuple"
        }
      ],
      "name": "ServiceNodeLiquidated",
      "type": "event"
    },
    {
      "anonymous": false,
      "inputs": [
        {
          "indexed": true,
          "internalType": "uint64",
          "name": "serviceNodeID",
          "type": "uint64"
        },
        {
          "indexed": false,
          "internalType": "address",
          "name": "operator",
          "type": "address"
        },
        {
          "indexed": false,
          "internalType": "uint256",
          "name": "returnedAmount",
          "type": "uint256"
        },
        {
          "components": [
            {
              "internalType": "uint256",
              "name": "X",
              "type": "uint256"
            },
            {
              "internalType": "uint256",
              "name": "Y",
              "type": "uint256"
            }
          ],
          "indexed": false,
          "internalType": "struct BN256G1.G1Point",
          "name": "pubkey",
          "type": "tuple"
        }
      ],
      "name": "ServiceNodeRemoval",
      "type": "event"
    },
    {
      "anonymous": false,
      "inputs": [
        {
          "indexed": true,
          "internalType": "uint64",
          "name": "serviceNodeID",
          "type": "uint64"
        },
        {
          "indexed": false,
          "internalType": "address",
          "name": "contributor",
          "type": "address"
        },
        {
          "components": [
            {
              "internalType": "uint256",
              "name": "X",
              "type": "uint256"
            },
            {
              "internalType": "uint256",
              "name": "Y",
              "type": "uint256"
            }
          ],
          "indexed": false,
          "internalType": "struct BN256G1.G1Point",
          "name": "pubkey",
          "type": "tuple"
        }
      ],
      "name": "ServiceNodeRemovalRequest",
      "type": "event"
    },
    {
      "anonymous": false,
      "inputs": [
        {
          "indexed": false,
          "internalType": "uint256",
          "name": "newExpiry",
          "type": "uint256"
        }
      ],
      "name": "SignatureExpiryUpdated",
      "type": "event"
    },
    {
      "anonymous": false,
      "inputs": [
        {
          "indexed": false,
          "internalType": "uint256",
          "name": "newRequirement",
          "type": "uint256"
        }
      ],
      "name": "StakingRequirementUpdated",
      "type": "event"
    },
    {
      "anonymous": false,
      "inputs": [
        {
          "indexed": false,
          "internalType": "address",
          "name": "account",
          "type": "address"
        }
      ],
      "name": "Unpaused",
      "type": "event"
    },
    {
      "inputs": [],
      "name": "LIST_SENTINEL",
      "outputs": [
        {
          "internalType": "uint64",
          "name": "",
          "type": "uint64"
        }
      ],
      "stateMutability": "view",
      "type": "function"
    },
    {
      "inputs": [],
      "name": "MAX_PERMITTED_PUBKEY_AGGREGATIONS_LOWER_BOUND",
      "outputs": [
        {
          "internalType": "uint256",
          "name": "",
          "type": "uint256"
        }
      ],
      "stateMutability": "view",
      "type": "function"
    },
    {
      "inputs": [],
      "name": "MAX_SERVICE_NODE_REMOVAL_WAIT_TIME",
      "outputs": [
        {
          "internalType": "uint256",
          "name": "",
          "type": "uint256"
        }
      ],
      "stateMutability": "view",
      "type": "function"
    },
    {
      "inputs": [],
      "name": "SMALL_CONTRIBUTOR_DIVISOR",
      "outputs": [
        {
          "internalType": "uint256",
          "name": "",
          "type": "uint256"
        }
      ],
      "stateMutability": "view",
      "type": "function"
    },
    {
      "inputs": [],
      "name": "SMALL_CONTRIBUTOR_LEAVE_DELAY",
      "outputs": [
        {
          "internalType": "uint256",
          "name": "",
          "type": "uint256"
        }
      ],
      "stateMutability": "view",
      "type": "function"
    },
    {
      "inputs": [],
      "name": "_aggregatePubkey",
      "outputs": [
        {
          "internalType": "uint256",
          "name": "X",
          "type": "uint256"
        },
        {
          "internalType": "uint256",
          "name": "Y",
          "type": "uint256"
        }
      ],
      "stateMutability": "view",
      "type": "function"
    },
    {
      "inputs": [],
      "name": "_lastHeightPubkeyWasAggregated",
      "outputs": [
        {
          "internalType": "uint256",
          "name": "",
          "type": "uint256"
        }
      ],
      "stateMutability": "view",
      "type": "function"
    },
    {
      "inputs": [],
      "name": "_numPubkeyAggregationsForHeight",
      "outputs": [
        {
          "internalType": "uint256",
          "name": "",
          "type": "uint256"
        }
      ],
      "stateMutability": "view",
      "type": "function"
    },
    {
      "inputs": [],
      "name": "acceptOwnership",
      "outputs": [],
      "stateMutability": "nonpayable",
      "type": "function"
    },
    {
      "inputs": [
        {
          "components": [
            {
              "internalType": "uint256",
              "name": "X",
              "type": "uint256"
            },
            {
              "internalType": "uint256",
              "name": "Y",
              "type": "uint256"
            }
          ],
          "internalType": "struct BN256G1.G1Point",
          "name": "blsPubkey",
          "type": "tuple"
        },
        {
          "components": [
            {
              "internalType": "uint256",
              "name": "sigs0",
              "type": "uint256"
            },
            {
              "internalType": "uint256",
              "name": "sigs1",
              "type": "uint256"
            },
            {
              "internalType": "uint256",
              "name": "sigs2",
              "type": "uint256"
            },
            {
              "internalType": "uint256",
              "name": "sigs3",
              "type": "uint256"
            }
          ],
          "internalType": "struct IServiceNodeRewards.BLSSignatureParams",
          "name": "blsSignature",
          "type": "tuple"
        },
        {
          "components": [
            {
              "internalType": "uint256",
              "name": "serviceNodePubkey",
              "type": "uint256"
            },
            {
              "internalType": "uint256",
              "name": "serviceNodeSignature1",
              "type": "uint256"
            },
            {
              "internalType": "uint256",
              "name": "serviceNodeSignature2",
              "type": "uint256"
            },
            {
              "internalType": "uint16",
              "name": "fee",
              "type": "uint16"
            }
          ],
          "internalType": "struct IServiceNodeRewards.ServiceNodeParams",
          "name": "serviceNodeParams",
          "type": "tuple"
        },
        {
          "components": [
            {
              "internalType": "address",
              "name": "addr",
              "type": "address"
            },
            {
              "internalType": "uint256",
              "name": "stakedAmount",
              "type": "uint256"
            }
          ],
          "internalType": "struct IServiceNodeRewards.Contributor[]",
          "name": "contributors",
          "type": "tuple[]"
        }
      ],
      "name": "addBLSPublicKey",
      "outputs": [],
      "stateMutability": "nonpayable",
      "type": "function"
    },
    {
      "inputs": [
        {
          "components": [
            {
              "internalType": "uint256",
              "name": "X",
              "type": "uint256"
            },
            {
              "internalType": "uint256",
              "name": "Y",
              "type": "uint256"
            }
          ],
          "internalType": "struct BN256G1.G1Point",
          "name": "blsPubkey",
          "type": "tuple"
        },
        {
          "components": [
            {
              "internalType": "uint256",
              "name": "sigs0",
              "type": "uint256"
            },
            {
              "internalType": "uint256",
              "name": "sigs1",
              "type": "uint256"
            },
            {
              "internalType": "uint256",
              "name": "sigs2",
              "type": "uint256"
            },
            {
              "internalType": "uint256",
              "name": "sigs3",
              "type": "uint256"
            }
          ],
          "internalType": "struct IServiceNodeRewards.BLSSignatureParams",
          "name": "blsSignature",
          "type": "tuple"
        },
        {
          "components": [
            {
              "internalType": "uint256",
              "name": "serviceNodePubkey",
              "type": "uint256"
            },
            {
              "internalType": "uint256",
              "name": "serviceNodeSignature1",
              "type": "uint256"
            },
            {
              "internalType": "uint256",
              "name": "serviceNodeSignature2",
              "type": "uint256"
            },
            {
              "internalType": "uint16",
              "name": "fee",
              "type": "uint16"
            }
          ],
          "internalType": "struct IServiceNodeRewards.ServiceNodeParams",
          "name": "serviceNodeParams",
          "type": "tuple"
        },
        {
          "components": [
            {
              "internalType": "address",
              "name": "addr",
              "type": "address"
            },
            {
              "internalType": "uint256",
              "name": "stakedAmount",
              "type": "uint256"
            }
          ],
          "internalType": "struct IServiceNodeRewards.Contributor[]",
          "name": "contributors",
          "type": "tuple[]"
        },
        {
          "internalType": "uint256",
          "name": "deadline",
          "type": "uint256"
        },
        {
          "internalType": "uint8",
          "name": "v",
          "type": "uint8"
        },
        {
          "internalType": "bytes32",
          "name": "r",
          "type": "bytes32"
        },
        {
          "internalType": "bytes32",
          "name": "s",
          "type": "bytes32"
        }
      ],
      "name": "addBLSPublicKeyWithPermit",
      "outputs": [],
      "stateMutability": "nonpayable",
      "type": "function"
    },
    {
      "inputs": [],
      "name": "aggregatePubkey",
      "outputs": [
        {
          "components": [
            {
              "internalType": "uint256",
              "name": "X",
              "type": "uint256"
            },
            {
              "internalType": "uint256",
              "name": "Y",
              "type": "uint256"
            }
          ],
          "internalType": "struct BN256G1.G1Point",
          "name": "",
          "type": "tuple"
        }
      ],
      "stateMutability": "view",
      "type": "function"
    },
    {
      "inputs": [],
      "name": "allServiceNodeIDs",
      "outputs": [
        {
          "internalType": "uint64[]",
          "name": "ids",
          "type": "uint64[]"
        },
        {
          "components": [
            {
              "internalType": "uint256",
              "name": "X",
              "type": "uint256"
            },
            {
              "internalType": "uint256",
              "name": "Y",
              "type": "uint256"
            }
          ],
          "internalType": "struct BN256G1.G1Point[]",
          "name": "pubkeys",
          "type": "tuple[]"
        }
      ],
      "stateMutability": "view",
      "type": "function"
    },
    {
      "inputs": [],
      "name": "allServiceNodePubkeys",
      "outputs": [
        {
          "components": [
            {
              "internalType": "uint256",
              "name": "X",
              "type": "uint256"
            },
            {
              "internalType": "uint256",
              "name": "Y",
              "type": "uint256"
            }
          ],
          "internalType": "struct BN256G1.G1Point[]",
          "name": "pubkeys",
          "type": "tuple[]"
        }
      ],
      "stateMutability": "view",
      "type": "function"
    },
    {
      "inputs": [],
      "name": "blsNonSignerThreshold",
      "outputs": [
        {
          "internalType": "uint256",
          "name": "",
          "type": "uint256"
        }
      ],
      "stateMutability": "view",
      "type": "function"
    },
    {
      "inputs": [],
      "name": "blsNonSignerThresholdMax",
      "outputs": [
        {
          "internalType": "uint256",
          "name": "",
          "type": "uint256"
        }
      ],
      "stateMutability": "view",
      "type": "function"
    },
    {
      "inputs": [],
      "name": "claimRewards",
      "outputs": [],
      "stateMutability": "nonpayable",
      "type": "function"
    },
    {
      "inputs": [],
      "name": "designatedToken",
      "outputs": [
        {
          "internalType": "contract IERC20",
          "name": "",
          "type": "address"
        }
      ],
      "stateMutability": "view",
      "type": "function"
    },
    {
      "inputs": [],
      "name": "foundationPool",
      "outputs": [
        {
          "internalType": "contract IERC20",
          "name": "",
          "type": "address"
        }
      ],
      "stateMutability": "view",
      "type": "function"
    },
    {
      "inputs": [],
      "name": "hashToG2Tag",
      "outputs": [
        {
          "internalType": "bytes32",
          "name": "",
          "type": "bytes32"
        }
      ],
      "stateMutability": "view",
      "type": "function"
    },
    {
      "inputs": [
        {
          "internalType": "address",
          "name": "token_",
          "type": "address"
        },
        {
          "internalType": "address",
          "name": "foundationPool_",
          "type": "address"
        },
        {
          "internalType": "uint256",
          "name": "stakingRequirement_",
          "type": "uint256"
        },
        {
          "internalType": "uint256",
          "name": "maxContributors_",
          "type": "uint256"
        },
        {
          "internalType": "uint256",
          "name": "liquidatorRewardRatio_",
          "type": "uint256"
        },
        {
          "internalType": "uint256",
          "name": "poolShareOfLiquidationRatio_",
          "type": "uint256"
        },
        {
          "internalType": "uint256",
          "name": "recipientRatio_",
          "type": "uint256"
        }
      ],
      "name": "initialize",
      "outputs": [],
      "stateMutability": "nonpayable",
      "type": "function"
    },
    {
      "inputs": [
        {
          "internalType": "uint64",
          "name": "serviceNodeID",
          "type": "uint64"
        }
      ],
      "name": "initiateRemoveBLSPublicKey",
      "outputs": [],
      "stateMutability": "nonpayable",
      "type": "function"
    },
    {
      "inputs": [],
      "name": "isStarted",
      "outputs": [
        {
          "internalType": "bool",
          "name": "",
          "type": "bool"
        }
      ],
      "stateMutability": "view",
      "type": "function"
    },
    {
      "inputs": [
        {
          "components": [
            {
              "internalType": "uint256",
              "name": "X",
              "type": "uint256"
            },
            {
              "internalType": "uint256",
              "name": "Y",
              "type": "uint256"
            }
          ],
          "internalType": "struct BN256G1.G1Point",
          "name": "blsPubkey",
          "type": "tuple"
        },
        {
          "internalType": "uint256",
          "name": "timestamp",
          "type": "uint256"
        },
        {
          "components": [
            {
              "internalType": "uint256",
              "name": "sigs0",
              "type": "uint256"
            },
            {
              "internalType": "uint256",
              "name": "sigs1",
              "type": "uint256"
            },
            {
              "internalType": "uint256",
              "name": "sigs2",
              "type": "uint256"
            },
            {
              "internalType": "uint256",
              "name": "sigs3",
              "type": "uint256"
            }
          ],
          "internalType": "struct IServiceNodeRewards.BLSSignatureParams",
          "name": "blsSignature",
          "type": "tuple"
        },
        {
          "internalType": "uint64[]",
          "name": "ids",
          "type": "uint64[]"
        }
      ],
      "name": "liquidateBLSPublicKeyWithSignature",
      "outputs": [],
      "stateMutability": "nonpayable",
      "type": "function"
    },
    {
      "inputs": [],
      "name": "liquidateTag",
      "outputs": [
        {
          "internalType": "bytes32",
          "name": "",
          "type": "bytes32"
        }
      ],
      "stateMutability": "view",
      "type": "function"
    },
    {
      "inputs": [],
      "name": "liquidatorRewardRatio",
      "outputs": [
        {
          "internalType": "uint256",
          "name": "",
          "type": "uint256"
        }
      ],
      "stateMutability": "view",
      "type": "function"
    },
    {
      "inputs": [],
      "name": "maxContributors",
      "outputs": [
        {
          "internalType": "uint256",
          "name": "",
          "type": "uint256"
        }
      ],
      "stateMutability": "view",
      "type": "function"
    },
    {
      "inputs": [],
      "name": "maxPermittedPubkeyAggregations",
      "outputs": [
        {
          "internalType": "uint256",
          "name": "result",
          "type": "uint256"
        }
      ],
      "stateMutability": "view",
      "type": "function"
    },
    {
      "inputs": [],
      "name": "nextServiceNodeID",
      "outputs": [
        {
          "internalType": "uint64",
          "name": "",
          "type": "uint64"
        }
      ],
      "stateMutability": "view",
      "type": "function"
    },
    {
      "inputs": [],
      "name": "owner",
      "outputs": [
        {
          "internalType": "address",
          "name": "",
          "type": "address"
        }
      ],
      "stateMutability": "view",
      "type": "function"
    },
    {
      "inputs": [],
      "name": "pause",
      "outputs": [],
      "stateMutability": "nonpayable",
      "type": "function"
    },
    {
      "inputs": [],
      "name": "paused",
      "outputs": [
        {
          "internalType": "bool",
          "name": "",
          "type": "bool"
        }
      ],
      "stateMutability": "view",
      "type": "function"
    },
    {
      "inputs": [],
      "name": "pendingOwner",
      "outputs": [
        {
          "internalType": "address",
          "name": "",
          "type": "address"
        }
      ],
      "stateMutability": "view",
      "type": "function"
    },
    {
      "inputs": [],
      "name": "poolShareOfLiquidationRatio",
      "outputs": [
        {
          "internalType": "uint256",
          "name": "",
          "type": "uint256"
        }
      ],
      "stateMutability": "view",
      "type": "function"
    },
    {
      "inputs": [],
      "name": "proofOfPossessionTag",
      "outputs": [
        {
          "internalType": "bytes32",
          "name": "",
          "type": "bytes32"
        }
      ],
      "stateMutability": "view",
      "type": "function"
    },
    {
      "inputs": [],
      "name": "recipientRatio",
      "outputs": [
        {
          "internalType": "uint256",
          "name": "",
          "type": "uint256"
        }
      ],
      "stateMutability": "view",
      "type": "function"
    },
    {
      "inputs": [
        {
          "internalType": "address",
          "name": "",
          "type": "address"
        }
      ],
      "name": "recipients",
      "outputs": [
        {
          "internalType": "uint256",
          "name": "rewards",
          "type": "uint256"
        },
        {
          "internalType": "uint256",
          "name": "claimed",
          "type": "uint256"
        }
      ],
      "stateMutability": "view",
      "type": "function"
    },
    {
      "inputs": [],
      "name": "removalTag",
      "outputs": [
        {
          "internalType": "bytes32",
          "name": "",
          "type": "bytes32"
        }
      ],
      "stateMutability": "view",
      "type": "function"
    },
    {
      "inputs": [
        {
          "internalType": "uint64",
          "name": "serviceNodeID",
          "type": "uint64"
        }
      ],
      "name": "removeBLSPublicKeyAfterWaitTime",
      "outputs": [],
      "stateMutability": "nonpayable",
      "type": "function"
    },
    {
      "inputs": [
        {
          "components": [
            {
              "internalType": "uint256",
              "name": "X",
              "type": "uint256"
            },
            {
              "internalType": "uint256",
              "name": "Y",
              "type": "uint256"
            }
          ],
          "internalType": "struct BN256G1.G1Point",
          "name": "blsPubkey",
          "type": "tuple"
        },
        {
          "internalType": "uint256",
          "name": "timestamp",
          "type": "uint256"
        },
        {
          "components": [
            {
              "internalType": "uint256",
              "name": "sigs0",
              "type": "uint256"
            },
            {
              "internalType": "uint256",
              "name": "sigs1",
              "type": "uint256"
            },
            {
              "internalType": "uint256",
              "name": "sigs2",
              "type": "uint256"
            },
            {
              "internalType": "uint256",
              "name": "sigs3",
              "type": "uint256"
            }
          ],
          "internalType": "struct IServiceNodeRewards.BLSSignatureParams",
          "name": "blsSignature",
          "type": "tuple"
        },
        {
          "internalType": "uint64[]",
          "name": "ids",
          "type": "uint64[]"
        }
      ],
      "name": "removeBLSPublicKeyWithSignature",
      "outputs": [],
      "stateMutability": "nonpayable",
      "type": "function"
    },
    {
      "inputs": [],
      "name": "renounceOwnership",
      "outputs": [],
      "stateMutability": "nonpayable",
      "type": "function"
    },
    {
      "inputs": [],
      "name": "rewardTag",
      "outputs": [
        {
          "internalType": "bytes32",
          "name": "",
          "type": "bytes32"
        }
      ],
      "stateMutability": "view",
      "type": "function"
    },
    {
      "inputs": [
        {
          "components": [
            {
              "components": [
                {
                  "internalType": "uint256",
                  "name": "X",
                  "type": "uint256"
                },
                {
                  "internalType": "uint256",
                  "name": "Y",
                  "type": "uint256"
                }
              ],
              "internalType": "struct BN256G1.G1Point",
              "name": "pubkey",
              "type": "tuple"
            },
            {
              "components": [
                {
                  "internalType": "address",
                  "name": "addr",
                  "type": "address"
                },
                {
                  "internalType": "uint256",
                  "name": "stakedAmount",
                  "type": "uint256"
                }
              ],
              "internalType": "struct IServiceNodeRewards.Contributor[]",
              "name": "contributors",
              "type": "tuple[]"
            }
          ],
          "internalType": "struct IServiceNodeRewards.SeedServiceNode[]",
          "name": "nodes",
          "type": "tuple[]"
        }
      ],
      "name": "seedPublicKeyList",
      "outputs": [],
      "stateMutability": "nonpayable",
      "type": "function"
    },
    {
      "inputs": [
        {
          "internalType": "bytes",
          "name": "blsPublicKey",
          "type": "bytes"
        }
      ],
      "name": "serviceNodeIDs",
      "outputs": [
        {
          "internalType": "uint64",
          "name": "serviceNodeID",
          "type": "uint64"
        }
      ],
      "stateMutability": "view",
      "type": "function"
    },
    {
      "inputs": [
        {
          "internalType": "uint64",
          "name": "serviceNodeID",
          "type": "uint64"
        }
      ],
      "name": "serviceNodes",
      "outputs": [
        {
          "components": [
            {
              "internalType": "uint64",
              "name": "next",
              "type": "uint64"
            },
            {
              "internalType": "uint64",
              "name": "prev",
              "type": "uint64"
            },
            {
              "internalType": "address",
              "name": "operator",
              "type": "address"
            },
            {
              "components": [
                {
                  "internalType": "uint256",
                  "name": "X",
                  "type": "uint256"
                },
                {
                  "internalType": "uint256",
                  "name": "Y",
                  "type": "uint256"
                }
              ],
              "internalType": "struct BN256G1.G1Point",
              "name": "pubkey",
              "type": "tuple"
            },
            {
              "internalType": "uint256",
              "name": "addedTimestamp",
              "type": "uint256"
            },
            {
              "internalType": "uint256",
              "name": "leaveRequestTimestamp",
              "type": "uint256"
            },
            {
              "internalType": "uint256",
              "name": "deposit",
              "type": "uint256"
            },
            {
              "components": [
                {
                  "internalType": "address",
                  "name": "addr",
                  "type": "address"
                },
                {
                  "internalType": "uint256",
                  "name": "stakedAmount",
                  "type": "uint256"
                }
              ],
              "internalType": "struct IServiceNodeRewards.Contributor[]",
              "name": "contributors",
              "type": "tuple[]"
            }
          ],
          "internalType": "struct IServiceNodeRewards.ServiceNode",
          "name": "",
          "type": "tuple"
        }
      ],
      "stateMutability": "view",
      "type": "function"
    },
    {
      "inputs": [],
      "name": "serviceNodesLength",
      "outputs": [
        {
          "internalType": "uint256",
          "name": "count",
          "type": "uint256"
        }
      ],
      "stateMutability": "view",
      "type": "function"
    },
    {
      "inputs": [
        {
          "internalType": "uint256",
          "name": "newMax",
          "type": "uint256"
        }
      ],
      "name": "setBLSNonSignerThresholdMax",
      "outputs": [],
      "stateMutability": "nonpayable",
      "type": "function"
    },
    {
      "inputs": [
        {
          "internalType": "uint256",
          "name": "newExpiry",
          "type": "uint256"
        }
      ],
      "name": "setSignatureExpiry",
      "outputs": [],
      "stateMutability": "nonpayable",
      "type": "function"
    },
    {
      "inputs": [
        {
          "internalType": "uint256",
          "name": "newRequirement",
          "type": "uint256"
        }
      ],
      "name": "setStakingRequirement",
      "outputs": [],
      "stateMutability": "nonpayable",
      "type": "function"
    },
    {
      "inputs": [],
      "name": "signatureExpiry",
      "outputs": [
        {
          "internalType": "uint256",
          "name": "",
          "type": "uint256"
        }
      ],
      "stateMutability": "view",
      "type": "function"
    },
    {
      "inputs": [],
      "name": "stakingRequirement",
      "outputs": [
        {
          "internalType": "uint256",
          "name": "",
          "type": "uint256"
        }
      ],
      "stateMutability": "view",
      "type": "function"
    },
    {
      "inputs": [],
      "name": "start",
      "outputs": [],
      "stateMutability": "nonpayable",
      "type": "function"
    },
    {
      "inputs": [],
      "name": "totalNodes",
      "outputs": [
        {
          "internalType": "uint256",
          "name": "",
          "type": "uint256"
        }
      ],
      "stateMutability": "view",
      "type": "function"
    },
    {
      "inputs": [
        {
          "internalType": "address",
          "name": "newOwner",
          "type": "address"
        }
      ],
      "name": "transferOwnership",
      "outputs": [],
      "stateMutability": "nonpayable",
      "type": "function"
    },
    {
      "inputs": [],
      "name": "unpause",
      "outputs": [],
      "stateMutability": "nonpayable",
      "type": "function"
    },
    {
      "inputs": [],
      "name": "updateAggregatePubkey",
      "outputs": [],
      "stateMutability": "nonpayable",
      "type": "function"
    },
    {
      "inputs": [
        {
          "internalType": "address",
          "name": "recipientAddress",
          "type": "address"
        },
        {
          "internalType": "uint256",
          "name": "recipientRewards",
          "type": "uint256"
        },
        {
          "components": [
            {
              "internalType": "uint256",
              "name": "sigs0",
              "type": "uint256"
            },
            {
              "internalType": "uint256",
              "name": "sigs1",
              "type": "uint256"
            },
            {
              "internalType": "uint256",
              "name": "sigs2",
              "type": "uint256"
            },
            {
              "internalType": "uint256",
              "name": "sigs3",
              "type": "uint256"
            }
          ],
          "internalType": "struct IServiceNodeRewards.BLSSignatureParams",
          "name": "blsSignature",
          "type": "tuple"
        },
        {
          "internalType": "uint64[]",
          "name": "ids",
          "type": "uint64[]"
        }
      ],
      "name": "updateRewardsBalance",
      "outputs": [],
      "stateMutability": "nonpayable",
      "type": "function"
    },
    {
      "inputs": [],
      "name": "updateServiceNodesLength",
      "outputs": [],
      "stateMutability": "nonpayable",
      "type": "function"
    }
  ],
  "bytecode": "0x608060405234801561001057600080fd5b50614d57806100206000396000f3fe608060405234801561001057600080fd5b50600436106103155760003560e01c806386e76685116101a7578063be9a6555116100ee578063e30c397811610097578063f2fde38b11610071578063f2fde38b1461063b578063f88d658b1461064e578063f907f5fc1461066157600080fd5b8063e30c3978146105f9578063eb82031214610601578063edbf4ac21461062857600080fd5b8063d0a9be59116100c8578063d0a9be59146105ba578063d5a81254146105cd578063dacc554a146105d657600080fd5b8063be9a655514610597578063c4f56d9a1461059f578063d080e1c5146105b257600080fd5b80639592d42411610150578063a80eded11161012a578063a80eded114610573578063ab7351391461057b578063ae6c60631461058e57600080fd5b80639592d424146105595780639c80ebee146105625780639e3b372d1461056a57600080fd5b80638a2209e6116101815780638a2209e6146105135780638a399481146105485780638da5cb5b1461055157600080fd5b806386e76685146104ef57806386fa5063146104f857806387bd7a701461050057600080fd5b806356d399e81161026b57806379ba5097116102145780638328b610116101ee5780638328b610146104c15780638456cb59146104d457806384e8fce9146104dc57600080fd5b806379ba5097146104765780637a6d40651461047e5780637c89d2f01461049157600080fd5b806365ca819d1161024557806365ca819d1461042757806366d521f51461045b578063715018a61461046e57600080fd5b806356d399e8146103ed57806358e93308146103f55780635c975abb146103fd57600080fd5b806317f33a7d116102cd57806343039d90116102a757806343039d90146103b4578063538d2709146103c7578063544736e6146103d057600080fd5b806317f33a7d14610370578063372500ab146103a25780633f4ba83a146103ac57600080fd5b8063095f1404116102fe578063095f1404146103575780630bd1b4191461035f578063119b12651461036757600080fd5b806301a628b91461031a578063040f985314610337575b600080fd5b61032462278d0081565b6040519081526020015b60405180910390f35b61034a6103453660046143e4565b610674565b60405161032e91906143ff565b600c54610324565b600e54610324565b61032460085481565b60015461038a90600160a01b90046001600160401b031681565b6040516001600160401b03909116815260200161032e565b6103aa6107b6565b005b6103aa6107c1565b6103aa6103c23660046144ce565b6107d1565b61032460075481565b6000546103dd9060ff1681565b604051901515815260200161032e565b600a54610324565b600d54610324565b7fcd5ed15c6e187e77e9aee88184c21f4f2182ab5827cb3b7e07fbedcd63f033005460ff166103dd565b61038a610435366004614555565b80516020818301810180516011825292820191909301209152546001600160401b031681565b6103aa610469366004614688565b610890565b6103aa610aa7565b6103aa610ab9565b6103aa61048c366004614709565b610b01565b6000546104a99061010090046001600160a01b031681565b6040516001600160a01b03909116815260200161032e565b6103aa6104cf3660046144ce565b610c68565b6103aa610d00565b6103aa6104ea36600461479d565b610d10565b61032460045481565b600b54610324565b6103aa61050e3660046143e4565b610e52565b6040805180820182526000808252602091820152815180830190925260125482526013549082015260405161032e9190614836565b61032460035481565b6104a9610f47565b61032460025481565b61038a600081565b61032460095481565b6103aa610f7c565b6103aa61058936600461484d565b610f89565b61032460065481565b6103aa610ff7565b6103aa6105ad366004614688565b61100e565b6103246113c2565b6103aa6105c83660046143e4565b61143c565b61032460055481565b6012546013546105e4919082565b6040805192835260208301919091520161032e565b6104a961144e565b6105e461060f3660046148f6565b6010602052600090815260409020805460019091015482565b6103aa610636366004614911565b611477565b6103aa6106493660046148f6565b6117b4565b6103aa61065c3660046144ce565b611839565b6001546104a9906001600160a01b031681565b6106c36040805160e08101825260008082526020808301829052828401829052835180850190945281845283015290606082019081526020016000815260200160008152602001606081525090565b6001600160401b038083166000908152600f60209081526040808320815160e08101835281548087168252600160401b90049095168584015260018101546001600160a01b0316858301528151808301835260028201548152600382015481850152606086015260048101546080860152600581015460a0860152600681018054835181860281018601909452808452919460c087019491929184015b828210156107a8576000848152602090819020604080518082019091526002850290910180546001600160a01b03168252600190810154828401529083529092019101610760565b505050915250909392505050565b6107bf336118d0565b565b6107c9611979565b6107bf6119ab565b6107d9611979565b600081116108545760405162461bcd60e51b815260206004820152603160248201527f546865206e657720424c53206e6f6e2d7369676e6572207468726573686f6c6460448201527f206d757374206265206e6f6e2d7a65726f00000000000000000000000000000060648201526084015b60405180910390fd5b60048190556040518181527f0ac8ee09138dfaf5e3ebe4cb4fd42dd1a0695535a530171223fb5066f52e0e3b906020015b60405180910390a150565b610898611a17565b60005460ff166108bb5760405163348b55eb60e21b815260040160405180910390fd5b805160035481111561090c5760006108d16113c2565b90506108dd8282614985565b6003546108ea9083614985565b604051635eee4a3560e01b81526004810192909252602482015260440161084b565b600061092561092036889003880188614998565b611a5a565b9050600060118260405161093991906149ee565b908152604051908190036020019020546001600160401b0316905061095d86611a83565b15610993576040516337030b8b60e01b81526001600160401b03821660048201526024810187905242604482015260640161084b565b6001600160401b0381166000908152600f602052604090206002015487351415806109df57506001600160401b0381166000908152600f60209081526040909120600301549088013514155b15610a0157808760405163c43283b560e01b815260040161084b929190614a0a565b600854604051600091610a36918a35906020808d0135918c910193845260208401929092526040830152606082015260800190565b60405160208183030381529060405290506000610a5a610a5583611a9b565b611ac3565b9050610a7586610a6f368a90038a018a614a31565b83611b7f565b50506001600160401b0381166000908152600f6020526040902060050154610a9e908290611ce1565b50505050505050565b610aaf611979565b6107bf6000611d84565b3380610ac361144e565b6001600160a01b031614610af55760405163118cdaa760e01b81526001600160a01b038216600482015260240161084b565b610afe81611d84565b50565b610b09611a17565b60005460ff16610b2c5760405163348b55eb60e21b815260040160405180910390fd5b8051600354811115610b425760006108d16113c2565b6001600160a01b038516610b69576040516337e6495760e21b815260040160405180910390fd5b6001600160a01b0385166000908152601060205260409020548411610ba1576040516333938e6360e01b815260040160405180910390fd5b600754604080516020810192909252606087901b6bffffffffffffffffffffffff191682820152605480830187905281518084039091018152607490920190526000610bef610a5583611a9b565b9050610c0484610a6f36889003880188614a31565b50506001600160a01b038516600081815260106020908152604091829020805490889055825188815291820181905292917f95390641529563dbfb446535fa996c5ac3be00f90f5705b3abda59a4467b797f910160405180910390a2505050505050565b610c70611979565b60008111610ccc5760405162461bcd60e51b8152602060048201526024808201527f5374616b696e6720726571756972656d656e74206d75737420626520706f73696044820152637469766560e01b606482015260840161084b565b600a8190556040518181527e6b7a1ea14ff2794527a64af37d55a2040e351f8b4c1adcdc9aea80d64e042990602001610885565b610d08611979565b6107bf611dc0565b610d18611979565b8483141580610d275750848114155b15610d455760405163512509d360e11b815260040160405180910390fd5b60005b85811015610e415760006040518060400160405280898985818110610d6f57610d6f614a96565b905060200201358152602001878785818110610d8d57610d8d614a96565b9050602002013581525090506000610da482611e1b565b9050848484818110610db857610db8614a96565b90506020020135600f6000836001600160401b03166001600160401b0316815260200190815260200160002060050181905550806001600160401b03167fb23f87884bac26db67afa2897833a3af009f90285781411a30f84c02999b397e83604051610e249190614836565b60405180910390a250508080610e3990614aac565b915050610d48565b50610e4a612059565b505050505050565b610e5a611a17565b60005460ff16610e7d5760405163348b55eb60e21b815260040160405180910390fd5b6001600160401b0381166000908152600f602052604081206004015490819003610ed257604051637a54a45360e11b81526001600160401b03831660048201526024810182905242604482015260640161084b565b6000610ee162278d0083614ac5565b9050804211610f1b57604051637a54a45360e11b81526001600160401b03841660048201526024810182905242604482015260640161084b565b6001600160401b0383166000908152600f6020526040902060050154610f42908490611ce1565b505050565b6000807f9016d09d72d40fdae2fd8ceac6b6234c7706214fd39c1cd1e609a0528c1993005b546001600160a01b031692915050565b610f846113c2565b600255565b610f91611a17565b610ff0858533868686808060200260200160405190810160405280939291908181526020016000905b82821015610fe657610fd760408302860136819003810190614ad8565b81526020019060010190610fba565b5050505050612085565b5050505050565b610fff611979565b6000805460ff19166001179055565b611016611a17565b60005460ff166110395760405163348b55eb60e21b815260040160405180910390fd5b805160035481111561104f5760006108d16113c2565b600061106361092036889003880188614998565b9050600060118260405161107791906149ee565b908152604051908190036020019020546001600160401b0316905061109b86611a83565b156110d1576040516337030b8b60e01b81526001600160401b03821660048201526024810187905242604482015260640161084b565b6001600160401b038082166000908152600f60209081526040808320815160e08101835281548087168252600160401b90049095168584015260018101546001600160a01b0316858301528151808301835260028201548152600382015481850152606086015260048101546080860152600581015460a0860152600681018054835181860281018601909452808452949594919360c08601939290879084015b828210156111ba576000848152602090819020604080518082019091526002850290910180546001600160a01b03168252600190810154828401529083529092019101611172565b5050509152505060608101515190915088351415806111e55750806060015160200151886020013514155b1561120757818860405163c43283b560e01b815260040161084b929190614a0a565b60095460405160009161123c918b35906020808e0135918d910193845260208401929092526040830152606082015260800190565b6040516020818303038152906040529050600061125b610a5583611a9b565b905061127087610a6f368b90038b018b614a31565b5050816001600160401b03167f0bfb12191b00293af29126b1c5489f8daeb4a4af82db2960b7f8353c3105cd7c826040015183606001516040516112b5929190614b11565b60405180910390a26000600e54600c54600d546112d29190614ac5565b6112dc9190614ac5565b905060008260a001519050600082600c54836112f89190614b38565b6113029190614b65565b90506000600d54836113149190614b38565b1561134357836001600d546113299190614985565b6113339190614b65565b61133e906001614ac5565b611346565b60005b905061136686826113578587614985565b6113619190614985565b611ce1565b600c541561138a5760005461138a9061010090046001600160a01b031633846123f8565b600d54156113b4576000546001546113b4916001600160a01b0361010090910481169116836123f8565b505050505050505050505050565b6000808052600f6020527ff4803e074bd026baaf6ed2e288c9515f68c72fb7216eebdd7cae1718a53ec375546001600160401b03165b6001600160401b03811615611438578161141181614aac565b6001600160401b039283166000908152600f602052604090205490935090911690506113f8565b5090565b611444611a17565b610afe813361246c565b6000807f237e158222e3e6968b72b9db0d8043aacf074ad9f650f0d1606b4d82ee432c00610f6c565b7ff0c57e16840df040f15088dc2f81fe391c3923bec73e23a9662efc9c229c6a008054600160401b810460ff1615906001600160401b03166000811580156114bc5750825b90506000826001600160401b031660011480156114d85750303b155b9050811580156114e6575080155b156115045760405163f92ee8a960e01b815260040160405180910390fd5b845467ffffffffffffffff19166001178555831561153357845468ff00000000000000001916600160401b1785555b6001861015611555576040516333938e6360e01b815260040160405180910390fd5b6000805460ff19168155600281905560035561012c60045560408051808201909152601b81527f424c535f5349475f545259414e44494e4352454d454e545f504f50000000000060208201526115aa90612634565b60065560408051808201909152601e81527f424c535f5349475f545259414e44494e4352454d454e545f524557415244000060208201526115ea90612634565b60075560408051808201909152601e81527f424c535f5349475f545259414e44494e4352454d454e545f52454d4f56450000602082015261162a90612634565b600881905550611651604051806060016040528060218152602001614d2a60219139612634565b600955610258600555600080547fffffffffffffffffffffff0000000000000000000000000000000000000000ff166101006001600160a01b038f811691909102919091178255600180546001600160a01b031916918e16919091178155600a8c9055600b8b9055600c8a9055600d899055600e8890556116d29190614b79565b600180546001600160401b0392909216600160a01b027fffffffff0000000000000000ffffffffffffffffffffffffffffffffffffffff90921691909117905560008052600f6020527ff4803e074bd026baaf6ed2e288c9515f68c72fb7216eebdd7cae1718a53ec37580546fffffffffffffffffffffffffffffffff1916905561175c33612668565b83156113b457845468ff000000000000000019168555604051600181527fc7f505b2f371ae2175ee4913f4499e1f2633a7b5936321eed1cdaeb6115181d29060200160405180910390a1505050505050505050505050565b6117bc611979565b7f237e158222e3e6968b72b9db0d8043aacf074ad9f650f0d1606b4d82ee432c0080546001600160a01b0319166001600160a01b0383169081178255611800610f47565b6001600160a01b03167f38d16b8cac22d99fc7c124b9cd0de2d3fa1faef420bfe791d8c362d765e2270060405160405180910390a35050565b611841611979565b6000811161189b5760405162461bcd60e51b815260206004820152602160248201527f7369676e617475726520657870697279206d75737420626520706f73697469766044820152606560f81b606482015260840161084b565b60058190556040518181527ffbbc3d0a51e101ce4a7fda20e6e4eb0e230bf7de27ee2e3683fc8539e376639590602001610885565b6001600160a01b03811660009081526010602052604081206001810154905490916118fb8383614985565b6001600160a01b0385166000818152601060205260409081902060010185905551919250907ffc30cddea38e2bf4d6ea7d3f9ed3b6ad7f176419f4963bd81318067a4aee73fe9061194f9084815260200190565b60405180910390a26000546119739061010090046001600160a01b031685836123f8565b50505050565b33611982610f47565b6001600160a01b0316146107bf5760405163118cdaa760e01b815233600482015260240161084b565b6119b3612679565b7fcd5ed15c6e187e77e9aee88184c21f4f2182ab5827cb3b7e07fbedcd63f03300805460ff191681557f5db9ee0a495bf2e6ff9c91a7834c1ba4fdd244a5e8aa4e537bd38aeae4b073aa335b6040516001600160a01b039091168152602001610885565b7fcd5ed15c6e187e77e9aee88184c21f4f2182ab5827cb3b7e07fbedcd63f033005460ff16156107bf5760405163d93c066560e01b815260040160405180910390fd5b606081604051602001611a6d9190614836565b6040516020818303038152906040529050919050565b600060055482611a939190614ac5565b421192915050565b6000611abd611ab8611ab384805190602001206126bb565b612733565b61277d565b92915050565b611acb6142e4565b6000611ad6836127ce565b9050600080600080611b438560000151600160028110611af857611af8614a96565b60200201518651600060200201518760200151600160028110611b1d57611b1d614a96565b60200201518860200151600060028110611b3957611b39614a96565b602002015161289a565b60408051608081018252808201948552606081019590955292845282518084019093528252602082810191909152820152979650505050505050565b6040805180820190915260008082526020820152835160005b81811015611c24576000868281518110611bb457611bb4614a96565b60200260200101519050611c0e84600f6000846001600160401b03166001600160401b031681526020019081526020016000206002016040518060400160405290816000820154815260200160018201548152505061292a565b9350508080611c1c90614aac565b915050611b98565b506040805180820190915260125481526013546020820152611c4e90611c49846129f3565b61292a565b6040805160808101825260208781015182840190815288516060808501919091529083528351808501855290890151815288840151818301528183015282518084018452600080825290820152825180840190935260018352600290830152919350611cc49082611cbe866129f3565b87612a89565b610e4a5760405163ab1b236b60e01b815260040160405180910390fd5b6001600160401b0382166000908152600f60209081526040918290206001810154835180850190945260028201548452600390910154918301919091526001600160a01b031690611d3184612b96565b611d39612059565b836001600160401b03167f130a7be04ef1f87b2b436f68f389bf863ee179b95399a3a8444196fab7a4e54c838584604051611d7693929190614b99565b60405180910390a250505050565b7f237e158222e3e6968b72b9db0d8043aacf074ad9f650f0d1606b4d82ee432c0080546001600160a01b0319168155611dbc82612e2f565b5050565b611dc8611a17565b7fcd5ed15c6e187e77e9aee88184c21f4f2182ab5827cb3b7e07fbedcd63f03300805460ff191660011781557f62e78cea01bee320cd4e420270b5ea74000d11b0c9f74754ebdbfc544b05a258336119ff565b600080611e2783611a5a565b905060006001600160401b0316601182604051611e4491906149ee565b908152604051908190036020019020546001600160401b031614611ea257601181604051611e7291906149ee565b9081526040519081900360200181205463459c639360e01b82526001600160401b0316600482015260240161084b565b60018054600160a01b90046001600160401b03169250806014611ec58286614b79565b92506101000a8154816001600160401b0302191690836001600160401b03160217905550600160026000828254611efc9190614ac5565b90915550506001600160401b038281166000818152600f60209081526040808320805467ffffffffffffffff1980821683557ff4803e074bd026baaf6ed2e288c9515f68c72fb7216eebdd7cae1718a53ec375546fffffffffffffffffffffffffffffffff19909216600160401b928390048916830290811784558816865283862080546fffffffffffffffff000000000000000019168389021790558254919091049096168452818420805490961685179095559290915285516002840155850151600390920191909155518290601190611fd99084906149ee565b90815260405190819003602001902080546001600160401b039290921667ffffffffffffffff199092169190911790556002546001036120255782516012556020830151601355612053565b6040805180820190915260125481526013546020820152612046908461292a565b8051601255602001516013555b50919050565b6000600360025461206a9190614b65565b9050600454811161207b578061207f565b6004545b60035550565b60005460ff166120a85760405163348b55eb60e21b815260040160405180910390fd5b600b54815111156120cc5760405163226c2d8360e21b815260040160405180910390fd5b805115612154576000805b825181101561211d578281815181106120f2576120f2614a96565b602002602001015160200151826121099190614ac5565b91508061211581614aac565b9150506120d7565b50600a54811461214e57600a546040516367d22bd960e01b815260048101919091526024810182905260440161084b565b506121d1565b60408051600180825281830190925290816020015b60408051808201909152600080825260208201528152602001906001900390816121695790505090506040518060400160405280846001600160a01b03168152602001600a54815250816000815181106121c5576121c5614a96565b60200260200101819052505b600060116121e761092036899003890189614998565b6040516121f491906149ee565b908152604051908190036020019020546001600160401b0316905080156122395760405163459c639360e01b81526001600160401b038216600482015260240161084b565b61225461224b36889003880188614998565b86868635612ea0565b600061226d61226836899003890189614998565b611e1b565b90508260008151811061228257612282614a96565b602090810291909101810151516001600160401b0383166000908152600f9092526040822060010180546001600160a01b0319166001600160a01b039092169190911790555b835181101561236657600f6000836001600160401b03166001600160401b0316815260200190815260200160002060060184828151811061230b5761230b614a96565b602090810291909101810151825460018082018555600094855293839020825160029092020180546001600160a01b0319166001600160a01b039092169190911781559101519101558061235e81614aac565b9150506122c8565b50600a546001600160401b0382166000908152600f602052604090206005015561238e612059565b806001600160401b03167fe82ed1bfc15e6602fba1a19273171c8a63c1d40b0e0117be4598167b8655498f868987876040516123cd9493929190614bc5565b60405180910390a2610a9e600060019054906101000a90046001600160a01b03168630600a54612fa8565b6040516001600160a01b03838116602483015260448201839052610f4291859182169063a9059cbb906064015b604051602081830303815290604052915060e01b6020820180517bffffffffffffffffffffffffffffffffffffffffffffffffffffffff8381831617835250505050612fe1565b60005460ff1661248f5760405163348b55eb60e21b815260040160405180910390fd5b6000805b6001600160401b0384166000908152600f6020526040902060060154811015612529576001600160401b0384166000908152600f6020526040902060060180546001600160a01b0385169190839081106124ef576124ef614a96565b60009182526020909120600290910201546001600160a01b0316036125175760019150612529565b8061252181614aac565b915050612493565b508061256257604051635bf2837760e11b81526001600160401b03841660048201526001600160a01b038316602482015260440161084b565b6001600160401b0383166000908152600f6020526040902060040154156125b557604051620c87d960ec1b81526001600160401b03841660048201526001600160a01b038316602482015260440161084b565b6001600160401b0383166000818152600f60205260409081902042600482015590517f89477e9f4ddcb5eb9f30353ab22c31ef9a91ab33fd1ffef09aadb3458be7775d91612627918691600201906001600160a01b039290921682528054602083015260010154604082015260600190565b60405180910390a2505050565b600081463060405160200161264b93929190614c84565b604051602081830303815290604052805190602001209050919050565b612670613044565b610afe8161308d565b7fcd5ed15c6e187e77e9aee88184c21f4f2182ab5827cb3b7e07fbedcd63f033005460ff166107bf57604051638dfc202b60e01b815260040160405180910390fd5b60008060005b602081101561272c5760008482602081106126de576126de614a96565b1a60f81b90506126ef826008614b38565b7fff00000000000000000000000000000000000000000000000000000000000000909116901c91909117908061272481614aac565b9150506126c1565b5092915050565b60008061274360c0600019614985565b9050600080516020614d0a83398151915261275f82851661277d565b106127745761277160e0600019614985565b90505b91909116919050565b600080805b602081101561272c576000612798826008614b38565b85901c60ff1690506127ab826008614b38565b6127b69060f8614985565b1b9190911790806127c681614aac565b915050612782565b6127d66142e4565b8160008080805b80612862576000806127ef87876130bf565b915091506000806128008484613146565b915091508160001415801561281457508015155b1561284b5781965080955061282b898989896132e7565b156128395760019450612859565b61284460018a614ac5565b9850612859565b61285660018a614ac5565b98505b505050506127dd565b506040805160808101825280820194855260608101959095529284528251808401909352825260208281019190915282015292915050565b6000806000806128ac888888886132fe565b6128b8576128b8614cbd565b6040805160c081018252898152602081018990529081018790526060810186905260016080820152600060a08201526128f0816133b3565b8051602082015160408301516060840151608085015160a086015195965061291795613565565b929c919b50995090975095505050505050565b6040805180820190915260008082526020820152612946614309565b8351815260208085015181830152835160408301528301516060808301919091526000908360c08460066107d05a03fa9050806129eb5760405162461bcd60e51b815260206004820152602b60248201527f43616c6c20746f20707265636f6d70696c656420636f6e747261637420666f7260448201527f20616464206661696c6564000000000000000000000000000000000000000000606482015260840161084b565b505092915050565b60408051808201909152600080825260208201528151158015612a1857506020820151155b15612a36575050604080518082019091526000808252602082015290565b604051806040016040528083600001518152602001600080516020614d0a8339815191528460200151612a699190614cd3565b612a8190600080516020614d0a833981519152614985565b905292915050565b60408051600280825260608201909252600091829190816020015b6040805180820190915260008082526020820152815260200190600190039081612aa45750506040805160028082526060820190925291925060009190602082015b612aee6142e4565b815260200190600190039081612ae65790505090508682600081518110612b1757612b17614a96565b60200260200101819052508482600181518110612b3657612b36614a96565b60200260200101819052508581600081518110612b5557612b55614a96565b60200260200101819052508381600181518110612b7457612b74614a96565b6020026020010181905250612b8982826135af565b925050505b949350505050565b600060025411612ba557600080fd5b6001600160401b038116612bcc57604051631d58f8cb60e11b815260040160405180910390fd5b6001600160401b038082166000908152600f60209081526040808320815160e08101835281548087168252600160401b90049095168584015260018101546001600160a01b0316858301528151808301835260028201548152600382015481850152606086015260048101546080860152600581015460a0860152600681018054835181860281018601909452808452949594919360c08601939290879084015b82821015612cb5576000848152602090819020604080518082019091526002850290910180546001600160a01b03168252600190810154828401529083529092019101612c6d565b505050915250506020818101805183516001600160401b039081166000908152600f8552604080822080546fffffffffffffffff00000000000000001916600160401b95851695909502949094179093558551935182168152829020805467ffffffffffffffff1916939091169290921790915580518082019091526012548152601354918101919091526060820151919250612d5591611c49906129f3565b8051601255602001516013556060810151600090612d7290611a5a565b6001600160401b0384166000908152600f6020526040812080546fffffffffffffffffffffffffffffffff191681556001810180546001600160a01b031916905560028101829055600381018290556004810182905560058101829055919250612ddf6006830182614327565b5050601181604051612df191906149ee565b908152604051908190036020019020805467ffffffffffffffff191690556002805460019190600090612e25908490614985565b9091555050505050565b7f9016d09d72d40fdae2fd8ceac6b6234c7706214fd39c1cd1e609a0528c19930080546001600160a01b031981166001600160a01b03848116918217845560405192169182907f8be0079c531659141344cd1fd0a4f28419497f9722a3daafe3b4186f6b6457e090600090a3505050565b6000600654856000015186602001518585604051602001612ef695949392919094855260208501939093526040840191909152606090811b6bffffffffffffffffffffffff191690830152607482015260940190565b60405160208183030381529060405290506000612f15610a5583611a9b565b60408051608081018252602088810135828401908152893560608085019190915290835283518085018552908a0135815289840135818301528183015282518084018452600080825290820152825180840190935260018352600290830152919250612f8b9082612f858a6129f3565b85612a89565b610a9e5760405163cf006ab760e01b815260040160405180910390fd5b6040516001600160a01b0384811660248301528381166044830152606482018390526119739186918216906323b872dd90608401612425565b6000612ff66001600160a01b038416836138f1565b9050805160001415801561301b5750808060200190518101906130199190614ce7565b155b15610f4257604051635274afe760e01b81526001600160a01b038416600482015260240161084b565b7ff0c57e16840df040f15088dc2f81fe391c3923bec73e23a9662efc9c229c6a0054600160401b900460ff166107bf57604051631afcd79f60e31b815260040160405180910390fd5b613095613044565b6001600160a01b038116610af557604051631e4fbdf760e01b81526000600482015260240161084b565b6000806000806000806130d488888a8a613906565b90925090506130e582828a8a613906565b909250905061313582827f2b149d40ceb8aaae81be18991be06ac3b5b4c5e559dbefa33267e6dc24a138e57e9713b03af0fed4cd2cafadeed8fdf4a74fa084e52d1852e4a2bd0685c315d2613977565b9096509450505050505b9250929050565b6000806000806000856000036131ba5761315f876139ab565b90935090508015613179578260009450945050505061313f565b61319961319488600080516020614d0a833981519152614985565b6139ab565b9093509050806131ab576131ab614cbd565b6000839450945050505061313f565b600080516020614d0a8339815191528788099250600080516020614d0a8339815191528687099150600080516020614d0a83398151915282840892506131ff836139ab565b909350905080613218576000809450945050505061313f565b600080516020614d0a833981519152838808915061323582613a42565b91506000613242836139ab565b9250905081613293576132648885600080516020614d0a833981519152613a9a565b925061326f83613a42565b925061327a836139ab565b925090508161329357600080955095505050505061313f565b80600080516020614d0a83398151915282830893506132c084600080516020614d0a833981519152613abe565b93506000600080516020614d0a833981519152858a09919a91995090975050505050505050565b60006132f5858585856132fe565b95945050505050565b600080600080600061331287878989613906565b909450925061332389898181613906565b909250905061333482828b8b613906565b909250905061334584848484613b08565b909450925061339584847f2b149d40ceb8aaae81be18991be06ac3b5b4c5e559dbefa33267e6dc24a138e57e9713b03af0fed4cd2cafadeed8fdf4a74fa084e52d1852e4a2bd0685c315d2613b08565b9094509250831580156133a6575082155b9998505050505050505050565b6133bb614348565b6133c3614348565b6133cb614348565b6133d3614348565b8451602086015160408701516060880151608089015161340b946744e992b44a6909f1949093909290918b60055b6020020151613b4a565b805160208201516040830151606084015160808501519497506134379460029493929190896005613401565b91506134a38360005b602002015184600160200201518560026020020151866003602002015187600460200201518860056020020151886000602002015189600160200201518a600260200201518b600360200201518c600460200201518d60055b6020020151613bcd565b91506134ae82613e56565b91506134b983613e56565b90506134c481613e56565b90506134d1836000613440565b92506135378360005b6020020151846001602002015185600260200201518660036020020151876004602002015188600560200201518760006020020151886001602002015189600260200201518a600360200201518b600460200201518c6005613499565b925061354285613e56565b905061354d81613e56565b905061355881613e56565b90506132f58360006134da565b6000806000806000806135788888613f6e565b90925090506135898c8c8484613906565b909650945061359a8a8a8484613906565b969d959c509a50949850929650505050505050565b600081518351146135bf57600080fd5b825160006135ce826006614b38565b90506000816001600160401b038111156135ea576135ea6144e7565b604051908082528060200260200182016040528015613613578160200160208202803683370190505b50905060005b8381101561384e5786818151811061363357613633614a96565b6020026020010151600001518282600661364d9190614b38565b613658906000614ac5565b8151811061366857613668614a96565b60200260200101818152505086818151811061368657613686614a96565b602002602001015160200151828260066136a09190614b38565b6136ab906001614ac5565b815181106136bb576136bb614a96565b6020026020010181815250508581815181106136d9576136d9614a96565b60209081029190910101515151826136f2836006614b38565b6136fd906002614ac5565b8151811061370d5761370d614a96565b60200260200101818152505085818151811061372b5761372b614a96565b60209081029190910181015151015182613746836006614b38565b613751906003614ac5565b8151811061376157613761614a96565b60200260200101818152505085818151811061377f5761377f614a96565b60200260200101516020015160006002811061379d5761379d614a96565b6020020151826137ae836006614b38565b6137b9906004614ac5565b815181106137c9576137c9614a96565b6020026020010181815250508581815181106137e7576137e7614a96565b60200260200101516020015160016002811061380557613805614a96565b602002015182613816836006614b38565b613821906005614ac5565b8151811061383157613831614a96565b60209081029190910101528061384681614aac565b915050613619565b50613857614366565b60006020826020860260208601600060086107d05a03f19050806138e35760405162461bcd60e51b815260206004820152602f60248201527f43616c6c20746f20707265636f6d70696c656420636f6e747261637420666f7260448201527f2070616972696e67206661696c65640000000000000000000000000000000000606482015260840161084b565b505115159695505050505050565b60606138ff83836000613ff9565b9392505050565b600080613944600080516020614d0a833981519152858809600080516020614d0a833981519152858809600080516020614d0a833981519152613a9a565b600080516020614d0a83398151915280868809600080516020614d0a833981519152868a09089150915094509492505050565b600080600080516020614d0a833981519152848708600080516020614d0a8339815191528487089150915094509492505050565b600080600060405160208152602080820152602060408201528460608201527f0c19139cb84c680a6e14116da060561765e05aa45a1c72a34f082305b61f3f526080820152600080516020614d0a83398151915260a082015260208160c08360056107d05a03fa905193509050600080516020614d0a8339815191528380098414915080613a3c5760009250600091505b50915091565b6000600182161515613a55600284614b65565b9150801561205357600080516020614d0a8339815191526002613a87600080516020614d0a8339815191526001614ac5565b613a919190614b65565b83089392505050565b60008180613aaa57613aaa614b4f565b613ab48484614985565b8508949350505050565b60008060405160208152602080820152602060408201528460608201526002840360808201528360a082015260208160c08360056107d05a03fa9051925090508061272c57600080fd5b600080613b248685600080516020614d0a833981519152613a9a565b613b3d8685600080516020614d0a833981519152613a9a565b9150915094509492505050565b613b52614348565b8715613bc2576001881615613b93578051602082015160408301516060840151608085015160a0860151613b909594939291908d8d8d8d8d8d613bcd565b90505b613ba1878787878787614096565b949b50929950909750955093509150613bbb600289614b65565b9750613b52565b979650505050505050565b613bd5614348565b88158015613be1575087155b15613c23578686868686868660005b60a08901929092526080880192909252606087019290925260408601929092526020858101939093529091020152613e46565b82158015613c2f575081155b15613c42578c8c8c8c8c8c866000613bf0565b613c4e85858b8b613906565b9095509350613c5f8b8b8585613906565b60608301526040820152613c7587878b8b613906565b9097509550613c868d8d8585613906565b60a08301526080820181905287148015613ca3575060a081015186145b15613ce857604081015185148015613cbe5750606081015184145b15613cd957613cd18d8d8d8d8d8d614096565b866000613bf0565b60016000818180808681613bf0565b613cf489898585613906565b9093509150613d14858583600260200201518460035b6020020151613b08565b909d509b50613d2e87878360046020020151846005613d0a565b909b509950613d3f8b8b8181613906565b9099509750613d5f898983600460200201518460055b6020020151613906565b9095509350613d7089898d8d613906565b9099509750613d8189898585613906565b60a08301526080820152613d978d8d8181613906565b9097509550613da887878585613906565b9097509550613db987878b8b613b08565b9097509550613dca85856002614205565b9093509150613ddb87878585613b08565b9097509550613dec8b8b8989613906565b60208301528152613dff85858989613b08565b909b509950613e108d8d8d8d613906565b909b509950613e2a89898360026020020151846003613d55565b909d509b50613e3b8b8b8f8f613b08565b606083015260408201525b9c9b505050505050505050505050565b613e5e614348565b8151613e72908360015b6020020151614238565b602083015281526040820151613e8a90836003613e68565b606083015260408201526080820151613ea590836005613e68565b60a0830152608082015280516020820151613f0291907f2fb347984f7911f74c0bec3cf559b143b78cc310c2c3330c99e39557176f553d7f16c9e55061ebae204ba4cc8bd75a079432ae2a1d0b7c9dce1665d51c640fcba2613906565b6020830152815260408101516060820151613f5f91907f063cf305489af5dcdc5ec698b6e2f9b9dbaae0eda9c95998dc54014671a0135a7f07c03cbcac41049a0704b5a7ec796f2b21807dc98fa25bd282d37f632623b0e3613906565b60608301526040820152919050565b60008080613faf600080516020614d0a83398151915280878809600080516020614d0a83398151915287880908600080516020614d0a833981519152613abe565b9050600080516020614d0a833981519152818609600080516020614d0a833981519152828609613fed90600080516020614d0a833981519152614985565b92509250509250929050565b60608147101561401e5760405163cd78605960e01b815230600482015260240161084b565b600080856001600160a01b0316848660405161403a91906149ee565b60006040518083038185875af1925050503d8060008114614077576040519150601f19603f3d011682016040523d82523d6000602084013e61407c565b606091505b509150915061408c86838361425f565b9695505050505050565b6000806000806000806140ab8c8c6003614205565b90965094506140bc86868e8e613906565b90965094506140cd8a8a8a8a613906565b90985096506140de8c8c8c8c613906565b90945092506140ef84848a8a613906565b909450925061410086868181613906565b909c509a5061411184846008614205565b90925090506141228c8c8484613b08565b909c509a5061413388888181613906565b909250905061414484846004614205565b909450925061415584848e8e613b08565b909450925061416684848888613906565b90945092506141778a8a6008614205565b909650945061418886868c8c613906565b909650945061419986868484613906565b90965094506141aa84848888613b08565b90945092506141bb8c8c6002614205565b90965094506141cc86868a8a613906565b90965094506141dd88888484613906565b90925090506141ee82826008614205565b809250819350505096509650965096509650969050565b600080600080516020614d0a833981519152838609600080516020614d0a83398151915284860991509150935093915050565b6000808361425484600080516020614d0a833981519152614985565b915091509250929050565b6060826142745761426f826142bb565b6138ff565b815115801561428b57506001600160a01b0384163b155b156142b457604051639996b31560e01b81526001600160a01b038516600482015260240161084b565b50806138ff565b8051156142cb5780518082602001fd5b604051630a12f52160e11b815260040160405180910390fd5b60405180604001604052806142f7614384565b8152602001614304614384565b905290565b60405180608001604052806004906020820280368337509192915050565b5080546000825560020290600052602060002090810190610afe91906143a2565b6040518060c001604052806006906020820280368337509192915050565b60405180602001604052806001906020820280368337509192915050565b60405180604001604052806002906020820280368337509192915050565b5b808211156114385780546001600160a01b0319168155600060018201556002016143a3565b80356001600160401b03811681146143df57600080fd5b919050565b6000602082840312156143f657600080fd5b6138ff826143c8565b6000602080835261012083016001600160401b0380865116838601528083870151166040860152506001600160a01b0360408601511660608501526060850151614456608086018280518252602090810151910152565b50608085015160c08581019190915260a086015160e0860152850151610100808601528051918290528201906000906101408601905b808310156144c357835180516001600160a01b0316835260209081015190830152604082019150848401935060018301925061448c565b509695505050505050565b6000602082840312156144e057600080fd5b5035919050565b634e487b7160e01b600052604160045260246000fd5b604080519081016001600160401b038111828210171561451f5761451f6144e7565b60405290565b604051601f8201601f191681016001600160401b038111828210171561454d5761454d6144e7565b604052919050565b6000602080838503121561456857600080fd5b82356001600160401b038082111561457f57600080fd5b818501915085601f83011261459357600080fd5b8135818111156145a5576145a56144e7565b6145b7601f8201601f19168501614525565b915080825286848285010111156145cd57600080fd5b8084840185840137600090820190930192909252509392505050565b60006040828403121561205357600080fd5b60006080828403121561205357600080fd5b600082601f83011261461e57600080fd5b813560206001600160401b03821115614639576146396144e7565b8160051b614648828201614525565b928352848101820192828101908785111561466257600080fd5b83870192505b84831015613bc257614679836143c8565b82529183019190830190614668565b600080600080610100858703121561469f57600080fd5b6146a986866145e9565b9350604085013592506146bf86606087016145fb565b915060e08501356001600160401b038111156146da57600080fd5b6146e68782880161460d565b91505092959194509250565b80356001600160a01b03811681146143df57600080fd5b60008060008060e0858703121561471f57600080fd5b614728856146f2565b93506020850135925061473e86604087016145fb565b915060c08501356001600160401b038111156146da57600080fd5b60008083601f84011261476b57600080fd5b5081356001600160401b0381111561478257600080fd5b6020830191508360208260051b850101111561313f57600080fd5b600080600080600080606087890312156147b657600080fd5b86356001600160401b03808211156147cd57600080fd5b6147d98a838b01614759565b909850965060208901359150808211156147f257600080fd5b6147fe8a838b01614759565b9096509450604089013591508082111561481757600080fd5b5061482489828a01614759565b979a9699509497509295939492505050565b815181526020808301519082015260408101611abd565b6000806000806000610160868803121561486657600080fd5b61487087876145e9565b945061487f87604088016145fb565b935061488e8760c088016145fb565b92506101408601356001600160401b03808211156148ab57600080fd5b818801915088601f8301126148bf57600080fd5b8135818111156148ce57600080fd5b8960208260061b85010111156148e357600080fd5b9699959850939650602001949392505050565b60006020828403121561490857600080fd5b6138ff826146f2565b600080600080600080600060e0888a03121561492c57600080fd5b614935886146f2565b9650614943602089016146f2565b96999698505050506040850135946060810135946080820135945060a0820135935060c0909101359150565b634e487b7160e01b600052601160045260246000fd5b81810381811115611abd57611abd61496f565b6000604082840312156149aa57600080fd5b6149b26144fd565b82358152602083013560208201528091505092915050565b60005b838110156149e55781810151838201526020016149cd565b50506000910152565b60008251614a008184602087016149ca565b9190910192915050565b6001600160401b0383168152606081016138ff602083018480358252602090810135910152565b600060808284031215614a4357600080fd5b604051608081018181106001600160401b0382111715614a6557614a656144e7565b8060405250823581526020830135602082015260408301356040820152606083013560608201528091505092915050565b634e487b7160e01b600052603260045260246000fd5b600060018201614abe57614abe61496f565b5060010190565b80820180821115611abd57611abd61496f565b600060408284031215614aea57600080fd5b614af26144fd565b614afb836146f2565b8152602083013560208201528091505092915050565b6001600160a01b0383168152606081016138ff602083018480518252602090810151910152565b8082028115828204841417611abd57611abd61496f565b634e487b7160e01b600052601260045260246000fd5b600082614b7457614b74614b4f565b500490565b6001600160401b0381811683821601908082111561272c5761272c61496f565b6001600160a01b0384168152602080820184905282516040830152820151606082015260808101612b8e565b60006101008083016001600160a01b03881684526020614bf18186018980358252602090810135910152565b86356060860152808701356080860152604087013560a0860152606087013561ffff8116808214614c2157600080fd5b60c08701525060e08501929092528451908190526101208401918086019160005b81811015614c7557835180516001600160a01b031686526020908101519086015260408501945092820192600101614c42565b50929998505050505050505050565b60008451614c968184602089016149ca565b919091019283525060601b6bffffffffffffffffffffffff19166020820152603401919050565b634e487b7160e01b600052600160045260246000fd5b600082614ce257614ce2614b4f565b500690565b600060208284031215614cf957600080fd5b815180151581146138ff57600080fdfe30644e72e131a029b85045b68181585d97816a916871ca8d3c208c16d87cfd47424c535f5349475f545259414e44494e4352454d454e545f4c4951554944415445a164736f6c6343000814000a",
  "linkReferences": {},
  "deployedLinkReferences": {}
}