{
  "_format": "hh-sol-artifact-1",
  "contractName": "ServiceNodeContribution",
  "sourceName": "contracts/ServiceNodeContribution.sol",
  "abi": [
    {
      "inputs": [
        {
          "internalType": "address",
          "name": "_stakingRewardsContract",
          "type": "address"
        },
        {
          "internalType": "uint256",
          "name": "_maxContributors",
          "type": "uint256"
        },
        {
          "components": [
            {
              "internalType": "uint256",
              "name": "X",
              "type": "uint256"
            },
            {
              "internalType": "uint256",
              "name": "Y",
              "type": "uint256"
            }
          ],
          "internalType": "struct BN256G1.G1Point",
          "name": "key",
          "type": "tuple"
        },
        {
          "components": [
            {
              "internalType": "uint256",
              "name": "sigs0",
              "type": "uint256"
            },
            {
              "internalType": "uint256",
              "name": "sigs1",
              "type": "uint256"
            },
            {
              "internalType": "uint256",
              "name": "sigs2",
              "type": "uint256"
            },
            {
              "internalType": "uint256",
              "name": "sigs3",
              "type": "uint256"
            }
          ],
          "internalType": "struct IServiceNodeRewards.BLSSignatureParams",
          "name": "sig",
          "type": "tuple"
        },
        {
          "components": [
            {
              "internalType": "uint256",
              "name": "serviceNodePubkey",
              "type": "uint256"
            },
            {
              "internalType": "uint256",
              "name": "serviceNodeSignature1",
              "type": "uint256"
            },
            {
              "internalType": "uint256",
              "name": "serviceNodeSignature2",
              "type": "uint256"
            },
            {
              "internalType": "uint16",
              "name": "fee",
              "type": "uint16"
            }
          ],
          "internalType": "struct IServiceNodeRewards.ServiceNodeParams",
          "name": "params",
          "type": "tuple"
        },
        {
          "components": [
            {
              "internalType": "address",
              "name": "addr",
              "type": "address"
            },
            {
              "internalType": "uint256",
              "name": "amount",
              "type": "uint256"
            }
          ],
          "internalType": "struct IServiceNodeRewards.ReservedContributor[]",
          "name": "reserved",
          "type": "tuple[]"
        },
        {
          "internalType": "bool",
          "name": "_manualFinalize",
          "type": "bool"
        }
      ],
      "stateMutability": "nonpayable",
      "type": "constructor"
    },
    {
      "inputs": [
        {
          "internalType": "address",
          "name": "target",
          "type": "address"
        }
      ],
      "name": "AddressEmptyCode",
      "type": "error"
    },
    {
      "inputs": [
        {
          "internalType": "address",
          "name": "account",
          "type": "address"
        }
      ],
      "name": "AddressInsufficientBalance",
      "type": "error"
    },
    {
      "inputs": [
        {
          "internalType": "uint256",
          "name": "ed25519Pubkey",
          "type": "uint256"
        }
      ],
      "name": "BeneficiaryUpdatingDisabledNodeIsNotOpen",
      "type": "error"
    },
    {
      "inputs": [
        {
          "internalType": "uint256",
          "name": "numContributors",
          "type": "uint256"
        },
        {
          "internalType": "uint256",
          "name": "maxNumContributors",
          "type": "uint256"
        }
      ],
      "name": "CalcMinContributionGivenBadContribArgs",
      "type": "error"
    },
    {
      "inputs": [
        {
          "internalType": "enum IServiceNodeContribution.Status",
          "name": "status",
          "type": "uint8"
        }
      ],
      "name": "ContributeFundsNotPossible",
      "type": "error"
    },
    {
      "inputs": [
        {
          "internalType": "uint256",
          "name": "contributed",
          "type": "uint256"
        },
        {
          "internalType": "uint256",
          "name": "min",
          "type": "uint256"
        }
      ],
      "name": "ContributionBelowMinAmount",
      "type": "error"
    },
    {
      "inputs": [
        {
          "internalType": "uint256",
          "name": "contributed",
          "type": "uint256"
        },
        {
          "internalType": "uint256",
          "name": "reserved",
          "type": "uint256"
        }
      ],
      "name": "ContributionBelowReservedAmount",
      "type": "error"
    },
    {
      "inputs": [
        {
          "internalType": "uint256",
          "name": "totalContributed",
          "type": "uint256"
        },
        {
          "internalType": "uint256",
          "name": "totalReserved",
          "type": "uint256"
        },
        {
          "internalType": "uint256",
          "name": "stakingRequirement",
          "type": "uint256"
        }
      ],
      "name": "ContributionExceedsStakingRequirement",
      "type": "error"
    },
    {
      "inputs": [
        {
          "internalType": "uint256",
          "name": "index",
          "type": "uint256"
        }
      ],
      "name": "DuplicateAddressInReservedContributor",
      "type": "error"
    },
    {
      "inputs": [],
      "name": "FailedInnerCall",
      "type": "error"
    },
    {
      "inputs": [
        {
          "internalType": "uint16",
          "name": "fee",
          "type": "uint16"
        },
        {
          "internalType": "uint16",
          "name": "max",
          "type": "uint16"
        }
      ],
      "name": "FeeExceedsPossibleValue",
      "type": "error"
    },
    {
      "inputs": [
        {
          "internalType": "enum IServiceNodeContribution.Status",
          "name": "status",
          "type": "uint8"
        }
      ],
      "name": "FeeUpdateNotPossible",
      "type": "error"
    },
    {
      "inputs": [
        {
          "internalType": "enum IServiceNodeContribution.Status",
          "name": "status",
          "type": "uint8"
        }
      ],
      "name": "FinalizeNotPossible",
      "type": "error"
    },
    {
      "inputs": [
        {
          "internalType": "address",
          "name": "contributor",
          "type": "address"
        },
        {
          "internalType": "address",
          "name": "operator",
          "type": "address"
        }
      ],
      "name": "FirstContributionMustBeOperator",
      "type": "error"
    },
    {
      "inputs": [
        {
          "internalType": "uint256",
          "name": "index",
          "type": "uint256"
        },
        {
          "internalType": "address",
          "name": "operator",
          "type": "address"
        }
      ],
      "name": "FirstReservedContributorMustBeOperator",
      "type": "error"
    },
    {
      "inputs": [
        {
          "internalType": "uint256",
          "name": "maxContributors",
          "type": "uint256"
        }
      ],
      "name": "MaxContributorsExceeded",
      "type": "error"
    },
    {
      "inputs": [
        {
          "internalType": "address",
          "name": "nonContributorAddr",
          "type": "address"
        }
      ],
      "name": "NonContributorUpdatedBeneficiary",
      "type": "error"
    },
    {
      "inputs": [
        {
          "internalType": "address",
          "name": "addr",
          "type": "address"
        },
        {
          "internalType": "address",
          "name": "operator",
          "type": "address"
        }
      ],
      "name": "OnlyOperatorIsAuthorised",
      "type": "error"
    },
    {
      "inputs": [
        {
          "internalType": "enum IServiceNodeContribution.Status",
          "name": "status",
          "type": "uint8"
        }
      ],
      "name": "PubkeyUpdateNotPossible",
      "type": "error"
    },
    {
      "inputs": [
        {
          "internalType": "address",
          "name": "token",
          "type": "address"
        }
      ],
      "name": "RescueBalanceIsEmpty",
      "type": "error"
    },
    {
      "inputs": [
        {
          "internalType": "enum IServiceNodeContribution.Status",
          "name": "status",
          "type": "uint8"
        }
      ],
      "name": "RescueNotPossible",
      "type": "error"
    },
    {
      "inputs": [
        {
          "internalType": "uint256",
          "name": "index",
          "type": "uint256"
        },
        {
          "internalType": "uint256",
          "name": "contributed",
          "type": "uint256"
        },
        {
          "internalType": "uint256",
          "name": "min",
          "type": "uint256"
        }
      ],
      "name": "ReservedContributionBelowMinAmount",
      "type": "error"
    },
    {
      "inputs": [
        {
          "internalType": "uint256",
          "name": "index",
          "type": "uint256"
        },
        {
          "internalType": "uint256",
          "name": "contributed",
          "type": "uint256"
        },
        {
          "internalType": "uint256",
          "name": "remaining",
          "type": "uint256"
        }
      ],
      "name": "ReservedContributionExceedsStakingRequirement",
      "type": "error"
    },
    {
      "inputs": [
        {
          "internalType": "uint256",
          "name": "index",
          "type": "uint256"
        }
      ],
      "name": "ReservedContributorHasZeroAddress",
      "type": "error"
    },
    {
      "inputs": [
        {
          "internalType": "enum IServiceNodeContribution.Status",
          "name": "status",
          "type": "uint8"
        }
      ],
      "name": "ReservedContributorUpdateNotPossible",
      "type": "error"
    },
    {
      "inputs": [
        {
          "internalType": "uint256",
          "name": "oldMax",
          "type": "uint256"
        },
        {
          "internalType": "uint256",
          "name": "newMax",
          "type": "uint256"
        }
      ],
      "name": "RewardsContractMaxContributorsChanged",
      "type": "error"
    },
    {
      "inputs": [
        {
          "internalType": "uint256",
          "name": "oldRequirement",
          "type": "uint256"
        },
        {
          "internalType": "uint256",
          "name": "newRequirement",
          "type": "uint256"
        }
      ],
      "name": "RewardsContractStakingRequirementChanged",
      "type": "error"
    },
    {
      "inputs": [
        {
          "internalType": "address",
          "name": "token",
          "type": "address"
        }
      ],
      "name": "SafeERC20FailedOperation",
      "type": "error"
    },
    {
      "inputs": [
        {
          "internalType": "uint256",
          "name": "length",
          "type": "uint256"
        },
        {
          "internalType": "uint256",
          "name": "max",
          "type": "uint256"
        }
      ],
      "name": "TooManyReservedContributors",
      "type": "error"
    },
    {
      "inputs": [
        {
          "internalType": "uint256",
          "name": "contribTime",
          "type": "uint256"
        },
        {
          "internalType": "uint256",
          "name": "blockTime",
          "type": "uint256"
        },
        {
          "internalType": "uint256",
          "name": "delayRequired",
          "type": "uint256"
        }
      ],
      "name": "WithdrawTooEarly",
      "type": "error"
    },
    {
      "anonymous": false,
      "inputs": [
        {
          "indexed": true,
          "internalType": "uint256",
          "name": "serviceNodePubkey",
          "type": "uint256"
        },
        {
          "indexed": true,
          "internalType": "address",
          "name": "operator",
          "type": "address"
        }
      ],
      "name": "Filled",
      "type": "event"
    },
    {
      "anonymous": false,
      "inputs": [
        {
          "indexed": true,
          "internalType": "uint256",
          "name": "serviceNodePubkey",
          "type": "uint256"
        }
      ],
      "name": "Finalized",
      "type": "event"
    },
    {
      "anonymous": false,
      "inputs": [
        {
          "indexed": true,
          "internalType": "address",
          "name": "contributor",
          "type": "address"
        },
        {
          "indexed": false,
          "internalType": "uint256",
          "name": "amount",
          "type": "uint256"
        }
      ],
      "name": "NewContribution",
      "type": "event"
    },
    {
      "anonymous": false,
      "inputs": [
        {
          "indexed": true,
          "internalType": "uint256",
          "name": "serviceNodePubkey",
          "type": "uint256"
        },
        {
          "indexed": true,
          "internalType": "address",
          "name": "operator",
          "type": "address"
        },
        {
          "indexed": false,
          "internalType": "uint16",
          "name": "fee",
          "type": "uint16"
        }
      ],
      "name": "OpenForPublicContribution",
      "type": "event"
    },
    {
      "anonymous": false,
      "inputs": [
        {
          "indexed": true,
          "internalType": "address",
          "name": "staker",
          "type": "address"
        },
        {
          "indexed": false,
          "internalType": "address",
          "name": "oldBeneficiary",
          "type": "address"
        },
        {
          "indexed": false,
          "internalType": "address",
          "name": "newBeneficiary",
          "type": "address"
        }
      ],
      "name": "UpdateStakerBeneficiary",
      "type": "event"
    },
    {
      "anonymous": false,
      "inputs": [
        {
          "indexed": true,
          "internalType": "address",
          "name": "contributor",
          "type": "address"
        },
        {
          "indexed": false,
          "internalType": "uint256",
          "name": "amount",
          "type": "uint256"
        }
      ],
      "name": "WithdrawContribution",
      "type": "event"
    },
    {
      "inputs": [],
      "name": "MAX_FEE",
      "outputs": [
        {
          "internalType": "uint16",
          "name": "",
          "type": "uint16"
        }
      ],
      "stateMutability": "view",
      "type": "function"
    },
    {
      "inputs": [],
      "name": "SENT",
      "outputs": [
        {
          "internalType": "contract IERC20",
          "name": "",
          "type": "address"
        }
      ],
      "stateMutability": "view",
      "type": "function"
    },
    {
      "inputs": [],
      "name": "WITHDRAWAL_DELAY",
      "outputs": [
        {
          "internalType": "uint64",
          "name": "",
          "type": "uint64"
        }
      ],
      "stateMutability": "view",
      "type": "function"
    },
    {
      "inputs": [],
      "name": "_blsSignature",
      "outputs": [
        {
          "internalType": "uint256",
          "name": "sigs0",
          "type": "uint256"
        },
        {
          "internalType": "uint256",
          "name": "sigs1",
          "type": "uint256"
        },
        {
          "internalType": "uint256",
          "name": "sigs2",
          "type": "uint256"
        },
        {
          "internalType": "uint256",
          "name": "sigs3",
          "type": "uint256"
        }
      ],
      "stateMutability": "view",
      "type": "function"
    },
    {
      "inputs": [
        {
          "internalType": "uint256",
          "name": "",
          "type": "uint256"
        }
      ],
      "name": "_contributorAddresses",
      "outputs": [
        {
          "internalType": "address",
          "name": "addr",
          "type": "address"
        },
        {
          "internalType": "address",
          "name": "beneficiary",
          "type": "address"
        }
      ],
      "stateMutability": "view",
      "type": "function"
    },
    {
      "inputs": [],
      "name": "_serviceNodeParams",
      "outputs": [
        {
          "internalType": "uint256",
          "name": "serviceNodePubkey",
          "type": "uint256"
        },
        {
          "internalType": "uint256",
          "name": "serviceNodeSignature1",
          "type": "uint256"
        },
        {
          "internalType": "uint256",
          "name": "serviceNodeSignature2",
          "type": "uint256"
        },
        {
          "internalType": "uint16",
          "name": "fee",
          "type": "uint16"
        }
      ],
      "stateMutability": "view",
      "type": "function"
    },
    {
      "inputs": [],
      "name": "blsPubkey",
      "outputs": [
        {
          "internalType": "uint256",
          "name": "X",
          "type": "uint256"
        },
        {
          "internalType": "uint256",
          "name": "Y",
          "type": "uint256"
        }
      ],
      "stateMutability": "view",
      "type": "function"
    },
    {
      "inputs": [],
      "name": "blsSignature",
      "outputs": [
        {
          "components": [
            {
              "internalType": "uint256",
              "name": "sigs0",
              "type": "uint256"
            },
            {
              "internalType": "uint256",
              "name": "sigs1",
              "type": "uint256"
            },
            {
              "internalType": "uint256",
              "name": "sigs2",
              "type": "uint256"
            },
            {
              "internalType": "uint256",
              "name": "sigs3",
              "type": "uint256"
            }
          ],
          "internalType": "struct IServiceNodeRewards.BLSSignatureParams",
          "name": "",
          "type": "tuple"
        }
      ],
      "stateMutability": "view",
      "type": "function"
    },
    {
      "inputs": [
        {
          "internalType": "uint256",
          "name": "contributionRemaining",
          "type": "uint256"
        },
        {
          "internalType": "uint256",
          "name": "numContributors",
          "type": "uint256"
        },
        {
          "internalType": "uint256",
          "name": "maxNumContributors",
          "type": "uint256"
        }
      ],
      "name": "calcMinimumContribution",
      "outputs": [
        {
          "internalType": "uint256",
          "name": "result",
          "type": "uint256"
        }
      ],
      "stateMutability": "pure",
      "type": "function"
    },
    {
      "inputs": [
        {
          "internalType": "uint256",
          "name": "amount",
          "type": "uint256"
        },
        {
          "internalType": "address",
          "name": "beneficiary",
          "type": "address"
        }
      ],
      "name": "contributeFunds",
      "outputs": [],
      "stateMutability": "nonpayable",
      "type": "function"
    },
    {
      "inputs": [
        {
          "internalType": "address",
          "name": "stakerAddr",
          "type": "address"
        }
      ],
      "name": "contributionTimestamp",
      "outputs": [
        {
          "internalType": "uint256",
          "name": "amount",
          "type": "uint256"
        }
      ],
      "stateMutability": "view",
      "type": "function"
    },
    {
      "inputs": [
        {
          "internalType": "address",
          "name": "stakerAddr",
          "type": "address"
        }
      ],
      "name": "contributions",
      "outputs": [
        {
          "internalType": "uint256",
          "name": "amount",
          "type": "uint256"
        }
      ],
      "stateMutability": "view",
      "type": "function"
    },
    {
      "inputs": [
        {
          "internalType": "uint256",
          "name": "index",
          "type": "uint256"
        }
      ],
      "name": "contributorAddresses",
      "outputs": [
        {
          "components": [
            {
              "internalType": "address",
              "name": "addr",
              "type": "address"
            },
            {
              "internalType": "address",
              "name": "beneficiary",
              "type": "address"
            }
          ],
          "internalType": "struct IServiceNodeRewards.Staker",
          "name": "",
          "type": "tuple"
        }
      ],
      "stateMutability": "view",
      "type": "function"
    },
    {
      "inputs": [],
      "name": "contributorAddressesLength",
      "outputs": [
        {
          "internalType": "uint256",
          "name": "result",
          "type": "uint256"
        }
      ],
      "stateMutability": "view",
      "type": "function"
    },
    {
      "inputs": [],
      "name": "finalize",
      "outputs": [],
      "stateMutability": "nonpayable",
      "type": "function"
    },
    {
      "inputs": [],
      "name": "getContributions",
      "outputs": [
        {
          "internalType": "address[]",
          "name": "addrs",
          "type": "address[]"
        },
        {
          "internalType": "address[]",
          "name": "beneficiaries",
          "type": "address[]"
        },
        {
          "internalType": "uint256[]",
          "name": "contribs",
          "type": "uint256[]"
        }
      ],
      "stateMutability": "view",
      "type": "function"
    },
    {
      "inputs": [],
      "name": "getReserved",
      "outputs": [
        {
          "internalType": "address[]",
          "name": "addrs",
          "type": "address[]"
        },
        {
          "internalType": "uint256[]",
          "name": "contribs",
          "type": "uint256[]"
        },
        {
          "internalType": "bool[]",
          "name": "received",
          "type": "bool[]"
        }
      ],
      "stateMutability": "view",
      "type": "function"
    },
    {
      "inputs": [],
      "name": "manualFinalize",
      "outputs": [
        {
          "internalType": "bool",
          "name": "",
          "type": "bool"
        }
      ],
      "stateMutability": "view",
      "type": "function"
    },
    {
      "inputs": [],
      "name": "maxContributors",
      "outputs": [
        {
          "internalType": "uint256",
          "name": "",
          "type": "uint256"
        }
      ],
      "stateMutability": "view",
      "type": "function"
    },
    {
      "inputs": [],
      "name": "minimumContribution",
      "outputs": [
        {
          "internalType": "uint256",
          "name": "result",
          "type": "uint256"
        }
      ],
      "stateMutability": "view",
      "type": "function"
    },
    {
      "inputs": [
        {
          "internalType": "uint256",
          "name": "_stakingRequirement",
          "type": "uint256"
        }
      ],
      "name": "minimumOperatorContribution",
      "outputs": [
        {
          "internalType": "uint256",
          "name": "result",
          "type": "uint256"
        }
      ],
      "stateMutability": "pure",
      "type": "function"
    },
    {
      "inputs": [],
      "name": "operator",
      "outputs": [
        {
          "internalType": "address",
          "name": "",
          "type": "address"
        }
      ],
      "stateMutability": "view",
      "type": "function"
    },
    {
      "inputs": [],
      "name": "operatorContribution",
      "outputs": [
        {
          "internalType": "uint256",
          "name": "result",
          "type": "uint256"
        }
      ],
      "stateMutability": "view",
      "type": "function"
    },
    {
      "inputs": [
        {
          "internalType": "address",
          "name": "tokenAddress",
          "type": "address"
        }
      ],
      "name": "rescueERC20",
      "outputs": [],
      "stateMutability": "nonpayable",
      "type": "function"
    },
    {
      "inputs": [
        {
          "internalType": "address",
          "name": "stakerAddr",
          "type": "address"
        }
      ],
      "name": "reservedContributions",
      "outputs": [
        {
          "internalType": "uint256",
          "name": "amount",
          "type": "uint256"
        },
        {
          "internalType": "bool",
          "name": "received",
          "type": "bool"
        }
      ],
      "stateMutability": "view",
      "type": "function"
    },
    {
      "inputs": [
        {
          "internalType": "uint256",
          "name": "",
          "type": "uint256"
        }
      ],
      "name": "reservedContributionsAddresses",
      "outputs": [
        {
          "internalType": "address",
          "name": "",
          "type": "address"
        }
      ],
      "stateMutability": "view",
      "type": "function"
    },
    {
      "inputs": [],
      "name": "reset",
      "outputs": [],
      "stateMutability": "nonpayable",
      "type": "function"
    },
    {
      "inputs": [
        {
          "components": [
            {
              "internalType": "uint256",
              "name": "X",
              "type": "uint256"
            },
            {
              "internalType": "uint256",
              "name": "Y",
              "type": "uint256"
            }
          ],
          "internalType": "struct BN256G1.G1Point",
          "name": "key",
          "type": "tuple"
        },
        {
          "components": [
            {
              "internalType": "uint256",
              "name": "sigs0",
              "type": "uint256"
            },
            {
              "internalType": "uint256",
              "name": "sigs1",
              "type": "uint256"
            },
            {
              "internalType": "uint256",
              "name": "sigs2",
              "type": "uint256"
            },
            {
              "internalType": "uint256",
              "name": "sigs3",
              "type": "uint256"
            }
          ],
          "internalType": "struct IServiceNodeRewards.BLSSignatureParams",
          "name": "sig",
          "type": "tuple"
        },
        {
          "components": [
            {
              "internalType": "uint256",
              "name": "serviceNodePubkey",
              "type": "uint256"
            },
            {
              "internalType": "uint256",
              "name": "serviceNodeSignature1",
              "type": "uint256"
            },
            {
              "internalType": "uint256",
              "name": "serviceNodeSignature2",
              "type": "uint256"
            },
            {
              "internalType": "uint16",
              "name": "fee",
              "type": "uint16"
            }
          ],
          "internalType": "struct IServiceNodeRewards.ServiceNodeParams",
          "name": "params",
          "type": "tuple"
        },
        {
          "components": [
            {
              "internalType": "address",
              "name": "addr",
              "type": "address"
            },
            {
              "internalType": "uint256",
              "name": "amount",
              "type": "uint256"
            }
          ],
          "internalType": "struct IServiceNodeRewards.ReservedContributor[]",
          "name": "reserved",
          "type": "tuple[]"
        },
        {
          "internalType": "bool",
          "name": "_manualFinalize",
          "type": "bool"
        },
        {
          "internalType": "address",
          "name": "beneficiary",
          "type": "address"
        },
        {
          "internalType": "uint256",
          "name": "amount",
          "type": "uint256"
        }
      ],
      "name": "resetUpdateAndContribute",
      "outputs": [],
      "stateMutability": "nonpayable",
      "type": "function"
    },
    {
      "inputs": [
        {
          "internalType": "uint16",
          "name": "fee",
          "type": "uint16"
        },
        {
          "components": [
            {
              "internalType": "address",
              "name": "addr",
              "type": "address"
            },
            {
              "internalType": "uint256",
              "name": "amount",
              "type": "uint256"
            }
          ],
          "internalType": "struct IServiceNodeRewards.ReservedContributor[]",
          "name": "reserved",
          "type": "tuple[]"
        },
        {
          "internalType": "bool",
          "name": "_manualFinalize",
          "type": "bool"
        },
        {
          "internalType": "address",
          "name": "beneficiary",
          "type": "address"
        },
        {
          "internalType": "uint256",
          "name": "amount",
          "type": "uint256"
        }
      ],
      "name": "resetUpdateFeeReservedAndContribute",
      "outputs": [],
      "stateMutability": "nonpayable",
      "type": "function"
    },
    {
      "inputs": [],
      "name": "serviceNodeParams",
      "outputs": [
        {
          "components": [
            {
              "internalType": "uint256",
              "name": "serviceNodePubkey",
              "type": "uint256"
            },
            {
              "internalType": "uint256",
              "name": "serviceNodeSignature1",
              "type": "uint256"
            },
            {
              "internalType": "uint256",
              "name": "serviceNodeSignature2",
              "type": "uint256"
            },
            {
              "internalType": "uint16",
              "name": "fee",
              "type": "uint16"
            }
          ],
          "internalType": "struct IServiceNodeRewards.ServiceNodeParams",
          "name": "",
          "type": "tuple"
        }
      ],
      "stateMutability": "view",
      "type": "function"
    },
    {
      "inputs": [],
      "name": "stakingRequirement",
      "outputs": [
        {
          "internalType": "uint256",
          "name": "",
          "type": "uint256"
        }
      ],
      "stateMutability": "view",
      "type": "function"
    },
    {
      "inputs": [],
      "name": "stakingRewardsContract",
      "outputs": [
        {
          "internalType": "contract IServiceNodeRewards",
          "name": "",
          "type": "address"
        }
      ],
      "stateMutability": "view",
      "type": "function"
    },
    {
      "inputs": [],
      "name": "status",
      "outputs": [
        {
          "internalType": "enum IServiceNodeContribution.Status",
          "name": "",
          "type": "uint8"
        }
      ],
      "stateMutability": "view",
      "type": "function"
    },
    {
      "inputs": [],
      "name": "totalContribution",
      "outputs": [
        {
          "internalType": "uint256",
          "name": "result",
          "type": "uint256"
        }
      ],
      "stateMutability": "view",
      "type": "function"
    },
    {
      "inputs": [],
      "name": "totalReservedContribution",
      "outputs": [
        {
          "internalType": "uint256",
          "name": "result",
          "type": "uint256"
        }
      ],
      "stateMutability": "view",
      "type": "function"
    },
    {
      "inputs": [
        {
          "internalType": "address",
          "name": "newBeneficiary",
          "type": "address"
        }
      ],
      "name": "updateBeneficiary",
      "outputs": [],
      "stateMutability": "nonpayable",
      "type": "function"
    },
    {
      "inputs": [
        {
          "internalType": "uint16",
          "name": "fee",
          "type": "uint16"
        }
      ],
      "name": "updateFee",
      "outputs": [],
      "stateMutability": "nonpayable",
      "type": "function"
    },
    {
      "inputs": [
        {
          "internalType": "bool",
          "name": "value",
          "type": "bool"
        }
      ],
      "name": "updateManualFinalize",
      "outputs": [],
      "stateMutability": "nonpayable",
      "type": "function"
    },
    {
      "inputs": [
        {
          "components": [
            {
              "internalType": "uint256",
              "name": "X",
              "type": "uint256"
            },
            {
              "internalType": "uint256",
              "name": "Y",
              "type": "uint256"
            }
          ],
          "internalType": "struct BN256G1.G1Point",
          "name": "newBLSPubkey",
          "type": "tuple"
        },
        {
          "components": [
            {
              "internalType": "uint256",
              "name": "sigs0",
              "type": "uint256"
            },
            {
              "internalType": "uint256",
              "name": "sigs1",
              "type": "uint256"
            },
            {
              "internalType": "uint256",
              "name": "sigs2",
              "type": "uint256"
            },
            {
              "internalType": "uint256",
              "name": "sigs3",
              "type": "uint256"
            }
          ],
          "internalType": "struct IServiceNodeRewards.BLSSignatureParams",
          "name": "newBLSSig",
          "type": "tuple"
        },
        {
          "internalType": "uint256",
          "name": "ed25519Pubkey",
          "type": "uint256"
        },
        {
          "internalType": "uint256",
          "name": "ed25519Sig0",
          "type": "uint256"
        },
        {
          "internalType": "uint256",
          "name": "ed25519Sig1",
          "type": "uint256"
        }
      ],
      "name": "updatePubkeys",
      "outputs": [],
      "stateMutability": "nonpayable",
      "type": "function"
    },
    {
      "inputs": [
        {
          "components": [
            {
              "internalType": "address",
              "name": "addr",
              "type": "address"
            },
            {
              "internalType": "uint256",
              "name": "amount",
              "type": "uint256"
            }
          ],
          "internalType": "struct IServiceNodeRewards.ReservedContributor[]",
          "name": "reserved",
          "type": "tuple[]"
        }
      ],
      "name": "updateReservedContributors",
      "outputs": [],
      "stateMutability": "nonpayable",
      "type": "function"
    },
    {
      "inputs": [],
      "name": "withdrawContribution",
      "outputs": [],
      "stateMutability": "nonpayable",
      "type": "function"
    }
  ],
  "bytecode": "0x610120604052600f805460ff1916905534801561001b57600080fd5b5060405161543d38038061543d83398101604081905261003a9161196c565b866001600160a01b0381166100a45760405162461bcd60e51b815260206004820152602560248201527f5368617265643a205a65726f2d61646472657373206973206e6f74207065726d6044820152641a5d1d195960da1b60648201526084015b60405180910390fd5b86806000036100f55760405162461bcd60e51b815260206004820152601b60248201527f5368617265643a2075696e7420696e70757420697320656d7074790000000000604482015260640161009b565b6001600160a01b03891660a081905260408051630ada733d60e31b815290516356d399e8916004808201926020929091908290030181865afa15801561013f573d6000803e3d6000fd5b505050506040513d601f19601f820116820180604052508101906101639190611a30565b60c0818152505060a0516001600160a01b0316637c89d2f06040518163ffffffff1660e01b8152600401602060405180830381865afa1580156101aa573d6000803e3d6000fd5b505050506040513d601f19601f820116820180604052508101906101ce9190611a49565b6001600160a01b03166080526101008890523260e05260006101f588888888888680610204565b50505050505050505050611c7f565b61020c61026c565b845160208601516040870151610225928a928a92610398565b6060850151610233906104ad565b61023c84610537565b600f805461ff0019166101008515150217905580156102635760e051610263908383610859565b50505050505050565b600c5460005b81811015610334576000600c828154811061028f5761028f611a66565b600091825260208083206002909202909101546001600160a01b0316808352600a9091526040909120549091506003600f5460ff1660038111156102d5576102d5611751565b141580156102e35750600081115b156102ff576080516102ff906001600160a01b03168383610e71565b61032a826001600160a01b03166000908152600a60209081526040808320839055600b909152812055565b5050600101610272565b50610341600c60006116cd565b600f805460ff191690556040805160008082526020820190925281610388565b60408051808201909152600080825260208201528152602001906001900390816103615790505b50905061039481610537565b5050565b6000600f5460ff1660038111156103b1576103b1611751565b146103d657600f54604051639a0293fd60e01b815261009b9160ff1690600401611a7c565b60a05160e0516040805160016226579360e01b03198152885160048201526020808a01516024830152885160448301528801516064820152908701516084820152606087015160a48201526001600160a01b0391821660c482015260e4810186905291169063ffd9a86d9061010401600060405180830381600087803b15801561045f57600080fd5b505af1158015610473573d6000803e3d6000fd5b5050865160005550506020948501516001558351600655938301516007556040830151600855606090920151600955600255600355600455565b6000600f5460ff1660038111156104c6576104c6611751565b146104eb57600f5460405163ad88fc8f60e01b815261009b9160ff1690600401611a7c565b61271061ffff8216111561051f57604051624ae8fd60e41b815261ffff82166004820152612710602482015260440161009b565b6005805461ffff191661ffff92909216919091179055565b6000600f5460ff16600381111561055057610550611751565b1461057557600f546040516312ba63f960e11b815261009b9160ff1690600401611a7c565b600e5460005b818110156105d457600d6000600e838154811061059a5761059a611a66565b60009182526020808320909101546001600160a01b0316835282019290925260400181209081556001908101805460ff191690550161057b565b506105e1600e60006116ee565b5060c051610100518251111561061957815161010051604051630962235760e31b81526004810192909252602482015260440161009b565b815160005b8181101561085357806000036106955760e0516001600160a01b031684828151811061064c5761064c611a66565b6020026020010151600001516001600160a01b0316146106955760e05160405163ef77b46760e01b8152600481018390526001600160a01b03909116602482015260440161009b565b60006001600160a01b03168482815181106106b2576106b2611a66565b6020026020010151600001516001600160a01b0316036106e85760405163621caef560e11b81526004810182905260240161009b565b6000600d600086848151811061070057610700611a66565b6020026020010151600001516001600160a01b03166001600160a01b0316815260200190815260200160002090508060000154600014610756576040516308308c2360e21b81526004810183905260240161009b565b600061076c858461010051610ece60201b60201c565b9050600086848151811061078257610782611a66565b6020026020010151602001519050818110156107b75783818360405163c4aa8aa360e01b815260040161009b93929190611aa4565b808610156107de57838187604051636d3ae3a760e01b815260040161009b93929190611aa4565b6107e88187611ad0565b9550600e8785815181106107fe576107fe611a66565b6020908102919091018101515182546001808201855560009485529290932090920180546001600160a01b0319166001600160a01b0390931692909217909155908355918201805460ff19169055500161061e565b50505050565b6000600f5460ff16600381111561087257610872611751565b1415801561089757506001600f5460ff16600381111561089457610894611751565b14155b156108bc57600f54604051630295f95f60e51b815261009b9160ff1690600401611a7c565b60a0516001600160a01b03166386fa50636040518163ffffffff1660e01b8152600401602060405180830381865afa1580156108fc573d6000803e3d6000fd5b505050506040513d601f19601f820116820180604052508101906109209190611a30565b61010051146109b3576101005160a0516001600160a01b03166386fa50636040518163ffffffff1660e01b8152600401602060405180830381865afa15801561096d573d6000803e3d6000fd5b505050506040513d601f19601f820116820180604052508101906109919190611a30565b604051631248081b60e31b81526004810192909252602482015260440161009b565b60a0516001600160a01b03166356d399e86040518163ffffffff1660e01b8152600401602060405180830381865afa1580156109f3573d6000803e3d6000fd5b505050506040513d601f19601f82011682018060405250810190610a179190611a30565b60c05114610a625760c05160a0516001600160a01b03166356d399e86040518163ffffffff1660e01b8152600401602060405180830381865afa15801561096d573d6000803e3d6000fd5b6000600f5460ff166003811115610a7b57610a7b611751565b03610b145760e0516001600160a01b0316836001600160a01b031614610ab95760e0516040516316a4ebc160e21b815261009b918591600401611ae3565b600f805460ff1916600117905560e05160025460055460405161ffff90911681526001600160a01b03909216917fe52a01bb4ffcc3baf2c5d17111d7d5b676a7485809eb10671092a89d2bb22ff69060200160405180910390a35b6001600160a01b0383166000908152600d60205260409020805415801590610b415750600181015460ff16155b15610b8a578054821015610b7557805460405163454cd8e160e01b815261009b918491600401918252602082015260400190565b6001818101805460ff19169091179055610be6565b6001600160a01b0384166000908152600a6020526040902054158015610bb65750610bb3610f65565b82105b15610be65781610bc4610f65565b6040516310e45ff160e21b81526004810192909252602482015260440161009b565b6001600160a01b0384166000908152600a60205260408120549003610cb7576000610c11858561102b565b604080518082019091526001600160a01b03808816825291821660208201908152600c8054600181018255600091909152915160029092027fdf6966c971051c3d54ec59162606531493a51404a002842f56009d7e5cf4a8c7810180549385166001600160a01b031994851617905590517fdf6966c971051c3d54ec59162606531493a51404a002842f56009d7e5cf4a8c8909101805491909316911617905550610cc1565b610cc18484611049565b6001600160a01b0384166000908152600a602052604081208054849290610ce9908490611afd565b90915550506001600160a01b0384166000908152600b60205260408120429055610d116111ca565b90506000610d1d611236565b60c051909150610d2d8284611afd565b1115610d5457818160c05160405163513b428b60e11b815260040161009b93929190611aa4565b61010051600c541115610d8157610100516040516315b5c3d560e21b815260040161009b91815260200190565b60c0518203610dd35760e0516002546040516001600160a01b03909216917f48996614f3380f3dcd5a2d2e6eaddfd66207ff3457fee339e09b4735bc9ec95890600090a3600f805460ff191660021790555b856001600160a01b03167fbdaa686eb6f59012d211a74523da260341c516896e9e5be954163d6ecf26ffa285604051610e0e91815260200190565b60405180910390a2608051610e2e906001600160a01b03168730876112a8565b6002600f5460ff166003811115610e4757610e47611751565b148015610e5c5750600f54610100900460ff16155b15610e6957610e696112e1565b505050505050565b610ec983846001600160a01b031663a9059cbb8585604051602401610e97929190611b10565b60408051808303601f1901815291905260208101805160e09390931b6001600160e01b03938416179052915061154216565b505050565b6000828211610efa576040516376675ed960e11b8152600481018490526024810183905260440161009b565b82600003610f2b576004610f0f600186611ad0565b610f199190611b29565b610f24906001611afd565b9050610f5e565b6000610f378484611ad0565b905080610f45600187611ad0565b610f4f9190611b29565b610f5a906001611afd565b9150505b9392505050565b600e5460009081908190815b81811015610fe8576000600e8281548110610f8e57610f8e611a66565b60009182526020808320909101546001600160a01b0316808352600d909152604090912060018101549192509060ff16610fde578054610fce9087611afd565b9550610fdb600186611afd565b94505b5050600101610f71565b5061102383610ff56111ca565b60c0516110029190611ad0565b61100c9190611ad0565b600c5461101a908590611afd565b61010051610ece565b935050505090565b60006001600160a01b038216156110425781610f5e565b5090919050565b6001600f5460ff16600381111561106257611062611751565b1415801561108757506002600f5460ff16600381111561108457611084611751565b14155b156110ac576002546040516310004b0160e11b8152600481019190915260240161009b565b60006110b8838361102b565b600c549091506000908190815b8181101561115e576000600c82815481106110e2576110e2611a66565b6000918252602090912060029091020180549091506001600160a01b03808a169116036111555760018101546001600160a01b0380881691160361112a575050505050505050565b600190810180546001600160a01b038881166001600160a01b0319831617909255169450925061115e565b506001016110c5565b508161117f5785604051632fd768d360e11b815260040161009b9190611b4b565b856001600160a01b03167f25639ce407c98fba722dddf1f023c8242e3c77732cfe4660d1c04930bf4cbe7284866040516111ba929190611ae3565b60405180910390a2505050505050565b600c54600090815b81811015611231576000600c82815481106111ef576111ef611a66565b600091825260208083206002909202909101546001600160a01b0316808352600a9091526040909120549091506112269085611afd565b9350506001016111d2565b505090565b600e54600090815b81811015611231576000600e828154811061125b5761125b611a66565b60009182526020808320909101546001600160a01b0316808352600d909152604090912060018101549192509060ff1661129e57805461129b9086611afd565b94505b505060010161123e565b6040516001600160a01b0384811660248301528381166044830152606482018390526108539186918216906323b872dd90608401610e97565b6002600f5460ff1660038111156112fa576112fa611751565b1461131f57600f546040516383696f6f60e01b815261009b9160ff1690600401611a7c565b600f805460ff191660031790556002546040517f839cf22e1ba87ce2f5b9bbf46cf0175a09eed52febdfaac8852478e68203c76390600090a2600c546000816001600160401b038111156113755761137561177c565b6040519080825280602002602001820160405280156113c957816020015b60408051608081018252600091810182815260608201839052815260208101919091528152602001906001900390816113935790505b50905060005b82811015611464576000600c82815481106113ec576113ec611a66565b6000918252602080832060408051608081018252600290940290910180546001600160a01b03908116858401818152600184015490921660608701529085528552600a83529320549082015284519192509084908490811061145057611450611a66565b6020908102919091010152506001016113cf565b506080516001600160a01b031663095ea7b360a05160c0516040518363ffffffff1660e01b8152600401611499929190611b10565b6020604051808303816000875af11580156114b8573d6000803e3d6000fd5b505050506040513d601f19601f820116820180604052508101906114dc9190611b5f565b5060a0516001600160a01b031663bc7efecc600060066002856040518563ffffffff1660e01b81526004016115149493929190611bd9565b600060405180830381600087803b15801561152e57600080fd5b505af1158015610e69573d6000803e3d6000fd5b60006115576001600160a01b0384168361159c565b9050805160001415801561157c57508080602001905181019061157a9190611b5f565b155b15610ec95782604051635274afe760e01b815260040161009b9190611b4b565b6060610f5e838360006115b0565b92915050565b6060814710156115d5573060405163cd78605960e01b815260040161009b9190611b4b565b600080856001600160a01b031684866040516115f19190611c50565b60006040518083038185875af1925050503d806000811461162e576040519150601f19603f3d011682016040523d82523d6000602084013e611633565b606091505b50909250905061164486838361164e565b9695505050505050565b6060826116635761165e826116a1565b610f5e565b815115801561167a57506001600160a01b0384163b155b1561169a5783604051639996b31560e01b815260040161009b9190611b4b565b5080610f5e565b8051156116b15780518082602001fd5b604051630a12f52160e11b815260040160405180910390fd5b50565b50805460008255600202906000526020600020908101906116ca919061170c565b50805460008255906000526020600020908101906116ca919061173c565b5b808211156117385780546001600160a01b03199081168255600182018054909116905560020161170d565b5090565b5b80821115611738576000815560010161173d565b634e487b7160e01b600052602160045260246000fd5b6001600160a01b03811681146116ca57600080fd5b634e487b7160e01b600052604160045260246000fd5b604051608081016001600160401b03811182821017156117b4576117b461177c565b60405290565b604080519081016001600160401b03811182821017156117b4576117b461177c565b604051601f8201601f191681016001600160401b03811182821017156118045761180461177c565b604052919050565b60006080828403121561181e57600080fd5b611826611792565b8251815260208084015190820152604080840151908201526060928301519281019290925250919050565b60006080828403121561186357600080fd5b61186b611792565b825181526020808401519082015260408084015190820152606083015190915061ffff8116811461189b57600080fd5b606082015292915050565b600082601f8301126118b757600080fd5b81516001600160401b038111156118d0576118d061177c565b6118df60208260051b016117dc565b8082825260208201915060208360061b86010192508583111561190157600080fd5b602085015b8381101561194d576040818803121561191e57600080fd5b6119266117ba565b815161193181611767565b8152602082810151818301529084529290920191604001611906565b5095945050505050565b8051801515811461196757600080fd5b919050565b60008060008060008060008789036101c081121561198957600080fd5b885161199481611767565b60208a015190985096506040603f19820112156119b057600080fd5b506119b96117ba565b604089015181526060890151602082015294506119d98960808a0161180c565b93506119e9896101008a01611851565b6101808901519093506001600160401b03811115611a0657600080fd5b611a128a828b016118a6565b925050611a226101a08901611957565b905092959891949750929550565b600060208284031215611a4257600080fd5b5051919050565b600060208284031215611a5b57600080fd5b8151610f5e81611767565b634e487b7160e01b600052603260045260246000fd5b6020810160048310611a9e57634e487b7160e01b600052602160045260246000fd5b91905290565b9283526020830191909152604082015260600190565b634e487b7160e01b600052601160045260246000fd5b818103818111156115aa576115aa611aba565b6001600160a01b0392831681529116602082015260400190565b808201808211156115aa576115aa611aba565b6001600160a01b03929092168252602082015260400190565b600082611b4657634e487b7160e01b600052601260045260246000fd5b500490565b6001600160a01b0391909116815260200190565b600060208284031215611b7157600080fd5b610f5e82611957565b600081518084526020840193506020830160005b82811015611bcf578151805180516001600160a01b039081168952602091820151168189015290810151604088015260609096019590910190600101611b8e565b5093949350505050565b8454815260018501546020820152835460408201526001840154606082015260028401546080820152600384015460a0820152825460c0820152600183015460e0820152600283015461010082015261ffff6003840154166101208201526101606101408201526000611644610160830184611b7a565b6000825160005b81811015611c715760208186018101518583015201611c57565b506000920191825250919050565b60805160a05160c05160e051610100516135f2611e4b6000396000818161052c01528181610f36015281816115b4015281816115dd0152818161179701528181611e3001528181611e56015281816123b501526123e90152600081816104660152818161064b01528181610673015281816106d601528181610a2801528181610a5001528181610afe01528181610b2601528181610bcb01528181610bf301528181610c5b01528181610c9301528181610cbb01528181610d0d01528181610d350152818161104b01528181611073015281816111b5015281816112140152818161123c01528181611469015281816114910152818161162e015281816116a00152818161205901528181612093015281816120f50152818161244c015281816129480152612a7d01526000818161043f01528181610ef80152818161159201528181611f9601528181611fbc01528181612342015281816123750152818161241701526127b601526000818161034a01528181611dae01528181611e7701528181611f1401528181611fdd015281816127940152818161283901526129170152600081816104a001528181611ab201528181611cef015281816124f2015261276701526135f26000f3fe608060405234801561001057600080fd5b50600436106101e25760003560e01c8062e9a407146101e75780630aaffd2a146101fc5780630d616d201461020f5780630d9639ba146102175780630dcf4b8f146102375780630ebb172a1461024d57806312fa329b1461026f578063200d2ed2146102905780632816ee73146102aa5780632c6cda93146102bd5780632c7baaf3146102d0578063313f336b1461030f5780633362379414610345578063356c299d1461037957806342e94c90146103b75780634564168b146103d75780634a387cdf146103f35780634bb278f3146103fb5780634e7320ce14610403578063565a9d481461041857806356d399e81461043a578063570ca7351461046157806358b810d31461048857806360e52ecb1461049b5780636786452c146104c25780636cf72aa4146104d55780637c0b4bfb146104e857806386fa5063146105275780638c7e7a311461054e5780638dd0855714610561578063937e09b11461058157806396a608c0146105895780639ca002a614610591578063a4b6aa83146105a4578063bc063e1a146105ac578063ccec3716146105c8578063d26146a5146105db578063d826f88f146105ee578063dda0a81a146105f6578063e020e4c41461060d578063e50d50d814610620575b600080fd5b6101fa6101f5366004612e8f565b610640565b005b6101fa61020a366004612ecb565b6106c2565b6101fa6106cc565b61021f6107b7565b60405161022e93929190612f5d565b60405180910390f35b61023f61096d565b60405190815260200161022e565b6102576201518081565b6040516001600160401b03909116815260200161022e565b61028261027d366004612fca565b6109d9565b60405161022e929190612fe3565b600f5461029d9060ff1681565b60405161022e9190613013565b6101fa6102b836600461303b565b610a12565b6101fa6102cb366004613079565b610a1d565b6102d8610a93565b60405161022e919081518152602080830151908201526040808301519082015260609182015161ffff169181019190915260800190565b6006546007546008546009546103259392919084565b60408051948552602085019390935291830152606082015260800161022e565b61036c7f000000000000000000000000000000000000000000000000000000000000000081565b60405161022e9190613094565b6002546003546004546005546103939392919061ffff1684565b6040805194855260208501939093529183015261ffff16606082015260800161022e565b61023f6103c5366004612ecb565b600a6020526000908152604090205481565b6000546001546103e5919082565b60405161022e9291906130a8565b600c5461023f565b6101fa610af3565b61040b610b68565b60405161022e91906130dc565b600f5461042a90610100900460ff1681565b604051901515815260200161022e565b61023f7f000000000000000000000000000000000000000000000000000000000000000081565b61036c7f000000000000000000000000000000000000000000000000000000000000000081565b6101fa610496366004613103565b610bc0565b61036c7f000000000000000000000000000000000000000000000000000000000000000081565b6101fa6104d03660046131f1565b610c88565b6101fa6104e3366004613242565b610d02565b6105126104f6366004612ecb565b600d602052600090815260409020805460019091015460ff1682565b6040805192835290151560208301520161022e565b61023f7f000000000000000000000000000000000000000000000000000000000000000081565b61023f61055c36600461325f565b610d78565b61057461056f366004612fca565b610e09565b60405161022e91906132a6565b61023f610e62565b61023f610f62565b61023f61059f366004612fca565b610fb9565b61023f610fce565b6105b561271081565b60405161ffff909116815260200161022e565b6101fa6105d6366004612ecb565b611040565b61036c6105e9366004612fca565b6111df565b6101fa611209565b6105fe61127e565b60405161022e939291906132b4565b6101fa61061b3660046132ed565b61145e565b61023f61062e366004612ecb565b600b6020526000908152604090205481565b336001600160a01b037f000000000000000000000000000000000000000000000000000000000000000016146106b657337f00000000000000000000000000000000000000000000000000000000000000006040516321afccb160e01b81526004016106ad929190612fe3565b60405180910390fd5b6106bf816114e3565b50565b6106bf33826118a8565b6001600160a01b037f000000000000000000000000000000000000000000000000000000000000000016330361070657610704611a29565b565b336000908152600b602052604081205461072090426133e4565b90506201518081101561076a57336000908152600b602052604090819020549051630429b06960e31b815260048101919091524260248201526201518060448201526064016106ad565b600061077533611b4c565b905080156107b35760405181815233907f249a82fbe5056a1940b4e996665ba2a82c340ae9fa1e069fd1ababf5508f396e9060200160405180910390a25b5050565b600e5460609081908190806001600160401b038111156107d9576107d9612d34565b604051908082528060200260200182016040528015610802578160200160208202803683370190505b509350806001600160401b0381111561081d5761081d612d34565b604051908082528060200260200182016040528015610846578160200160208202803683370190505b509250806001600160401b0381111561086157610861612d34565b60405190808252806020026020018201604052801561088a578160200160208202803683370190505b50915060005b81811015610966576000600e82815481106108ad576108ad6133f7565b60009182526020808320909101546001600160a01b0316808352600d909152604090912087519192509082908890859081106108eb576108eb6133f7565b60200260200101906001600160a01b031690816001600160a01b0316815250508060000154868481518110610922576109226133f7565b60209081029190910101526001810154855160ff9091169086908590811061094c5761094c6133f7565b911515602092830291909101909101525050600101610890565b5050909192565b600c54600090815b818110156109d4576000600c8281548110610992576109926133f7565b600091825260208083206002909202909101546001600160a01b0316808352600a9091526040909120549091506109c9908561340d565b935050600101610975565b505090565b600c81815481106109e957600080fd5b6000918252602090912060029091020180546001909101546001600160a01b0391821692501682565b6107b3338284611d49565b336001600160a01b037f00000000000000000000000000000000000000000000000000000000000000001614610a8a57337f00000000000000000000000000000000000000000000000000000000000000006040516321afccb160e01b81526004016106ad929190612fe3565b6106bf8161255d565b610ac26040518060800160405280600081526020016000815260200160008152602001600061ffff1681525090565b5060408051608081018252600254815260035460208201526004549181019190915260055461ffff16606082015290565b336001600160a01b037f00000000000000000000000000000000000000000000000000000000000000001614610b6057337f00000000000000000000000000000000000000000000000000000000000000006040516321afccb160e01b81526004016106ad929190612fe3565b6107046125e7565b610b936040518060800160405280600081526020016000815260200160008152602001600081525090565b50604080516080810182526006548152600754602082015260085491810191909152600954606082015290565b336001600160a01b037f00000000000000000000000000000000000000000000000000000000000000001614610c2d57337f00000000000000000000000000000000000000000000000000000000000000006040516321afccb160e01b81526004016106ad929190612fe3565b610c35611a29565b610c3e8561255d565b610c47846114e3565b610c50836128a5565b8015610c8157610c817f00000000000000000000000000000000000000000000000000000000000000008383611d49565b5050505050565b336001600160a01b037f00000000000000000000000000000000000000000000000000000000000000001614610cf557337f00000000000000000000000000000000000000000000000000000000000000006040516321afccb160e01b81526004016106ad929190612fe3565b610c8185858585856128bf565b336001600160a01b037f00000000000000000000000000000000000000000000000000000000000000001614610d6f57337f00000000000000000000000000000000000000000000000000000000000000006040516321afccb160e01b81526004016106ad929190612fe3565b6106bf816128a5565b6000828211610d9e5782826040516376675ed960e11b81526004016106ad9291906130a8565b82600003610dcf576004610db36001866133e4565b610dbd9190613420565b610dc890600161340d565b9050610e02565b6000610ddb84846133e4565b905080610de96001876133e4565b610df39190613420565b610dfe90600161340d565b9150505b9392505050565b610e11612c79565b600c8281548110610e2457610e246133f7565b60009182526020918290206040805180820190915260029092020180546001600160a01b039081168352600190910154169181019190915292915050565b600e5460009081908190815b81811015610ee5576000600e8281548110610e8b57610e8b6133f7565b60009182526020808320909101546001600160a01b0316808352600d909152604090912060018101549192509060ff16610edb578054610ecb908761340d565b9550610ed860018661340d565b94505b5050600101610e6e565b50610f5a83610ef261096d565b610f1c907f00000000000000000000000000000000000000000000000000000000000000006133e4565b610f2691906133e4565b600c54610f3490859061340d565b7f0000000000000000000000000000000000000000000000000000000000000000610d78565b935050505090565b600c54600090610f725750600090565b600a6000600c600081548110610f8a57610f8a6133f7565b600091825260208083206002909202909101546001600160a01b03168352820192909252604001902054905090565b6000610fc88260006001610d78565b92915050565b600e54600090815b818110156109d4576000600e8281548110610ff357610ff36133f7565b60009182526020808320909101546001600160a01b0316808352600d909152604090912060018101549192509060ff16611036578054611033908661340d565b94505b5050600101610fd6565b336001600160a01b037f000000000000000000000000000000000000000000000000000000000000000016146110ad57337f00000000000000000000000000000000000000000000000000000000000000006040516321afccb160e01b81526004016106ad929190612fe3565b6003600f5460ff1660038111156110c6576110c6612ffd565b141580156110ea57506000600f5460ff1660038111156110e8576110e8612ffd565b145b1561110f57600f54604051632f3e69dd60e01b81526106ad9160ff1690600401613013565b6040516370a0823160e01b815281906000906001600160a01b038316906370a0823190611140903090600401613094565b602060405180830381865afa15801561115d573d6000803e3d6000fd5b505050506040513d601f19601f820116820180604052508101906111819190613442565b9050600081116111a6578260405163e932c57360e01b81526004016106ad9190613094565b6111da6001600160a01b0383167f0000000000000000000000000000000000000000000000000000000000000000836129da565b505050565b600e81815481106111ef57600080fd5b6000918252602090912001546001600160a01b0316905081565b336001600160a01b037f0000000000000000000000000000000000000000000000000000000000000000161461127657337f00000000000000000000000000000000000000000000000000000000000000006040516321afccb160e01b81526004016106ad929190612fe3565b610704611a29565b600c5460609081908190806001600160401b038111156112a0576112a0612d34565b6040519080825280602002602001820160405280156112c9578160200160208202803683370190505b509350806001600160401b038111156112e4576112e4612d34565b60405190808252806020026020018201604052801561130d578160200160208202803683370190505b509250806001600160401b0381111561132857611328612d34565b604051908082528060200260200182016040528015611351578160200160208202803683370190505b50915060005b81811015610966576000600c8281548110611374576113746133f7565b60009182526020909120600290910201805487519192506001600160a01b0316908790849081106113a7576113a76133f7565b6001600160a01b039283166020918202929092010152600182015486519116908690849081106113d9576113d96133f7565b60200260200101906001600160a01b031690816001600160a01b031681525050600a600087848151811061140f5761140f6133f7565b60200260200101516001600160a01b03166001600160a01b031681526020019081526020016000205484838151811061144a5761144a6133f7565b602090810291909101015250600101611357565b336001600160a01b037f000000000000000000000000000000000000000000000000000000000000000016146114cb57337f00000000000000000000000000000000000000000000000000000000000000006040516321afccb160e01b81526004016106ad929190612fe3565b6114da87878787878787612a32565b50505050505050565b6000600f5460ff1660038111156114fc576114fc612ffd565b1461152157600f546040516312ba63f960e11b81526106ad9160ff1690600401613013565b600e5460005b8181101561158057600d6000600e8381548110611546576115466133f7565b60009182526020808320909101546001600160a01b0316835282019290925260400181209081556001908101805460ff1916905501611527565b5061158d600e6000612c90565b5080517f0000000000000000000000000000000000000000000000000000000000000000907f000000000000000000000000000000000000000000000000000000000000000010156116175781517f0000000000000000000000000000000000000000000000000000000000000000604051630962235760e31b81526004016106ad9291906130a8565b815160005b818110156118a257806000036116cd577f00000000000000000000000000000000000000000000000000000000000000006001600160a01b0316848281518110611668576116686133f7565b6020026020010151600001516001600160a01b0316146116cd5760405163ef77b46760e01b8152600481018290526001600160a01b037f00000000000000000000000000000000000000000000000000000000000000001660248201526044016106ad565b60006001600160a01b03168482815181106116ea576116ea6133f7565b6020026020010151600001516001600160a01b0316036117205760405163621caef560e11b8152600481018290526024016106ad565b6000600d6000868481518110611738576117386133f7565b6020026020010151600001516001600160a01b03166001600160a01b031681526020019081526020016000209050806000015460001461178e576040516308308c2360e21b8152600481018390526024016106ad565b60006117bb85847f0000000000000000000000000000000000000000000000000000000000000000610d78565b905060008684815181106117d1576117d16133f7565b6020026020010151602001519050818110156118065783818360405163c4aa8aa360e01b81526004016106ad9392919061345b565b8086101561182d57838187604051636d3ae3a760e01b81526004016106ad9392919061345b565b61183781876133e4565b9550600e87858151811061184d5761184d6133f7565b6020908102919091018101515182546001808201855560009485529290932090920180546001600160a01b0319166001600160a01b0390931692909217909155908355918201805460ff19169055500161161c565b50505050565b6001600f5460ff1660038111156118c1576118c1612ffd565b141580156118e657506002600f5460ff1660038111156118e3576118e3612ffd565b14155b1561190b576002546040516310004b0160e11b815260048101919091526024016106ad565b60006119178383612aa3565b600c549091506000908190815b818110156119bd576000600c8281548110611941576119416133f7565b6000918252602090912060029091020180549091506001600160a01b03808a169116036119b45760018101546001600160a01b03808816911603611989575050505050505050565b600190810180546001600160a01b038881166001600160a01b031983161790925516945092506119bd565b50600101611924565b50816119de5785604051632fd768d360e11b81526004016106ad9190613094565b856001600160a01b03167f25639ce407c98fba722dddf1f023c8242e3c77732cfe4660d1c04930bf4cbe728486604051611a19929190612fe3565b60405180910390a2505050505050565b600c5460005b81811015611aec576000600c8281548110611a4c57611a4c6133f7565b600091825260208083206002909202909101546001600160a01b0316808352600a9091526040909120549091506003600f5460ff166003811115611a9257611a92612ffd565b14158015611aa05750600081115b15611ad957611ad96001600160a01b037f00000000000000000000000000000000000000000000000000000000000000001683836129da565b611ae282612ac1565b5050600101611a2f565b50611af9600c6000612cae565b600f805460ff191690556040805160008082526020820190925281611b40565b6040805180820190915260008082526020820152815260200190600190039081611b195790505b5090506107b3816114e3565b6001600160a01b0381166000908152600a602052604081205490819003611b7257919050565b611b7b82612ac1565b600c5460005b81811015611c9657600c8181548110611b9c57611b9c6133f7565b60009182526020909120600290910201546001600160a01b0390811690851603611c8e57600c611bcd6001846133e4565b81548110611bdd57611bdd6133f7565b9060005260206000209060020201600c8281548110611bfe57611bfe6133f7565b60009182526020909120825460029092020180546001600160a01b039283166001600160a01b0319918216178255600193840154939091018054939092169216919091179055600c805480611c5557611c55613471565b60008281526020902060026000199092019182020180546001600160a01b03199081168255600191909101805490911690559055611c96565b600101611b81565b506001600160a01b0383166000908152600d6020526040902060018101805460ff191690556003600f5460ff166003811115611cd457611cd4612ffd565b03611ce25760009250611d42565b611d166001600160a01b037f00000000000000000000000000000000000000000000000000000000000000001685856129da565b6002600f5460ff166003811115611d2f57611d2f612ffd565b03611d4257600f805460ff191660011790555b5050919050565b6000600f5460ff166003811115611d6257611d62612ffd565b14158015611d8757506001600f5460ff166003811115611d8457611d84612ffd565b14155b15611dac57600f54604051630295f95f60e51b81526106ad9160ff1690600401613013565b7f00000000000000000000000000000000000000000000000000000000000000006001600160a01b03166386fa50636040518163ffffffff1660e01b8152600401602060405180830381865afa158015611e0a573d6000803e3d6000fd5b505050506040513d601f19601f82011682018060405250810190611e2e9190613442565b7f000000000000000000000000000000000000000000000000000000000000000014611f12577f00000000000000000000000000000000000000000000000000000000000000007f00000000000000000000000000000000000000000000000000000000000000006001600160a01b03166386fa50636040518163ffffffff1660e01b8152600401602060405180830381865afa158015611ed3573d6000803e3d6000fd5b505050506040513d601f19601f82011682018060405250810190611ef79190613442565b604051631248081b60e31b81526004016106ad9291906130a8565b7f00000000000000000000000000000000000000000000000000000000000000006001600160a01b03166356d399e86040518163ffffffff1660e01b8152600401602060405180830381865afa158015611f70573d6000803e3d6000fd5b505050506040513d601f19601f82011682018060405250810190611f949190613442565b7f000000000000000000000000000000000000000000000000000000000000000014612039577f00000000000000000000000000000000000000000000000000000000000000007f00000000000000000000000000000000000000000000000000000000000000006001600160a01b03166356d399e86040518163ffffffff1660e01b8152600401602060405180830381865afa158015611ed3573d6000803e3d6000fd5b6000600f5460ff16600381111561205257612052612ffd565b03612145577f00000000000000000000000000000000000000000000000000000000000000006001600160a01b0316836001600160a01b0316146120cd57827f00000000000000000000000000000000000000000000000000000000000000006040516316a4ebc160e21b81526004016106ad929190612fe3565b600f805460ff1916600117905560025460055460405161ffff90911681526001600160a01b037f00000000000000000000000000000000000000000000000000000000000000001691907fe52a01bb4ffcc3baf2c5d17111d7d5b676a7485809eb10671092a89d2bb22ff69060200160405180910390a35b6001600160a01b0383166000908152600d602052604090208054158015906121725750600181015460ff16155b156121b257805482101561219d57805460405163454cd8e160e01b81526106ad9184916004016130a8565b6001818101805460ff19169091179055612207565b6001600160a01b0384166000908152600a60205260409020541580156121de57506121db610e62565b82105b1561220757816121ec610e62565b6040516310e45ff160e21b81526004016106ad9291906130a8565b6001600160a01b0384166000908152600a602052604081205490036122d85760006122328585612aa3565b604080518082019091526001600160a01b03808816825291821660208201908152600c8054600181018255600091909152915160029092027fdf6966c971051c3d54ec59162606531493a51404a002842f56009d7e5cf4a8c7810180549385166001600160a01b031994851617905590517fdf6966c971051c3d54ec59162606531493a51404a002842f56009d7e5cf4a8c89091018054919093169116179055506122e2565b6122e284846118a8565b6001600160a01b0384166000908152600a60205260408120805484929061230a90849061340d565b90915550506001600160a01b0384166000908152600b6020526040812042905561233261096d565b9050600061233e610fce565b90507f000000000000000000000000000000000000000000000000000000000000000061236b828461340d565b11156123b05781817f000000000000000000000000000000000000000000000000000000000000000060405163513b428b60e11b81526004016106ad9392919061345b565b600c547f00000000000000000000000000000000000000000000000000000000000000001015612415576040516315b5c3d560e21b81527f000000000000000000000000000000000000000000000000000000000000000060048201526024016106ad565b7f000000000000000000000000000000000000000000000000000000000000000082036124a2576002546040516001600160a01b037f00000000000000000000000000000000000000000000000000000000000000001691907f48996614f3380f3dcd5a2d2e6eaddfd66207ff3457fee339e09b4735bc9ec95890600090a3600f805460ff191660021790555b856001600160a01b03167fbdaa686eb6f59012d211a74523da260341c516896e9e5be954163d6ecf26ffa2856040516124dd91815260200190565b60405180910390a261251a6001600160a01b037f000000000000000000000000000000000000000000000000000000000000000016873087612ae8565b6002600f5460ff16600381111561253357612533612ffd565b1480156125485750600f54610100900460ff16155b15612555576125556125e7565b505050505050565b6000600f5460ff16600381111561257657612576612ffd565b1461259b57600f5460405163ad88fc8f60e01b81526106ad9160ff1690600401613013565b61271061ffff821611156125cf57604051624ae8fd60e41b815261ffff8216600482015261271060248201526044016106ad565b6005805461ffff191661ffff92909216919091179055565b6002600f5460ff16600381111561260057612600612ffd565b1461262557600f546040516383696f6f60e01b81526106ad9160ff1690600401613013565b600f805460ff191660031790556002546040517f839cf22e1ba87ce2f5b9bbf46cf0175a09eed52febdfaac8852478e68203c76390600090a2600c546000816001600160401b0381111561267b5761267b612d34565b6040519080825280602002602001820160405280156126b457816020015b6126a1612ccf565b8152602001906001900390816126995790505b50905060005b8281101561274f576000600c82815481106126d7576126d76133f7565b6000918252602080832060408051608081018252600290940290910180546001600160a01b03908116858401818152600184015490921660608701529085528552600a83529320549082015284519192509084908490811061273b5761273b6133f7565b6020908102919091010152506001016126ba565b5060405163095ea7b360e01b81526001600160a01b037f0000000000000000000000000000000000000000000000000000000000000000169063095ea7b3906127de907f0000000000000000000000000000000000000000000000000000000000000000907f000000000000000000000000000000000000000000000000000000000000000090600401613487565b6020604051808303816000875af11580156127fd573d6000803e3d6000fd5b505050506040513d601f19601f8201168201806040525081019061282191906134a0565b50604051632f1fbfb360e21b81526001600160a01b037f0000000000000000000000000000000000000000000000000000000000000000169063bc7efecc90612877906000906006906002908790600401613504565b600060405180830381600087803b15801561289157600080fd5b505af1158015612555573d6000803e3d6000fd5b600f80549115156101000261ff0019909216919091179055565b6000600f5460ff1660038111156128d8576128d8612ffd565b146128fd57600f54604051639a0293fd60e01b81526106ad9160ff1690600401613013565b60405160016226579360e01b031981526001600160a01b037f0000000000000000000000000000000000000000000000000000000000000000169063ffd9a86d9061297290889088907f000000000000000000000000000000000000000000000000000000000000000090899060040161357b565b600060405180830381600087803b15801561298c57600080fd5b505af11580156129a0573d6000803e3d6000fd5b5050865160005550506020948501516001558351600655938301516007556040830151600855606090920151600955600255600355600455565b6111da83846001600160a01b031663a9059cbb8585604051602401612a00929190613487565b604051602081830303815290604052915060e01b6020820180516001600160e01b038381831617835250505050612b21565b612a3a611a29565b612a5387878760000151886020015189604001516128bf565b612a60856060015161255d565b612a69846114e3565b612a72836128a5565b80156114da576114da7f00000000000000000000000000000000000000000000000000000000000000008383611d49565b60006001600160a01b03821615612aba5781610e02565b5090919050565b6001600160a01b03166000908152600a60209081526040808320839055600b909152812055565b6040516001600160a01b0384811660248301528381166044830152606482018390526118a29186918216906323b872dd90608401612a00565b6000612b366001600160a01b03841683612b7b565b90508051600014158015612b5b575080806020019051810190612b5991906134a0565b155b156111da5782604051635274afe760e01b81526004016106ad9190613094565b6060610e028383600084600080856001600160a01b03168486604051612ba191906135b6565b60006040518083038185875af1925050503d8060008114612bde576040519150601f19603f3d011682016040523d82523d6000602084013e612be3565b606091505b5091509150612bf3868383612bfd565b9695505050505050565b606082612c1257612c0d82612c50565b610e02565b8151158015612c2957506001600160a01b0384163b155b15612c495783604051639996b31560e01b81526004016106ad9190613094565b5080610e02565b805115612c605780518082602001fd5b604051630a12f52160e11b815260040160405180910390fd5b604080518082019091526000808252602082015290565b50805460008255906000526020600020908101906106bf9190612cef565b50805460008255600202906000526020600020908101906106bf9190612d08565b6040518060400160405280612ce2612c79565b8152602001600081525090565b5b80821115612d045760008155600101612cf0565b5090565b5b80821115612d045780546001600160a01b031990811682556001820180549091169055600201612d09565b634e487b7160e01b600052604160045260246000fd5b604080519081016001600160401b0381118282101715612d6c57612d6c612d34565b60405290565b604051608081016001600160401b0381118282101715612d6c57612d6c612d34565b604051601f8201601f191681016001600160401b0381118282101715612dbc57612dbc612d34565b604052919050565b80356001600160a01b0381168114612ddb57600080fd5b919050565b600082601f830112612df157600080fd5b81356001600160401b03811115612e0a57612e0a612d34565b612e1960208260051b01612d94565b8082825260208201915060208360061b860101925085831115612e3b57600080fd5b602085015b83811015612e855760408188031215612e5857600080fd5b612e60612d4a565b612e6982612dc4565b8152602082810135818301529084529290920191604001612e40565b5095945050505050565b600060208284031215612ea157600080fd5b81356001600160401b03811115612eb757600080fd5b612ec384828501612de0565b949350505050565b600060208284031215612edd57600080fd5b610e0282612dc4565b600081518084526020840193506020830160005b82811015612f215781516001600160a01b0316865260209586019590910190600101612efa565b5093949350505050565b600081518084526020840193506020830160005b82811015612f21578151865260209586019590910190600101612f3f565b606081526000612f706060830186612ee6565b8281036020840152612f828186612f2b565b83810360408501528451808252602080870193509091019060005b81811015612fbd5783511515835260209384019390920191600101612f9d565b5090979650505050505050565b600060208284031215612fdc57600080fd5b5035919050565b6001600160a01b0392831681529116602082015260400190565b634e487b7160e01b600052602160045260246000fd5b602081016004831061303557634e487b7160e01b600052602160045260246000fd5b91905290565b6000806040838503121561304e57600080fd5b8235915061305e60208401612dc4565b90509250929050565b803561ffff81168114612ddb57600080fd5b60006020828403121561308b57600080fd5b610e0282613067565b6001600160a01b0391909116815260200190565b918252602082015260400190565b805182526020810151602083015260408101516040830152606081015160608301525050565b60808101610fc882846130b6565b80151581146106bf57600080fd5b8035612ddb816130ea565b600080600080600060a0868803121561311b57600080fd5b61312486613067565b945060208601356001600160401b0381111561313f57600080fd5b61314b88828901612de0565b945050604086013561315c816130ea565b925061316a60608701612dc4565b949793965091946080013592915050565b60006040828403121561318d57600080fd5b613195612d4a565b823581526020928301359281019290925250919050565b6000608082840312156131be57600080fd5b6131c6612d72565b8235815260208084013590820152604080840135908201526060928301359281019290925250919050565b6000806000806000610120868803121561320a57600080fd5b613214878761317b565b945061322387604088016131ac565b949794965050505060c08301359260e081013592610100909101359150565b60006020828403121561325457600080fd5b8135610e02816130ea565b60008060006060848603121561327457600080fd5b505081359360208301359350604090920135919050565b80516001600160a01b03908116835260209182015116910152565b60408101610fc8828461328b565b6060815260006132c76060830186612ee6565b82810360208401526132d98186612ee6565b90508281036040840152612bf38185612f2b565b60008060008060008060008789036101c081121561330a57600080fd5b6133148a8a61317b565b97506133238a60408b016131ac565b9650608060bf198201121561333757600080fd5b50613340612d72565b60c0890135815260e0890135602082015261010089013560408201526133696101208a01613067565b606082015294506101408801356001600160401b0381111561338a57600080fd5b6133968a828b01612de0565b9450506133a661016089016130f8565b92506133b56101808901612dc4565b9699959850939692959194919350506101a09091013590565b634e487b7160e01b600052601160045260246000fd5b81810381811115610fc857610fc86133ce565b634e487b7160e01b600052603260045260246000fd5b80820180821115610fc857610fc86133ce565b60008261343d57634e487b7160e01b600052601260045260246000fd5b500490565b60006020828403121561345457600080fd5b5051919050565b9283526020830191909152604082015260600190565b634e487b7160e01b600052603160045260246000fd5b6001600160a01b03929092168252602082015260400190565b6000602082840312156134b257600080fd5b8151610e02816130ea565b600081518084526020840193506020830160005b82811015612f215781516134e687825161328b565b602090810151604088015260609096019591909101906001016134d1565b8454815260018501546020820152835460408201526001840154606082015260028401546080820152600384015460a0820152825460c0820152600183015460e0820152600283015461010082015261ffff6003840154166101208201526101606101408201526000612bf36101608301846134bd565b8451815260208086015190820152610100810161359b60408301866130b6565b6001600160a01b039390931660c082015260e0015292915050565b6000825160005b818110156135d757602081860181015185830152016135bd565b50600092019182525091905056fea164736f6c634300081a000a",
  "linkReferences": {},
  "deployedLinkReferences": {}
}