{
  "_format": "hh-sol-artifact-1",
  "contractName": "ServiceNodeRewards",
  "sourceName": "contracts/ServiceNodeRewards.sol",
  "abi": [
    {
      "inputs": [
        {
          "internalType": "address",
          "name": "target",
          "type": "address"
        }
      ],
      "name": "AddressEmptyCode",
      "type": "error"
    },
    {
      "inputs": [
        {
          "internalType": "address",
          "name": "account",
          "type": "address"
        }
      ],
      "name": "AddressInsufficientBalance",
      "type": "error"
    },
    {
      "inputs": [
        {
          "internalType": "uint64",
          "name": "serviceNodeID",
          "type": "uint64"
        }
      ],
      "name": "BLSPubkeyAlreadyExists",
      "type": "error"
    },
    {
      "inputs": [
        {
          "internalType": "uint64",
          "name": "serviceNodeID",
          "type": "uint64"
        },
        {
          "components": [
            {
              "internalType": "uint256",
              "name": "X",
              "type": "uint256"
            },
            {
              "internalType": "uint256",
              "name": "Y",
              "type": "uint256"
            }
          ],
          "internalType": "struct BN256G1.G1Point",
          "name": "pubkey",
          "type": "tuple"
        }
      ],
      "name": "BLSPubkeyDoesNotMatch",
      "type": "error"
    },
    {
      "inputs": [
        {
          "internalType": "uint64",
          "name": "serviceNodeID",
          "type": "uint64"
        },
        {
          "internalType": "address",
          "name": "contributor",
          "type": "address"
        }
      ],
      "name": "CallerNotContributor",
      "type": "error"
    },
    {
      "inputs": [],
      "name": "ClaimThresholdExceeded",
      "type": "error"
    },
    {
      "inputs": [],
      "name": "ContractAlreadyStarted",
      "type": "error"
    },
    {
      "inputs": [],
      "name": "ContractNotStarted",
      "type": "error"
    },
    {
      "inputs": [
        {
          "internalType": "uint256",
          "name": "required",
          "type": "uint256"
        },
        {
          "internalType": "uint256",
          "name": "provided",
          "type": "uint256"
        }
      ],
      "name": "ContributionTotalMismatch",
      "type": "error"
    },
    {
      "inputs": [],
      "name": "DeleteSentinelNodeNotAllowed",
      "type": "error"
    },
    {
      "inputs": [
        {
          "internalType": "uint64",
          "name": "serviceNodeID",
          "type": "uint64"
        }
      ],
      "name": "Ed25519PubkeyAlreadyExists",
      "type": "error"
    },
    {
      "inputs": [],
      "name": "EnforcedPause",
      "type": "error"
    },
    {
      "inputs": [],
      "name": "ExpectedPause",
      "type": "error"
    },
    {
      "inputs": [],
      "name": "FailedInnerCall",
      "type": "error"
    },
    {
      "inputs": [
        {
          "internalType": "address",
          "name": "operator",
          "type": "address"
        },
        {
          "internalType": "address",
          "name": "contributor",
          "type": "address"
        }
      ],
      "name": "FirstContributorMismatch",
      "type": "error"
    },
    {
      "inputs": [
        {
          "internalType": "uint256",
          "name": "numSigners",
          "type": "uint256"
        },
        {
          "internalType": "uint256",
          "name": "requiredSigners",
          "type": "uint256"
        }
      ],
      "name": "InsufficientBLSSignatures",
      "type": "error"
    },
    {
      "inputs": [],
      "name": "InsufficientContributors",
      "type": "error"
    },
    {
      "inputs": [],
      "name": "InsufficientNodes",
      "type": "error"
    },
    {
      "inputs": [],
      "name": "InvalidBLSProofOfPossession",
      "type": "error"
    },
    {
      "inputs": [
        {
          "components": [
            {
              "internalType": "uint256",
              "name": "X",
              "type": "uint256"
            },
            {
              "internalType": "uint256",
              "name": "Y",
              "type": "uint256"
            }
          ],
          "internalType": "struct BN256G1.G1Point",
          "name": "aggPubkey",
          "type": "tuple"
        }
      ],
      "name": "InvalidBLSSignature",
      "type": "error"
    },
    {
      "inputs": [],
      "name": "InvalidInitialization",
      "type": "error"
    },
    {
      "inputs": [
        {
          "internalType": "uint64",
          "name": "serviceNodeID",
          "type": "uint64"
        }
      ],
      "name": "LeaveRequestNotInitiatedYet",
      "type": "error"
    },
    {
      "inputs": [
        {
          "internalType": "uint64",
          "name": "serviceNodeID",
          "type": "uint64"
        },
        {
          "internalType": "uint256",
          "name": "endTimestamp",
          "type": "uint256"
        },
        {
          "internalType": "uint256",
          "name": "currTimestamp",
          "type": "uint256"
        }
      ],
      "name": "LeaveRequestTooEarly",
      "type": "error"
    },
    {
      "inputs": [
        {
          "internalType": "uint64",
          "name": "serviceNodeID",
          "type": "uint64"
        },
        {
          "internalType": "uint256",
          "name": "addedTimestamp",
          "type": "uint256"
        },
        {
          "internalType": "uint256",
          "name": "currenttime",
          "type": "uint256"
        }
      ],
      "name": "LiquidationTooEarly",
      "type": "error"
    },
    {
      "inputs": [],
      "name": "LiquidatorRewardsTooLow",
      "type": "error"
    },
    {
      "inputs": [],
      "name": "MaxClaimExceeded",
      "type": "error"
    },
    {
      "inputs": [],
      "name": "MaxContributorsExceeded",
      "type": "error"
    },
    {
      "inputs": [],
      "name": "MaxPubkeyAggregationsExceeded",
      "type": "error"
    },
    {
      "inputs": [],
      "name": "NotInitializing",
      "type": "error"
    },
    {
      "inputs": [],
      "name": "NullAddress",
      "type": "error"
    },
    {
      "inputs": [],
      "name": "NullBLSPubkey",
      "type": "error"
    },
    {
      "inputs": [],
      "name": "NullEd25519Pubkey",
      "type": "error"
    },
    {
      "inputs": [
        {
          "internalType": "address",
          "name": "owner",
          "type": "address"
        }
      ],
      "name": "OwnableInvalidOwner",
      "type": "error"
    },
    {
      "inputs": [
        {
          "internalType": "address",
          "name": "account",
          "type": "address"
        }
      ],
      "name": "OwnableUnauthorizedAccount",
      "type": "error"
    },
    {
      "inputs": [],
      "name": "PositiveNumberRequirement",
      "type": "error"
    },
    {
      "inputs": [
        {
          "internalType": "address",
          "name": "expectedRecipient",
          "type": "address"
        },
        {
          "internalType": "address",
          "name": "providedRecipient",
          "type": "address"
        },
        {
          "internalType": "uint256",
          "name": "serviceNodeID",
          "type": "uint256"
        }
      ],
      "name": "RecipientAddressDoesNotMatch",
      "type": "error"
    },
    {
      "inputs": [],
      "name": "RecipientRewardsTooLow",
      "type": "error"
    },
    {
      "inputs": [
        {
          "internalType": "address",
          "name": "token",
          "type": "address"
        }
      ],
      "name": "SafeERC20FailedOperation",
      "type": "error"
    },
    {
      "inputs": [
        {
          "internalType": "uint64",
          "name": "serviceNodeID",
          "type": "uint64"
        }
      ],
      "name": "ServiceNodeDoesntExist",
      "type": "error"
    },
    {
      "inputs": [
        {
          "internalType": "uint64",
          "name": "serviceNodeID",
          "type": "uint64"
        },
        {
          "internalType": "uint256",
          "name": "timestamp",
          "type": "uint256"
        },
        {
          "internalType": "uint256",
          "name": "currenttime",
          "type": "uint256"
        }
      ],
      "name": "SignatureExpired",
      "type": "error"
    },
    {
      "inputs": [
        {
          "internalType": "uint64",
          "name": "serviceNodeID",
          "type": "uint64"
        },
        {
          "internalType": "address",
          "name": "contributor",
          "type": "address"
        }
      ],
      "name": "SmallContributorLeaveTooEarly",
      "type": "error"
    },
    {
      "anonymous": false,
      "inputs": [
        {
          "indexed": false,
          "internalType": "uint256",
          "name": "newMax",
          "type": "uint256"
        }
      ],
      "name": "BLSNonSignerThresholdMaxUpdated",
      "type": "event"
    },
    {
      "anonymous": false,
      "inputs": [
        {
          "indexed": false,
          "internalType": "uint256",
          "name": "newValue",
          "type": "uint256"
        }
      ],
      "name": "ClaimCycleUpdated",
      "type": "event"
    },
    {
      "anonymous": false,
      "inputs": [
        {
          "indexed": false,
          "internalType": "uint256",
          "name": "newThreshold",
          "type": "uint256"
        }
      ],
      "name": "ClaimThresholdUpdated",
      "type": "event"
    },
    {
      "anonymous": false,
      "inputs": [
        {
          "indexed": false,
          "internalType": "uint64",
          "name": "version",
          "type": "uint64"
        }
      ],
      "name": "Initialized",
      "type": "event"
    },
    {
      "anonymous": false,
      "inputs": [
        {
          "indexed": false,
          "internalType": "uint256",
          "name": "newValue",
          "type": "uint256"
        }
      ],
      "name": "LiquidatorRewardRatioUpdated",
      "type": "event"
    },
    {
      "anonymous": false,
      "inputs": [
        {
          "indexed": true,
          "internalType": "uint64",
          "name": "serviceNodeID",
          "type": "uint64"
        },
        {
          "components": [
            {
              "internalType": "uint256",
              "name": "X",
              "type": "uint256"
            },
            {
              "internalType": "uint256",
              "name": "Y",
              "type": "uint256"
            }
          ],
          "indexed": false,
          "internalType": "struct BN256G1.G1Point",
          "name": "blsPubkey",
          "type": "tuple"
        },
        {
          "indexed": false,
          "internalType": "uint256",
          "name": "ed25519Pubkey",
          "type": "uint256"
        }
      ],
      "name": "NewSeededServiceNode",
      "type": "event"
    },
    {
      "anonymous": false,
      "inputs": [
        {
          "indexed": true,
          "internalType": "uint64",
          "name": "serviceNodeID",
          "type": "uint64"
        },
        {
          "indexed": false,
          "internalType": "address",
          "name": "initiator",
          "type": "address"
        },
        {
          "components": [
            {
              "internalType": "uint256",
              "name": "X",
              "type": "uint256"
            },
            {
              "internalType": "uint256",
              "name": "Y",
              "type": "uint256"
            }
          ],
          "indexed": false,
          "internalType": "struct BN256G1.G1Point",
          "name": "pubkey",
          "type": "tuple"
        },
        {
          "components": [
            {
              "internalType": "uint256",
              "name": "serviceNodePubkey",
              "type": "uint256"
            },
            {
              "internalType": "uint256",
              "name": "serviceNodeSignature1",
              "type": "uint256"
            },
            {
              "internalType": "uint256",
              "name": "serviceNodeSignature2",
              "type": "uint256"
            },
            {
              "internalType": "uint16",
              "name": "fee",
              "type": "uint16"
            }
          ],
          "indexed": false,
          "internalType": "struct IServiceNodeRewards.ServiceNodeParams",
          "name": "serviceNode",
          "type": "tuple"
        },
        {
          "components": [
            {
              "components": [
                {
                  "internalType": "address",
                  "name": "addr",
                  "type": "address"
                },
                {
                  "internalType": "address",
                  "name": "beneficiary",
                  "type": "address"
                }
              ],
              "internalType": "struct IServiceNodeRewards.Staker",
              "name": "staker",
              "type": "tuple"
            },
            {
              "internalType": "uint256",
              "name": "stakedAmount",
              "type": "uint256"
            }
          ],
          "indexed": false,
          "internalType": "struct IServiceNodeRewards.Contributor[]",
          "name": "contributors",
          "type": "tuple[]"
        }
      ],
      "name": "NewServiceNodeV2",
      "type": "event"
    },
    {
      "anonymous": false,
      "inputs": [
        {
          "indexed": true,
          "internalType": "address",
          "name": "previousOwner",
          "type": "address"
        },
        {
          "indexed": true,
          "internalType": "address",
          "name": "newOwner",
          "type": "address"
        }
      ],
      "name": "OwnershipTransferStarted",
      "type": "event"
    },
    {
      "anonymous": false,
      "inputs": [
        {
          "indexed": true,
          "internalType": "address",
          "name": "previousOwner",
          "type": "address"
        },
        {
          "indexed": true,
          "internalType": "address",
          "name": "newOwner",
          "type": "address"
        }
      ],
      "name": "OwnershipTransferred",
      "type": "event"
    },
    {
      "anonymous": false,
      "inputs": [
        {
          "indexed": false,
          "internalType": "address",
          "name": "account",
          "type": "address"
        }
      ],
      "name": "Paused",
      "type": "event"
    },
    {
      "anonymous": false,
      "inputs": [
        {
          "indexed": false,
          "internalType": "uint256",
          "name": "newValue",
          "type": "uint256"
        }
      ],
      "name": "PoolShareOfLiquidationRatioUpdated",
      "type": "event"
    },
    {
      "anonymous": false,
      "inputs": [
        {
          "indexed": false,
          "internalType": "uint256",
          "name": "newValue",
          "type": "uint256"
        }
      ],
      "name": "RecipientRatioUpdated",
      "type": "event"
    },
    {
      "anonymous": false,
      "inputs": [
        {
          "indexed": true,
          "internalType": "address",
          "name": "recipientAddress",
          "type": "address"
        },
        {
          "indexed": false,
          "internalType": "uint256",
          "name": "amount",
          "type": "uint256"
        },
        {
          "indexed": false,
          "internalType": "uint256",
          "name": "previousBalance",
          "type": "uint256"
        }
      ],
      "name": "RewardsBalanceUpdated",
      "type": "event"
    },
    {
      "anonymous": false,
      "inputs": [
        {
          "indexed": true,
          "internalType": "address",
          "name": "recipientAddress",
          "type": "address"
        },
        {
          "indexed": false,
          "internalType": "uint256",
          "name": "amount",
          "type": "uint256"
        }
      ],
      "name": "RewardsClaimed",
      "type": "event"
    },
    {
      "anonymous": false,
      "inputs": [
        {
          "indexed": true,
          "internalType": "uint64",
          "name": "serviceNodeID",
          "type": "uint64"
        },
        {
          "indexed": false,
          "internalType": "address",
          "name": "operator",
          "type": "address"
        },
        {
          "indexed": false,
          "internalType": "uint256",
          "name": "returnedAmount",
          "type": "uint256"
        },
        {
          "components": [
            {
              "internalType": "uint256",
              "name": "X",
              "type": "uint256"
            },
            {
              "internalType": "uint256",
              "name": "Y",
              "type": "uint256"
            }
          ],
          "indexed": false,
          "internalType": "struct BN256G1.G1Point",
          "name": "pubkey",
          "type": "tuple"
        }
      ],
      "name": "ServiceNodeExit",
      "type": "event"
    },
    {
      "anonymous": false,
      "inputs": [
        {
          "indexed": true,
          "internalType": "uint64",
          "name": "serviceNodeID",
          "type": "uint64"
        },
        {
          "indexed": false,
          "internalType": "address",
          "name": "contributor",
          "type": "address"
        },
        {
          "components": [
            {
              "internalType": "uint256",
              "name": "X",
              "type": "uint256"
            },
            {
              "internalType": "uint256",
              "name": "Y",
              "type": "uint256"
            }
          ],
          "indexed": false,
          "internalType": "struct BN256G1.G1Point",
          "name": "pubkey",
          "type": "tuple"
        }
      ],
      "name": "ServiceNodeExitRequest",
      "type": "event"
    },
    {
      "anonymous": false,
      "inputs": [
        {
          "indexed": true,
          "internalType": "uint64",
          "name": "serviceNodeID",
          "type": "uint64"
        },
        {
          "indexed": false,
          "internalType": "address",
          "name": "operator",
          "type": "address"
        },
        {
          "components": [
            {
              "internalType": "uint256",
              "name": "X",
              "type": "uint256"
            },
            {
              "internalType": "uint256",
              "name": "Y",
              "type": "uint256"
            }
          ],
          "indexed": false,
          "internalType": "struct BN256G1.G1Point",
          "name": "pubkey",
          "type": "tuple"
        }
      ],
      "name": "ServiceNodeLiquidated",
      "type": "event"
    },
    {
      "anonymous": false,
      "inputs": [
        {
          "indexed": false,
          "internalType": "uint256",
          "name": "newExpiry",
          "type": "uint256"
        }
      ],
      "name": "SignatureExpiryUpdated",
      "type": "event"
    },
    {
      "anonymous": false,
      "inputs": [
        {
          "indexed": false,
          "internalType": "uint256",
          "name": "newRequirement",
          "type": "uint256"
        }
      ],
      "name": "StakingRequirementUpdated",
      "type": "event"
    },
    {
      "anonymous": false,
      "inputs": [
        {
          "indexed": false,
          "internalType": "address",
          "name": "account",
          "type": "address"
        }
      ],
      "name": "Unpaused",
      "type": "event"
    },
    {
      "inputs": [],
      "name": "LIST_SENTINEL",
      "outputs": [
        {
          "internalType": "uint64",
          "name": "",
          "type": "uint64"
        }
      ],
      "stateMutability": "view",
      "type": "function"
    },
    {
      "inputs": [],
      "name": "MAX_PERMITTED_PUBKEY_AGGREGATIONS_LOWER_BOUND",
      "outputs": [
        {
          "internalType": "uint256",
          "name": "",
          "type": "uint256"
        }
      ],
      "stateMutability": "view",
      "type": "function"
    },
    {
      "inputs": [],
      "name": "MAX_SERVICE_NODE_EXIT_WAIT_TIME",
      "outputs": [
        {
          "internalType": "uint256",
          "name": "",
          "type": "uint256"
        }
      ],
      "stateMutability": "view",
      "type": "function"
    },
    {
      "inputs": [],
      "name": "MINIMUM_LIQUIDATION_AGE",
      "outputs": [
        {
          "internalType": "uint256",
          "name": "",
          "type": "uint256"
        }
      ],
      "stateMutability": "view",
      "type": "function"
    },
    {
      "inputs": [],
      "name": "MIN_TIME_BEFORE_REPEATED_LEAVE_REQUEST",
      "outputs": [
        {
          "internalType": "uint256",
          "name": "",
          "type": "uint256"
        }
      ],
      "stateMutability": "view",
      "type": "function"
    },
    {
      "inputs": [],
      "name": "SMALL_CONTRIBUTOR_DIVISOR",
      "outputs": [
        {
          "internalType": "uint256",
          "name": "",
          "type": "uint256"
        }
      ],
      "stateMutability": "view",
      "type": "function"
    },
    {
      "inputs": [],
      "name": "SMALL_CONTRIBUTOR_LEAVE_DELAY",
      "outputs": [
        {
          "internalType": "uint256",
          "name": "",
          "type": "uint256"
        }
      ],
      "stateMutability": "view",
      "type": "function"
    },
    {
      "inputs": [],
      "name": "acceptOwnership",
      "outputs": [],
      "stateMutability": "nonpayable",
      "type": "function"
    },
    {
      "inputs": [
        {
          "components": [
            {
              "internalType": "uint256",
              "name": "X",
              "type": "uint256"
            },
            {
              "internalType": "uint256",
              "name": "Y",
              "type": "uint256"
            }
          ],
          "internalType": "struct BN256G1.G1Point",
          "name": "blsPubkey",
          "type": "tuple"
        },
        {
          "components": [
            {
              "internalType": "uint256",
              "name": "sigs0",
              "type": "uint256"
            },
            {
              "internalType": "uint256",
              "name": "sigs1",
              "type": "uint256"
            },
            {
              "internalType": "uint256",
              "name": "sigs2",
              "type": "uint256"
            },
            {
              "internalType": "uint256",
              "name": "sigs3",
              "type": "uint256"
            }
          ],
          "internalType": "struct IServiceNodeRewards.BLSSignatureParams",
          "name": "blsSignature",
          "type": "tuple"
        },
        {
          "components": [
            {
              "internalType": "uint256",
              "name": "serviceNodePubkey",
              "type": "uint256"
            },
            {
              "internalType": "uint256",
              "name": "serviceNodeSignature1",
              "type": "uint256"
            },
            {
              "internalType": "uint256",
              "name": "serviceNodeSignature2",
              "type": "uint256"
            },
            {
              "internalType": "uint16",
              "name": "fee",
              "type": "uint16"
            }
          ],
          "internalType": "struct IServiceNodeRewards.ServiceNodeParams",
          "name": "serviceNodeParams",
          "type": "tuple"
        },
        {
          "components": [
            {
              "components": [
                {
                  "internalType": "address",
                  "name": "addr",
                  "type": "address"
                },
                {
                  "internalType": "address",
                  "name": "beneficiary",
                  "type": "address"
                }
              ],
              "internalType": "struct IServiceNodeRewards.Staker",
              "name": "staker",
              "type": "tuple"
            },
            {
              "internalType": "uint256",
              "name": "stakedAmount",
              "type": "uint256"
            }
          ],
          "internalType": "struct IServiceNodeRewards.Contributor[]",
          "name": "contributors",
          "type": "tuple[]"
        }
      ],
      "name": "addBLSPublicKey",
      "outputs": [],
      "stateMutability": "nonpayable",
      "type": "function"
    },
    {
      "inputs": [],
      "name": "aggregatePubkey",
      "outputs": [
        {
          "components": [
            {
              "internalType": "uint256",
              "name": "X",
              "type": "uint256"
            },
            {
              "internalType": "uint256",
              "name": "Y",
              "type": "uint256"
            }
          ],
          "internalType": "struct BN256G1.G1Point",
          "name": "",
          "type": "tuple"
        }
      ],
      "stateMutability": "view",
      "type": "function"
    },
    {
      "inputs": [],
      "name": "allServiceNodeIDs",
      "outputs": [
        {
          "internalType": "uint64[]",
          "name": "ids",
          "type": "uint64[]"
        },
        {
          "components": [
            {
              "internalType": "uint256",
              "name": "X",
              "type": "uint256"
            },
            {
              "internalType": "uint256",
              "name": "Y",
              "type": "uint256"
            }
          ],
          "internalType": "struct BN256G1.G1Point[]",
          "name": "pubkeys",
          "type": "tuple[]"
        }
      ],
      "stateMutability": "view",
      "type": "function"
    },
    {
      "inputs": [],
      "name": "blsNonSignerThreshold",
      "outputs": [
        {
          "internalType": "uint256",
          "name": "",
          "type": "uint256"
        }
      ],
      "stateMutability": "view",
      "type": "function"
    },
    {
      "inputs": [],
      "name": "blsNonSignerThresholdMax",
      "outputs": [
        {
          "internalType": "uint256",
          "name": "",
          "type": "uint256"
        }
      ],
      "stateMutability": "view",
      "type": "function"
    },
    {
      "inputs": [],
      "name": "claimCycle",
      "outputs": [
        {
          "internalType": "uint256",
          "name": "",
          "type": "uint256"
        }
      ],
      "stateMutability": "view",
      "type": "function"
    },
    {
      "inputs": [
        {
          "internalType": "uint256",
          "name": "amount",
          "type": "uint256"
        }
      ],
      "name": "claimRewards",
      "outputs": [],
      "stateMutability": "nonpayable",
      "type": "function"
    },
    {
      "inputs": [],
      "name": "claimRewards",
      "outputs": [],
      "stateMutability": "nonpayable",
      "type": "function"
    },
    {
      "inputs": [],
      "name": "claimThreshold",
      "outputs": [
        {
          "internalType": "uint256",
          "name": "",
          "type": "uint256"
        }
      ],
      "stateMutability": "view",
      "type": "function"
    },
    {
      "inputs": [],
      "name": "currentClaimCycle",
      "outputs": [
        {
          "internalType": "uint256",
          "name": "",
          "type": "uint256"
        }
      ],
      "stateMutability": "view",
      "type": "function"
    },
    {
      "inputs": [],
      "name": "currentClaimTotal",
      "outputs": [
        {
          "internalType": "uint256",
          "name": "",
          "type": "uint256"
        }
      ],
      "stateMutability": "view",
      "type": "function"
    },
    {
      "inputs": [],
      "name": "designatedToken",
      "outputs": [
        {
          "internalType": "contract IERC20",
          "name": "",
          "type": "address"
        }
      ],
      "stateMutability": "view",
      "type": "function"
    },
    {
      "inputs": [
        {
          "internalType": "uint256",
          "name": "ed25519Pubkey",
          "type": "uint256"
        }
      ],
      "name": "ed25519ToServiceNodeID",
      "outputs": [
        {
          "internalType": "uint64",
          "name": "serviceNodeID",
          "type": "uint64"
        }
      ],
      "stateMutability": "view",
      "type": "function"
    },
    {
      "inputs": [
        {
          "internalType": "uint64",
          "name": "serviceNodeID",
          "type": "uint64"
        }
      ],
      "name": "exitBLSPublicKeyAfterWaitTime",
      "outputs": [],
      "stateMutability": "nonpayable",
      "type": "function"
    },
    {
      "inputs": [
        {
          "components": [
            {
              "internalType": "uint256",
              "name": "X",
              "type": "uint256"
            },
            {
              "internalType": "uint256",
              "name": "Y",
              "type": "uint256"
            }
          ],
          "internalType": "struct BN256G1.G1Point",
          "name": "blsPubkey",
          "type": "tuple"
        },
        {
          "internalType": "uint256",
          "name": "timestamp",
          "type": "uint256"
        },
        {
          "components": [
            {
              "internalType": "uint256",
              "name": "sigs0",
              "type": "uint256"
            },
            {
              "internalType": "uint256",
              "name": "sigs1",
              "type": "uint256"
            },
            {
              "internalType": "uint256",
              "name": "sigs2",
              "type": "uint256"
            },
            {
              "internalType": "uint256",
              "name": "sigs3",
              "type": "uint256"
            }
          ],
          "internalType": "struct IServiceNodeRewards.BLSSignatureParams",
          "name": "blsSignature",
          "type": "tuple"
        },
        {
          "internalType": "uint64[]",
          "name": "ids",
          "type": "uint64[]"
        }
      ],
      "name": "exitBLSPublicKeyWithSignature",
      "outputs": [],
      "stateMutability": "nonpayable",
      "type": "function"
    },
    {
      "inputs": [],
      "name": "exitTag",
      "outputs": [
        {
          "internalType": "bytes32",
          "name": "",
          "type": "bytes32"
        }
      ],
      "stateMutability": "view",
      "type": "function"
    },
    {
      "inputs": [],
      "name": "foundationPool",
      "outputs": [
        {
          "internalType": "contract IERC20",
          "name": "",
          "type": "address"
        }
      ],
      "stateMutability": "view",
      "type": "function"
    },
    {
      "inputs": [],
      "name": "hashToG2Tag",
      "outputs": [
        {
          "internalType": "bytes32",
          "name": "",
          "type": "bytes32"
        }
      ],
      "stateMutability": "view",
      "type": "function"
    },
    {
      "inputs": [
        {
          "internalType": "address",
          "name": "token_",
          "type": "address"
        },
        {
          "internalType": "address",
          "name": "foundationPool_",
          "type": "address"
        },
        {
          "internalType": "uint256",
          "name": "stakingRequirement_",
          "type": "uint256"
        },
        {
          "internalType": "uint256",
          "name": "maxContributors_",
          "type": "uint256"
        },
        {
          "internalType": "uint256",
          "name": "liquidatorRewardRatio_",
          "type": "uint256"
        },
        {
          "internalType": "uint256",
          "name": "poolShareOfLiquidationRatio_",
          "type": "uint256"
        },
        {
          "internalType": "uint256",
          "name": "recipientRatio_",
          "type": "uint256"
        }
      ],
      "name": "initialize",
      "outputs": [],
      "stateMutability": "nonpayable",
      "type": "function"
    },
    {
      "inputs": [
        {
          "internalType": "uint64",
          "name": "serviceNodeID",
          "type": "uint64"
        }
      ],
      "name": "initiateExitBLSPublicKey",
      "outputs": [],
      "stateMutability": "nonpayable",
      "type": "function"
    },
    {
      "inputs": [],
      "name": "isStarted",
      "outputs": [
        {
          "internalType": "bool",
          "name": "",
          "type": "bool"
        }
      ],
      "stateMutability": "view",
      "type": "function"
    },
    {
      "inputs": [],
      "name": "lastHeightPubkeyWasAggregated",
      "outputs": [
        {
          "internalType": "uint256",
          "name": "",
          "type": "uint256"
        }
      ],
      "stateMutability": "view",
      "type": "function"
    },
    {
      "inputs": [
        {
          "components": [
            {
              "internalType": "uint256",
              "name": "X",
              "type": "uint256"
            },
            {
              "internalType": "uint256",
              "name": "Y",
              "type": "uint256"
            }
          ],
          "internalType": "struct BN256G1.G1Point",
          "name": "blsPubkey",
          "type": "tuple"
        },
        {
          "internalType": "uint256",
          "name": "timestamp",
          "type": "uint256"
        },
        {
          "components": [
            {
              "internalType": "uint256",
              "name": "sigs0",
              "type": "uint256"
            },
            {
              "internalType": "uint256",
              "name": "sigs1",
              "type": "uint256"
            },
            {
              "internalType": "uint256",
              "name": "sigs2",
              "type": "uint256"
            },
            {
              "internalType": "uint256",
              "name": "sigs3",
              "type": "uint256"
            }
          ],
          "internalType": "struct IServiceNodeRewards.BLSSignatureParams",
          "name": "blsSignature",
          "type": "tuple"
        },
        {
          "internalType": "uint64[]",
          "name": "ids",
          "type": "uint64[]"
        }
      ],
      "name": "liquidateBLSPublicKeyWithSignature",
      "outputs": [],
      "stateMutability": "nonpayable",
      "type": "function"
    },
    {
      "inputs": [],
      "name": "liquidateTag",
      "outputs": [
        {
          "internalType": "bytes32",
          "name": "",
          "type": "bytes32"
        }
      ],
      "stateMutability": "view",
      "type": "function"
    },
    {
      "inputs": [],
      "name": "liquidatorRewardRatio",
      "outputs": [
        {
          "internalType": "uint256",
          "name": "",
          "type": "uint256"
        }
      ],
      "stateMutability": "view",
      "type": "function"
    },
    {
      "inputs": [],
      "name": "maxContributors",
      "outputs": [
        {
          "internalType": "uint256",
          "name": "",
          "type": "uint256"
        }
      ],
      "stateMutability": "view",
      "type": "function"
    },
    {
      "inputs": [],
      "name": "maxPermittedPubkeyAggregations",
      "outputs": [
        {
          "internalType": "uint256",
          "name": "result",
          "type": "uint256"
        }
      ],
      "stateMutability": "view",
      "type": "function"
    },
    {
      "inputs": [],
      "name": "nextServiceNodeID",
      "outputs": [
        {
          "internalType": "uint64",
          "name": "",
          "type": "uint64"
        }
      ],
      "stateMutability": "view",
      "type": "function"
    },
    {
      "inputs": [],
      "name": "numPubkeyAggregationsForHeight",
      "outputs": [
        {
          "internalType": "uint256",
          "name": "",
          "type": "uint256"
        }
      ],
      "stateMutability": "view",
      "type": "function"
    },
    {
      "inputs": [],
      "name": "owner",
      "outputs": [
        {
          "internalType": "address",
          "name": "",
          "type": "address"
        }
      ],
      "stateMutability": "view",
      "type": "function"
    },
    {
      "inputs": [],
      "name": "pause",
      "outputs": [],
      "stateMutability": "nonpayable",
      "type": "function"
    },
    {
      "inputs": [],
      "name": "paused",
      "outputs": [
        {
          "internalType": "bool",
          "name": "",
          "type": "bool"
        }
      ],
      "stateMutability": "view",
      "type": "function"
    },
    {
      "inputs": [],
      "name": "pendingOwner",
      "outputs": [
        {
          "internalType": "address",
          "name": "",
          "type": "address"
        }
      ],
      "stateMutability": "view",
      "type": "function"
    },
    {
      "inputs": [],
      "name": "poolShareOfLiquidationRatio",
      "outputs": [
        {
          "internalType": "uint256",
          "name": "",
          "type": "uint256"
        }
      ],
      "stateMutability": "view",
      "type": "function"
    },
    {
      "inputs": [],
      "name": "proofOfPossessionTag",
      "outputs": [
        {
          "internalType": "bytes32",
          "name": "",
          "type": "bytes32"
        }
      ],
      "stateMutability": "view",
      "type": "function"
    },
    {
      "inputs": [],
      "name": "recipientRatio",
      "outputs": [
        {
          "internalType": "uint256",
          "name": "",
          "type": "uint256"
        }
      ],
      "stateMutability": "view",
      "type": "function"
    },
    {
      "inputs": [
        {
          "internalType": "address",
          "name": "",
          "type": "address"
        }
      ],
      "name": "recipients",
      "outputs": [
        {
          "internalType": "uint256",
          "name": "rewards",
          "type": "uint256"
        },
        {
          "internalType": "uint256",
          "name": "claimed",
          "type": "uint256"
        }
      ],
      "stateMutability": "view",
      "type": "function"
    },
    {
      "inputs": [],
      "name": "rederiveTotalNodesAndAggregatePubkey",
      "outputs": [],
      "stateMutability": "nonpayable",
      "type": "function"
    },
    {
      "inputs": [],
      "name": "renounceOwnership",
      "outputs": [],
      "stateMutability": "nonpayable",
      "type": "function"
    },
    {
      "inputs": [],
      "name": "rewardTag",
      "outputs": [
        {
          "internalType": "bytes32",
          "name": "",
          "type": "bytes32"
        }
      ],
      "stateMutability": "view",
      "type": "function"
    },
    {
      "inputs": [
        {
          "components": [
            {
              "components": [
                {
                  "internalType": "uint256",
                  "name": "X",
                  "type": "uint256"
                },
                {
                  "internalType": "uint256",
                  "name": "Y",
                  "type": "uint256"
                }
              ],
              "internalType": "struct BN256G1.G1Point",
              "name": "blsPubkey",
              "type": "tuple"
            },
            {
              "internalType": "uint256",
              "name": "ed25519Pubkey",
              "type": "uint256"
            },
            {
              "components": [
                {
                  "components": [
                    {
                      "internalType": "address",
                      "name": "addr",
                      "type": "address"
                    },
                    {
                      "internalType": "address",
                      "name": "beneficiary",
                      "type": "address"
                    }
                  ],
                  "internalType": "struct IServiceNodeRewards.Staker",
                  "name": "staker",
                  "type": "tuple"
                },
                {
                  "internalType": "uint256",
                  "name": "stakedAmount",
                  "type": "uint256"
                }
              ],
              "internalType": "struct IServiceNodeRewards.Contributor[]",
              "name": "contributors",
              "type": "tuple[]"
            }
          ],
          "internalType": "struct IServiceNodeRewards.SeedServiceNode[]",
          "name": "nodes",
          "type": "tuple[]"
        }
      ],
      "name": "seedPublicKeyList",
      "outputs": [],
      "stateMutability": "nonpayable",
      "type": "function"
    },
    {
      "inputs": [
        {
          "internalType": "bytes",
          "name": "blsPubkey",
          "type": "bytes"
        }
      ],
      "name": "serviceNodeIDs",
      "outputs": [
        {
          "internalType": "uint64",
          "name": "serviceNodeID",
          "type": "uint64"
        }
      ],
      "stateMutability": "view",
      "type": "function"
    },
    {
      "inputs": [
        {
          "internalType": "uint64",
          "name": "serviceNodeID",
          "type": "uint64"
        }
      ],
      "name": "serviceNodes",
      "outputs": [
        {
          "components": [
            {
              "internalType": "uint64",
              "name": "next",
              "type": "uint64"
            },
            {
              "internalType": "uint64",
              "name": "prev",
              "type": "uint64"
            },
            {
              "internalType": "address",
              "name": "operator",
              "type": "address"
            },
            {
              "components": [
                {
                  "internalType": "uint256",
                  "name": "X",
                  "type": "uint256"
                },
                {
                  "internalType": "uint256",
                  "name": "Y",
                  "type": "uint256"
                }
              ],
              "internalType": "struct BN256G1.G1Point",
              "name": "blsPubkey",
              "type": "tuple"
            },
            {
              "internalType": "uint256",
              "name": "addedTimestamp",
              "type": "uint256"
            },
            {
              "internalType": "uint256",
              "name": "leaveRequestTimestamp",
              "type": "uint256"
            },
            {
              "internalType": "uint256",
              "name": "latestLeaveRequestTimestamp",
              "type": "uint256"
            },
            {
              "internalType": "uint256",
              "name": "deposit",
              "type": "uint256"
            },
            {
              "components": [
                {
                  "components": [
                    {
                      "internalType": "address",
                      "name": "addr",
                      "type": "address"
                    },
                    {
                      "internalType": "address",
                      "name": "beneficiary",
                      "type": "address"
                    }
                  ],
                  "internalType": "struct IServiceNodeRewards.Staker",
                  "name": "staker",
                  "type": "tuple"
                },
                {
                  "internalType": "uint256",
                  "name": "stakedAmount",
                  "type": "uint256"
                }
              ],
              "internalType": "struct IServiceNodeRewards.Contributor[]",
              "name": "contributors",
              "type": "tuple[]"
            },
            {
              "internalType": "uint256",
              "name": "ed25519Pubkey",
              "type": "uint256"
            }
          ],
          "internalType": "struct IServiceNodeRewards.ServiceNode",
          "name": "",
          "type": "tuple"
        }
      ],
      "stateMutability": "view",
      "type": "function"
    },
    {
      "inputs": [
        {
          "internalType": "uint256",
          "name": "newMax",
          "type": "uint256"
        }
      ],
      "name": "setBLSNonSignerThresholdMax",
      "outputs": [],
      "stateMutability": "nonpayable",
      "type": "function"
    },
    {
      "inputs": [
        {
          "internalType": "uint256",
          "name": "newValue",
          "type": "uint256"
        }
      ],
      "name": "setClaimCycle",
      "outputs": [],
      "stateMutability": "nonpayable",
      "type": "function"
    },
    {
      "inputs": [
        {
          "internalType": "uint256",
          "name": "newMax",
          "type": "uint256"
        }
      ],
      "name": "setClaimThreshold",
      "outputs": [],
      "stateMutability": "nonpayable",
      "type": "function"
    },
    {
      "inputs": [
        {
          "internalType": "uint256",
          "name": "newValue",
          "type": "uint256"
        }
      ],
      "name": "setLiquidatorRewardRatio",
      "outputs": [],
      "stateMutability": "nonpayable",
      "type": "function"
    },
    {
      "inputs": [
        {
          "internalType": "uint256",
          "name": "newValue",
          "type": "uint256"
        }
      ],
      "name": "setPoolShareOfLiquidationRatio",
      "outputs": [],
      "stateMutability": "nonpayable",
      "type": "function"
    },
    {
      "inputs": [
        {
          "internalType": "uint256",
          "name": "newValue",
          "type": "uint256"
        }
      ],
      "name": "setRecipientRatio",
      "outputs": [],
      "stateMutability": "nonpayable",
      "type": "function"
    },
    {
      "inputs": [
        {
          "internalType": "uint256",
          "name": "newExpiry",
          "type": "uint256"
        }
      ],
      "name": "setSignatureExpiry",
      "outputs": [],
      "stateMutability": "nonpayable",
      "type": "function"
    },
    {
      "inputs": [
        {
          "internalType": "uint256",
          "name": "newRequirement",
          "type": "uint256"
        }
      ],
      "name": "setStakingRequirement",
      "outputs": [],
      "stateMutability": "nonpayable",
      "type": "function"
    },
    {
      "inputs": [],
      "name": "signatureExpiry",
      "outputs": [
        {
          "internalType": "uint256",
          "name": "",
          "type": "uint256"
        }
      ],
      "stateMutability": "view",
      "type": "function"
    },
    {
      "inputs": [],
      "name": "stakingRequirement",
      "outputs": [
        {
          "internalType": "uint256",
          "name": "",
          "type": "uint256"
        }
      ],
      "stateMutability": "view",
      "type": "function"
    },
    {
      "inputs": [],
      "name": "start",
      "outputs": [],
      "stateMutability": "nonpayable",
      "type": "function"
    },
    {
      "inputs": [],
      "name": "totalNodes",
      "outputs": [
        {
          "internalType": "uint256",
          "name": "",
          "type": "uint256"
        }
      ],
      "stateMutability": "view",
      "type": "function"
    },
    {
      "inputs": [
        {
          "internalType": "address",
          "name": "newOwner",
          "type": "address"
        }
      ],
      "name": "transferOwnership",
      "outputs": [],
      "stateMutability": "nonpayable",
      "type": "function"
    },
    {
      "inputs": [],
      "name": "unpause",
      "outputs": [],
      "stateMutability": "nonpayable",
      "type": "function"
    },
    {
      "inputs": [
        {
          "internalType": "address",
          "name": "recipientAddress",
          "type": "address"
        },
        {
          "internalType": "uint256",
          "name": "recipientRewards",
          "type": "uint256"
        },
        {
          "components": [
            {
              "internalType": "uint256",
              "name": "sigs0",
              "type": "uint256"
            },
            {
              "internalType": "uint256",
              "name": "sigs1",
              "type": "uint256"
            },
            {
              "internalType": "uint256",
              "name": "sigs2",
              "type": "uint256"
            },
            {
              "internalType": "uint256",
              "name": "sigs3",
              "type": "uint256"
            }
          ],
          "internalType": "struct IServiceNodeRewards.BLSSignatureParams",
          "name": "blsSignature",
          "type": "tuple"
        },
        {
          "internalType": "uint64[]",
          "name": "ids",
          "type": "uint64[]"
        }
      ],
      "name": "updateRewardsBalance",
      "outputs": [],
      "stateMutability": "nonpayable",
      "type": "function"
    },
    {
      "inputs": [
        {
          "components": [
            {
              "internalType": "uint256",
              "name": "X",
              "type": "uint256"
            },
            {
              "internalType": "uint256",
              "name": "Y",
              "type": "uint256"
            }
          ],
          "internalType": "struct BN256G1.G1Point",
          "name": "blsPubkey",
          "type": "tuple"
        },
        {
          "components": [
            {
              "internalType": "uint256",
              "name": "sigs0",
              "type": "uint256"
            },
            {
              "internalType": "uint256",
              "name": "sigs1",
              "type": "uint256"
            },
            {
              "internalType": "uint256",
              "name": "sigs2",
              "type": "uint256"
            },
            {
              "internalType": "uint256",
              "name": "sigs3",
              "type": "uint256"
            }
          ],
          "internalType": "struct IServiceNodeRewards.BLSSignatureParams",
          "name": "blsSignature",
          "type": "tuple"
        },
        {
          "internalType": "address",
          "name": "caller",
          "type": "address"
        },
        {
          "internalType": "uint256",
          "name": "serviceNodePubkey",
          "type": "uint256"
        }
      ],
      "name": "validateProofOfPossession",
      "outputs": [],
      "stateMutability": "nonpayable",
      "type": "function"
    }
  ],
  "bytecode": "0x6080604052348015600f57600080fd5b506158fd8061001f6000396000f3fe608060405234801561001057600080fd5b50600436106103015760003560e01c8063040f985314610306578063095f14041461032f5780630962ef79146103465780630bd1b4191461035b5780630caca63b1461036457806317f33a7d146103775780631f744b541461039e578063245fc183146103a657806334fde376146103b9578063372500ab146103c15780633f4ba83a146103c957806343039d90146103d1578063538d2709146103e4578063544736e6146103ed57806356d399e81461040a57806358e93308146104135780635c975abb1461041c578063623b94221461042457806362f1fbc21461042d57806365ca819d146104375780636b348ab41461046b578063715018a61461047457806379ba50971461047c5780637a6d4065146104845780637c89d2f0146104975780638328b610146104bc5780638456cb59146104cf57806384cd9b57146104d757806386e76685146104ea57806386fa5063146104f3578063879d0f0c146104fc5780638a2209e6146105045780638a399481146105195780638da5cb5b146105225780639156ac801461052a57806395055ffd146105335780639592d424146105465780639c80ebee1461054f5780639cebc4741461042d5780639e3b372d14610557578063a44285a514610560578063ab0122ae14610569578063abf2c5031461057c578063ae6c606314610592578063b13aaebd1461059b578063b687f85c146105a4578063bc7efecc146105ac578063be9a6555146105bf578063c0ebedab146105c7578063c4f56d9a146105f0578063d5a8125414610603578063d5ca793f1461060c578063d655422f1461061f578063d84f0bf814610632578063d9054b091461063b578063d995b00c1461064e578063da1d543514610657578063dd644d7414610660578063e30c397814610669578063eb82031214610671578063edbf4ac2146106a6578063ee94e412146106b9578063f2fde38b146106c2578063f324c8eb146106d5578063f88d658b146106e8578063f907f5fc146106fb578063ffd9a86d1461070e575b600080fd5b610319610314366004614c39565b610721565b6040516103269190614cce565b60405180910390f35b610338600d5481565b604051908152602001610326565b610359610354366004614d8c565b610852565b005b610338600f5481565b610359610372366004614d8c565b61085f565b60015461039190600160a01b90046001600160401b031681565b6040516103269190614da5565b6103596108c4565b6103596103b4366004614d8c565b610994565b6103386109f2565b610359610a29565b610359610a5c565b6103596103df366004614d8c565b610a6e565b61033860075481565b6000546103fa9060ff1681565b6040519015158152602001610326565b610338600b5481565b610338600e5481565b6103fa610acc565b61033860155481565b61033862278d0081565b610391610445366004614e49565b80516020818301810180516012825292820191909301209152546001600160401b031681565b610338600a5481565b610359610ae1565b610359610af3565b610359610492366004614f9f565b610b38565b6000546104af9061010090046001600160a01b031681565b6040516103269190615009565b6103596104ca366004614d8c565b610cd6565b610359610d33565b6103596104e5366004614d8c565b610d43565b61033860045481565b610338600c5481565b610338601481565b61050c610da1565b604051610326919061501d565b61033860035481565b6104af610dc4565b61033860195481565b61035961054136600461502b565b610ddf565b61033860025481565b610391600081565b61033860095481565b61033860175481565b610359610577366004614c39565b610f8c565b610584611055565b604051610326929190615084565b61033860065481565b61033860185481565b610338600481565b6103596105ba36600461524e565b6111e0565b610359611509565b6103916105d5366004614d8c565b601b602052600090815260409020546001600160401b031681565b6103596105fe36600461502b565b611520565b61033860055481565b61035961061a3660046152fb565b611923565b61035961062d366004614d8c565b611bb6565b61033860085481565b610359610649366004614c39565b611bf3565b610338611c2081565b61033860165481565b610338601a5481565b6104af611c05565b61069861067f366004615370565b6011602052600090815260409020805460019091015482565b60405161032692919061538d565b6103596106b436600461539b565b611c10565b610338610e1081565b6103596106d0366004615370565b611f6a565b6103596106e3366004614d8c565b611fdb565b6103596106f6366004614d8c565b612039565b6001546104af906001600160a01b031681565b61035961071c3660046153fd565b612097565b610729614ab4565b6001600160401b03808316600090815260106020908152604080832081516101408101835281548087168252600160401b90049095168584015260018101546001600160a01b0316858301528151808301835260028201548152600382015481850152606086015260048101546080860152600581015460a0860152600681015460c0860152600781015460e0860152600881018054835181860281018601909452808452919461010087019491929184015b82821015610839576000848152602090819020604080516080810182526003860290920180546001600160a01b039081169284019283526001808301549091166060850152918352600201548284015290835290920191016107dc565b5050505081526020016009820154815250509050919050565b61085c33826120a9565b50565b6108676121ec565b6000811161088857604051630ef6cf4560e41b815260040160405180910390fd5b600f8190556040518181527f20d448c79534efb2c0adc259142770a7979eea09d1e5850fc1b02403337e11a8906020015b60405180910390a150565b6000600281905580526010602052600080516020615890833981519152546001600160401b03165b6001600160401b0381161561085c576001600160401b0381166000908152601060205260408120600254909103610932576002810154601355600381015460145561097a565b604080518082018252601354815260145460208083019190915282518084019093526002840154835260038401549083015261096d9161221e565b8051601355602001516014555b546002805460010190556001600160401b031690506108ec565b61099c6121ec565b600081116109bd57604051630ef6cf4560e41b815260040160405180910390fd5b60188190556040518181527fa83e79dc52a438d552d0631ce4fbfe7dec7656d10398a2849f352a6ab4f0163b906020016108b9565b60008060646002546002610a069190615463565b610a109190615490565b905060148111610a21576014610a23565b805b91505090565b336000908152601160205260408120600181015490549091610a4b83836154a4565b9050610a5733826120a9565b505050565b610a646121ec565b610a6c6122ca565b565b610a766121ec565b60008111610a9757604051630ef6cf4560e41b815260040160405180910390fd5b60048190556040518181527f0ac8ee09138dfaf5e3ebe4cb4fd42dd1a0695535a530171223fb5066f52e0e3b906020016108b9565b600080610ad7612316565b5460ff1692915050565b610ae96121ec565b610a6c600061233a565b3380610afd611c05565b6001600160a01b031614610b2f578060405163118cdaa760e01b8152600401610b269190615009565b60405180910390fd5b61085c8161233a565b610b40612361565b60005460ff16610b635760405163348b55eb60e21b815260040160405180910390fd5b8051600354811115610ba85780600254610b7d91906154a4565b600354600254610b8d91906154a4565b604051635eee4a3560e01b8152600401610b2692919061538d565b6001600160a01b038516610bcf5760405163e99d5ac560e01b815260040160405180910390fd5b6001600160a01b0385166000908152601160205260409020548411610c07576040516333938e6360e01b815260040160405180910390fd5b6007546040805160208101929092526001600160601b0319606088901b16908201526054810185905260009060740160405160208183030381529060405290506000610c5582600a54612387565b9050610c7084610c6a368890038801886154b7565b83612447565b50506001600160a01b0385166000818152601160205260409081902080549087905590519091907f95390641529563dbfb446535fa996c5ac3be00f90f5705b3abda59a4467b797f90610cc6908890859061538d565b60405180910390a2505050505050565b610cde6121ec565b60008111610cff57604051630ef6cf4560e41b815260040160405180910390fd5b600b8190556040518181527e6b7a1ea14ff2794527a64af37d55a2040e351f8b4c1adcdc9aea80d64e0429906020016108b9565b610d3b6121ec565b610a6c612580565b610d4b6121ec565b60008111610d6c576040516352513c5960e01b815260040160405180910390fd5b600d8190556040518181527f7c6ad2fef3b5f9e109dad55b811c13b9c880062367b00074d9286d7e7300b35f906020016108b9565b610da9614b0e565b50604080518082019091526013548152601454602082015290565b600080610dcf6125c7565b546001600160a01b031692915050565b610de7612361565b60005460ff16610e0a5760405163348b55eb60e21b815260040160405180910390fd5b8051600354811115610e245780600254610b7d91906154a4565b6000610e3d610e38368890038801886154d3565b6125eb565b90506000601282604051610e519190615513565b908152604051908190036020019020546001600160401b03169050610e7586612614565b15610e99578086426040516337030b8b60e01b8152600401610b269392919061552f565b6001600160401b0381166000908152601060205260409020600201548735141580610ee557506001600160401b0381166000908152601060209081526040909120600301549088013514155b15610f0757808760405163c43283b560e01b8152600401610b26929190615550565b600854604051600091610f26918a35906020808d0135918c9101615577565b60405160208183030381529060405290506000610f4582600a54612387565b9050610f5a86610c6a368a90038a018a6154b7565b50506001600160401b038116600090815260106020526040902060070154610f8390829061262c565b50505050505050565b610f94612361565b60005460ff16610fb75760405163348b55eb60e21b815260040160405180910390fd5b6001600160401b03811660009081526010602052604081206005015490819003610ff65781604051630cf4827360e31b8152600401610b269190614da5565b600061100562278d0083615592565b90508042101561102e57828142604051637a54a45360e11b8152600401610b269392919061552f565b6001600160401b038316600090815260106020526040902060070154610a5790849061262c565b6060806002546001600160401b0381111561107257611072614db9565b60405190808252806020026020018201604052801561109b578160200160208202803683370190505b5091506002546001600160401b038111156110b8576110b8614db9565b6040519080825280602002602001820160405280156110f157816020015b6110de614b0e565b8152602001906001900390816110d65790505b5060008080526010602052600080516020615890833981519152549192506001600160401b03909116905b6001600160401b038216156111da576001600160401b0380831660009081526010602052604090208551909184918791851690811061115d5761115d6155a5565b60200260200101906001600160401b031690816001600160401b031681525050806002016040518060400160405290816000820154815260200160018201548152505084836001600160401b0316815181106111bb576111bb6155a5565b6020908102919091010152546001600160401b0316915060010161111c565b50509091565b6111e8612361565b60005460ff1661120b5760405163348b55eb60e21b815260040160405180910390fd5b8051600c548111156112305760405163226c2d8360e21b815260040160405180910390fd5b80156112a4576000805b8281101561127557838181518110611254576112546155a5565b6020026020010151602001518261126b9190615592565b915060010161123a565b50600b54811461129e57600b54816040516367d22bd960e01b8152600401610b2692919061538d565b50611339565b60408051600180825281830190925290816020015b60408051608081018252600091810182815260608201839052815260208101919091528152602001906001900390816112b957505060408051608081018252339181018281526060820192909252908152600b5460208201528151919350908390600090611329576113296155a5565b6020026020010181905250815190505b60006012611346876125eb565b6040516113539190615513565b908152604051908190036020019020546001600160401b03169050801561138f578060405163459c639360e01b8152600401610b269190614da5565b6000836000815181106113a4576113a46155a5565b6020026020010151600001516000015190506113c687878388600001516126cf565b6000806113d78988600001516127b9565b600b5460078201556001810180546001600160a01b0319166001600160a01b038716179055909250905060005b8581101561148b5781600801878281518110611422576114226155a5565b60209081029190910181015182546001808201855560009485529383902082518051600390930290910180546001600160a01b03199081166001600160a01b03948516178255918501518187018054909316931692909217905591015160029091015501611404565b50611494612aed565b816001600160401b03167f533c16cb4158fe7c77021b90e9290bbefa457dd392bd8abc1eab59747834fd5b848b8a8a6040516114d394939291906155bb565b60405180910390a26114fe600060019054906101000a90046001600160a01b03163330600b54612b19565b505050505050505050565b6115116121ec565b6000805460ff19166001179055565b611528612361565b60005460ff1661154b5760405163348b55eb60e21b815260040160405180910390fd5b80516003548111156115655780600254610b7d91906154a4565b6000611579610e38368890038801886154d3565b9050600060128260405161158d9190615513565b908152604051908190036020019020546001600160401b031690506115b186612614565b156115d5578086426040516337030b8b60e01b8152600401610b269392919061552f565b6001600160401b03808216600090815260106020908152604080832081516101408101835281548087168252600160401b90049095168584015260018101546001600160a01b0316858301528151808301835260028201548152600382015481850152606086015260048101546080860152600581015460a0860152600681015460c0860152600781015460e086015260088101805483518186028101860190945280845294959491936101008601939290879084015b828210156116e9576000848152602090819020604080516080810182526003860290920180546001600160a01b0390811692840192835260018083015490911660608501529183526002015482840152908352909201910161168c565b505050908252506009919091015460209091015260608101515190915088351415806117215750806060015160200151886020013514155b1561174357818860405163c43283b560e01b8152600401610b26929190615550565b611c2081608001516117559190615592565b42101561177e57608081015160405163c666e87d60e01b8152610b26918491429060040161552f565b60095460405160009161179d918b35906020808e0135918d9101615577565b604051602081830303815290604052905060006117bc82600a54612387565b90506117d187610c6a368b90038b018b6154b7565b5050816001600160401b03167f0bfb12191b00293af29126b1c5489f8daeb4a4af82db2960b7f8353c3105cd7c82604001518360600151604051611816929190615654565b60405180910390a26000600f54600d54600e546118339190615592565b61183d9190615592565b905060008260e001519050600082600d54836118599190615463565b6118639190615490565b90506000600e54836118759190615463565b156118a457836001600e5461188a91906154a4565b6118949190615490565b61189f906001615592565b6118a7565b60005b90506118c786826118b885876154a4565b6118c291906154a4565b61262c565b600d54156118eb576000546118eb9061010090046001600160a01b03163384612b80565b600e541561191557600054600154611915916001600160a01b036101009091048116911683612b80565b505050505050505050505050565b61192b6121ec565b60005460ff161561194f57604051630a35d5c360e31b815260040160405180910390fd5b8060005b81811015611bad573684848381811061196e5761196e6155a5565b90506020028101906119809190615671565b905060006119916060830183615687565b9050116119b157604051631a10033d60e11b815260040160405180910390fd5b600c546119c16060830183615687565b905011156119e25760405163226c2d8360e21b815260040160405180910390fd5b600080611a016119f7368590038501856154d3565b84604001356127b9565b600b5460078201559092509050611a1b6060840184615687565b6000818110611a2c57611a2c6155a5565b611a429260206060909202019081019150615370565b6001820180546001600160a01b0319166001600160a01b0392909216919091179055600080611a746060860186615687565b9050905060005b81811015611b225736611a916060880188615687565b83818110611aa157611aa16155a5565b9050606002019050806040013584611ab99190615592565b93506000611aca6020830183615370565b6001600160a01b031603611af15760405163e99d5ac560e01b815260040160405180910390fd5b60088501805460018101825560009182526020909120829160030201611b1782826156ef565b505050600101611a7b565b50600b548214611b4b57600b54826040516367d22bd960e01b8152600401610b2692919061538d565b604080518635815260208088013590820152868201358183015290516001600160401b038616917f34be2fa283e1d5eb453459898f160448257aa1ef0f7dd2c3a3b55c45d1af768f919081900360600190a26001860195505050505050611953565b50610a57612aed565b611bbe6121ec565b600e8190556040518181527f4751fdab53c6c42462ab92ce837e339f8efc4c64fa76dadd99cc95baa68a4c00906020016108b9565b611bfb612361565b61085c8133612bb1565b600080610dcf612d81565b6000611c1a612da5565b805490915060ff600160401b82041615906001600160401b0316600081158015611c415750825b90506000826001600160401b03166001148015611c5d5750303b155b905081158015611c6b575080155b15611c895760405163f92ee8a960e01b815260040160405180910390fd5b84546001600160401b03191660011785558315611cb257845460ff60401b1916600160401b1785555b6001861015611cd457604051630ef6cf4560e41b815260040160405180910390fd5b6001881015611cf6576040516352513c5960e01b815260040160405180910390fd5b6000805460ff19168155600281905560035561012c60045560408051808201909152601b81527a0424c535f5349475f545259414e44494e4352454d454e545f504f5602c1b6020820152611d4990612dc9565b60065560408051808201909152601e81527f424c535f5349475f545259414e44494e4352454d454e545f52455741524400006020820152611d8990612dc9565b60075560408051808201909152601c81527b109314d7d4d251d7d51496505391125390d4915351539517d156125560221b6020820152611dc890612dc9565b600881905550611def6040518060600160405280602181526020016158b060219139612dc9565b600955604080518082019091526019815278424c535f5349475f484153485f544f5f4649454c445f54414760381b6020820152611e2b90612dc9565b600a5561025860055566038d7ea4c6800060175561a8c060185560006019819055601a8190558054610100600160a81b0319166101006001600160a01b038f811691909102919091178255600180546001600160a01b031916918e16919091178155600b8c9055600c8b9055600d8a9055600e899055600f889055611eb0919061572f565b600180546001600160401b0392909216600160a01b02600160a01b600160e01b031990921691909117905560008052601060205260008051602061589083398151915280546001600160801b0319169055611f0a33612dfd565b611f12612e0e565b831561191557845460ff60401b191685556040517fc7f505b2f371ae2175ee4913f4499e1f2633a7b5936321eed1cdaeb6115181d290611f5490600190614da5565b60405180910390a1505050505050505050505050565b611f726121ec565b6000611f7c612d81565b80546001600160a01b0319166001600160a01b0384169081178255909150611fa2610dc4565b6001600160a01b03167f38d16b8cac22d99fc7c124b9cd0de2d3fa1faef420bfe791d8c362d765e2270060405160405180910390a35050565b611fe36121ec565b6000811161200457604051630ef6cf4560e41b815260040160405180910390fd5b60178190556040518181527fe604909b918af52702fa14cd9b5a8870e5bd66da3163365671e583f705fd5463906020016108b9565b6120416121ec565b6000811161206257604051630ef6cf4560e41b815260040160405180910390fd5b60058190556040518181527ffbbc3d0a51e101ce4a7fda20e6e4eb0e230bf7de27ee2e3683fc8539e3766395906020016108b9565b6120a3848484846126cf565b50505050565b6001600160a01b03821660009081526011602052604081206001810154905490916120d483836154a4565b9050808411156120f75760405163363cc6b360e21b815260040160405180910390fd5b6000601854426121079190615490565b9050601a5481111561211e57601a81905560006019555b84601960008282546121309190615592565b9091555050601754601954111561215a57604051638c10944b60e01b815260040160405180910390fd5b6001600160a01b03861660009081526011602052604081206001018054879290612185908490615592565b90915550506040518581526001600160a01b038716907ffc30cddea38e2bf4d6ea7d3f9ed3b6ad7f176419f4963bd81318067a4aee73fe9060200160405180910390a26000546121e49061010090046001600160a01b03168787612b80565b505050505050565b336121f5610dc4565b6001600160a01b031614610a6c573360405163118cdaa760e01b8152600401610b269190615009565b612226614b0e565b61222e614b28565b835181526020808501518183015283516040808401919091529084015160608301526000908360808460066107d05a03fa9050806122c25760405162461bcd60e51b815260206004820152602b60248201527f43616c6c20746f20707265636f6d70696c656420636f6e747261637420666f7260448201526a081859190819985a5b195960aa1b6064820152608401610b26565b505092915050565b6122d2612e1e565b60006122dc612316565b805460ff1916815590507f5db9ee0a495bf2e6ff9c91a7834c1ba4fdd244a5e8aa4e537bd38aeae4b073aa335b6040516108b99190615009565b7fcd5ed15c6e187e77e9aee88184c21f4f2182ab5827cb3b7e07fbedcd63f0330090565b6000612344612d81565b80546001600160a01b0319168155905061235d82612e43565b5050565b612369610acc565b15610a6c5760405163d93c066560e01b815260040160405180910390fd5b61238f614b46565b600061239b8484612e9f565b905060008060008061240885600001516001600281106123bd576123bd6155a5565b602002015186516000602002015187602001516001600281106123e2576123e26155a5565b602002015188602001516000600281106123fe576123fe6155a5565b6020020151613070565b60408051608081018252808201948552606081019590955292845282518084019093528252602082810191909152820152955050505050505b92915050565b61244f614b0e565b835160005b818110156124d5576000868281518110612470576124706155a5565b602002602001015190506124ca8460106000846001600160401b03166001600160401b031681526020019081526020016000206002016040518060400160405290816000820154815260200160018201548152505061221e565b935050600101612454565b5060408051808201909152601354815260145460208201526124ff906124fa84613100565b61221e565b604080516080810182526020808801518284019081528851606080850191909152908352835180850185529089015181529288015183820152810191909152909250600061254c84613100565b905061256161255961318a565b8383886131ab565b610f835780604051634fb09a2160e11b8152600401610b26919061501d565b612588612361565b6000612592612316565b805460ff1916600117815590507f62e78cea01bee320cd4e420270b5ea74000d11b0c9f74754ebdbfc544b05a2586123093390565b7f9016d09d72d40fdae2fd8ceac6b6234c7706214fd39c1cd1e609a0528c19930090565b6060816040516020016125fe919061501d565b6040516020818303038152906040529050919050565b6000600554826126249190615592565b421192915050565b6001600160401b0382166000908152601060209081526040918290206001810154835180850190945260028201548452600390910154918301919091526001600160a01b03169061267c846132ac565b612684612aed565b836001600160401b03167f24c4411329b949fad2eba6f79a8ba090a08eac1af4b56c3a2f5a282ed45e233e8385846040516126c19392919061574e565b60405180910390a250505050565b600060065485600001518660200151858560405160200161272095949392919094855260208501939093526040840191909152606090811b6001600160601b03191690830152607482015260940190565b6040516020818303038152906040529050600061273f82600a54612387565b60408051608081018252602080890151828401908152895160608085019190915290835283518085018552908a01518152928901518382015281019190915290915061279c61278c61318a565b826127968a613100565b856131ab565b610f835760405163cf006ab760e01b815260040160405180910390fd5b8151600090819015806127ce57506020840151155b156127ec5760405163139b722760e31b815260040160405180910390fd5b8260000361280d57604051634eb8f11f60e01b815260040160405180910390fd5b6000612818856125eb565b905060006001600160401b03166012826040516128359190615513565b908152604051908190036020019020546001600160401b031614612895576012816040516128639190615513565b9081526040519081900360200181205463459c639360e01b8252610b26916001600160401b0390911690600401614da5565b6000848152601b60205260409020546001600160401b0316156128e5576000848152601b602052604090819020549051630cb4c72160e21b8152610b26916001600160401b031690600401614da5565b60005460ff161561294a57436015541015612904574360155560006016555b6016805490600061291483615772565b919050555060006129236109f2565b90508060165411156129485760405163689f6e7560e11b815260040160405180910390fd5b505b60018054600160a01b90046001600160401b031690601461296a8361578b565b91906101000a8154816001600160401b0302191690836001600160401b03160217905550925060026000815461299f90615772565b909155506001600160401b038381166000818152601060209081526040808320600080516020615890833981519152805482546001600160801b031916600160401b918290049098168082029890981783558154600160401b600160801b03191690870217815586855282852080546001600160401b031990811688179091558c5160028401558c8501516003840155426004840155600983018c90558b8652601b9094529382902080549093169094179091555191945091908590601290612a69908690615513565b90815260405190819003602001902080546001600160401b03929092166001600160401b0319909216919091179055600254600103612ab45786516013556020870151601455612ae2565b6040805180820190915260135481526014546020820152612ad5908861221e565b8051601355602001516014555b5050505b9250929050565b60006003600254612afe9190615490565b90506004548111612b0f5780612b13565b6004545b60035550565b6040516001600160a01b0384811660248301528381166044830152606482018390526120a39186918216906323b872dd906084015b604051602081830303815290604052915060e01b6020820180516001600160e01b0383818316178352505050506135b5565b6040516001600160a01b03838116602483015260448201839052610a5791859182169063a9059cbb90606401612b4e565b60005460ff16612bd45760405163348b55eb60e21b815260040160405180910390fd5b6001600160401b03821660009081526010602052604081206008810154829190825b81811015612c67576000836008018281548110612c1557612c156155a5565b6000918252602090912060039091020180549091506001600160a01b03808916911603612c5e576007840154600282015460019750612c55906004615463565b10945050612c67565b50600101612bf6565b5083612c8a578585604051635bf2837760e11b8152600401610b269291906157b7565b8160050154600003612ce157828015612cb4575062278d008260040154612cb19190615592565b42105b15612cd6578585604051633826feb560e01b8152600401610b269291906157b7565b426005830155612d20565b6000610e108360060154612cf59190615592565b905080421015612d1e57868142604051637a54a45360e11b8152600401610b269392919061552f565b505b426006830155604080516001600160a01b0387168152600284015460208201526003840154918101919091526001600160401b038716907f8600c0145511b317ae0189933fa71eb57a32d74891804c7993ef74ec63a5e80490606001610cc6565b7f237e158222e3e6968b72b9db0d8043aacf074ad9f650f0d1606b4d82ee432c0090565b7ff0c57e16840df040f15088dc2f81fe391c3923bec73e23a9662efc9c229c6a0090565b6000814630604051602001612de0939291906157d9565b604051602081830303815290604052805190602001209050919050565b612e0561360f565b61085c81613634565b612e1661360f565b610a6c613666565b612e26610acc565b610a6c57604051638dfc202b60e01b815260040160405180910390fd5b6000612e4d6125c7565b80546001600160a01b038481166001600160a01b031983168117845560405193945091169182907f8be0079c531659141344cd1fd0a4f28419497f9722a3daafe3b4186f6b6457e090600090a3505050565b612ea7614b46565b600080600080600087516001612ebd9190615592565b6001600160401b03811115612ed457612ed4614db9565b6040519080825280601f01601f191660200182016040528015612efe576020820181803683370190505b50885190915060005b81811015612f5d57898181518110612f2157612f216155a5565b602001015160f81c60f81b838281518110612f3e57612f3e6155a5565b60200101906001600160f81b031916908160001a905350600101612f07565b5060005b8060f81b8360018551612f7491906154a4565b81518110612f8457612f846155a5565b60200101906001600160f81b031916908160001a9053506000612fa7848b613683565b91995097509050600080612fbb8a8a61377b565b91509150600080612fcc84846137ee565b9150915081600014158015612fe057508015155b1561301d578415612ffb57612ff5828261395d565b90925090505b9098509650878761300e8c8c84846139a2565b1561301d575050505050613035565b5050505050808061302d9061580d565b915050612f61565b505060408051608081018252808201958652606081019690965293855250825180840190935282526020808301919091528201529392505050565b600080600080613082888888886139b9565b61308e5761308e615823565b6040805160c081018252898152602081018990529081018790526060810186905260016080820152600060a08201526130c681613a5c565b8051602082015160408301516060840151608085015160a08601519596506130ed95613c0e565b929c919b50995090975095505050505050565b613108614b0e565b815115801561311957506020820151155b15613137575050604080518082019091526000808252602082015290565b604051806040016040528083600001518152602001600080516020615870833981519152846020015161316a9190615839565b613182906000805160206158708339815191526154a4565b905292915050565b613192614b0e565b5060408051808201909152600181526002602082015290565b60408051600280825260608201909252600091829190816020015b6131ce614b0e565b8152602001906001900390816131c65750506040805160028082526060820190925291925060009190602082015b613204614b46565b8152602001906001900390816131fc579050509050868260008151811061322d5761322d6155a5565b6020026020010181905250848260018151811061324c5761324c6155a5565b6020026020010181905250858160008151811061326b5761326b6155a5565b6020026020010181905250838160018151811061328a5761328a6155a5565b602002602001018190525061329f8282613c58565b925050505b949350505050565b6000600254116132cf576040516363cd35d560e11b815260040160405180910390fd5b6001600160401b0381166132f657604051631d58f8cb60e11b815260040160405180910390fd5b6001600160401b03808216600090815260106020908152604080832081516101408101835281548087168252600160401b90049095168584015260018101546001600160a01b0316858301528151808301835260028201548152600382015481850152606086015260048101546080860152600581015460a0860152600681015460c0860152600781015460e086015260088101805483518186028101860190945280845294959491936101008601939290879084015b8282101561340a576000848152602090819020604080516080810182526003860290920180546001600160a01b039081169284019283526001808301549091166060850152918352600201548284015290835290920191016133ad565b5050509082525060099190910154602091820152818101805183516001600160401b0390811660009081526010855260408082208054600160401b600160801b031916600160401b9585169590950294909417909355855193518216815282902080546001600160401b0319169390911692909217909155805180820190915260135481526014549181019190915260608201519192506134ae916124fa90613100565b80516013556020015160145560608101516000906134cb906125eb565b6101208301516000908152601b60205260409081902080546001600160401b031916905551909150601290613501908390615513565b908152604080516020928190038301902080546001600160401b03191690556001600160401b03851660009081526010909252812080546001600160801b03191681556001810180546001600160a01b03191690556002810182905560038101829055600481018290556005810182905560068101829055600781018290559061358e6008830182614b6b565b600982016000905550506001600260008282546135ab91906154a4565b9091555050505050565b60006135ca6001600160a01b03841683613f5e565b905080516000141580156135ef5750808060200190518101906135ed919061584d565b155b15610a575782604051635274afe760e01b8152600401610b269190615009565b613617613f73565b610a6c57604051631afcd79f60e31b815260040160405180910390fd5b61363c61360f565b6001600160a01b038116610b2f576000604051631e4fbdf760e01b8152600401610b269190615009565b61366e61360f565b6000613678612316565b805460ff1916905550565b60008060008060008060006136b989896040516020016136a591815260200190565b604051602081830303815290604052613f8d565b935093509350935060405160308152602080820152602060408201528460608201528360808201526001609082015260008051602061587083398151915260b082015260208160d0836005600019fa61371157600080fd5b805197505060405160308152602080820152836050820152602060408201528260708201526001609082015260008051602061587083398151915260b082015260208160d0836005600019fa61376657600080fd5b51969996985060019081161496505050505050565b60008060008060008061379088888a8a6140d6565b90925090506137a182828a8a6140d6565b90925090506137df82826000805160206158d18339815191527e9713b03af0fed4cd2cafadeed8fdf4a74fa084e52d1852e4a2bd0685c315d2614147565b90999098509650505050505050565b600080600080600085600003613830576138078761417b565b909350905080156138215782600094509450505050612ae6565b60008394509450505050612ae6565b6000805160206158708339815191528788099250600080516020615870833981519152868709915060008051602061587083398151915282840892506138758361417b565b90935090508061388e5760008094509450505050612ae6565b60008051602061587083398151915283880891506138ab82614212565b915060006138b88361417b565b9250905081613909576138da888560008051602061587083398151915261426c565b92506138e583614212565b92506138f08361417b565b9250905081613909576000809550955050505050612ae6565b80600080516020615870833981519152828308935061393684600080516020615870833981519152614290565b93506000600080516020615870833981519152858a09919a91995090975050505050505050565b60008080613979856000805160206158708339815191526154a4565b90506000613995856000805160206158708339815191526154a4565b9196919550909350505050565b60006139b0858585856139b9565b95945050505050565b60008060008060006139cd878789896140d6565b90945092506139de898981816140d6565b90925090506139ef82828b8b6140d6565b9092509050613a00848484846142e1565b9094509250613a3e84846000805160206158d18339815191527e9713b03af0fed4cd2cafadeed8fdf4a74fa084e52d1852e4a2bd0685c315d26142e1565b909450925083158015613a4f575082155b9998505050505050505050565b613a64614b8c565b613a6c614b8c565b613a74614b8c565b613a7c614b8c565b84516020860151604087015160608801516080890151613ab4946744e992b44a6909f1949093909290918b60055b6020020151614323565b80516020820151604083015160608401516080850151949750613ae09460029493929190896005613aaa565b9150613b4c8360005b602002015184600160200201518560026020020151866003602002015187600460200201518860056020020151886000602002015189600160200201518a600260200201518b600360200201518c600460200201518d60055b60200201516143a6565b9150613b578261462f565b9150613b628361462f565b9050613b6d8161462f565b9050613b7a836000613ae9565b9250613be08360005b6020020151846001602002015185600260200201518660036020020151876004602002015188600560200201518760006020020151886001602002015189600260200201518a600360200201518b600460200201518c6005613b42565b9250613beb8561462f565b9050613bf68161462f565b9050613c018161462f565b90506139b0836000613b83565b600080600080600080613c218888614747565b9092509050613c328c8c84846140d6565b9096509450613c438a8a84846140d6565b969d959c509a50949850929650505050505050565b60008151835114613c6857600080fd5b82516000613c77826006615463565b90506000816001600160401b03811115613c9357613c93614db9565b604051908082528060200260200182016040528015613cbc578160200160208202803683370190505b50905060005b83811015613eed57868181518110613cdc57613cdc6155a5565b60200260200101516000015182826006613cf69190615463565b613d01906000615592565b81518110613d1157613d116155a5565b602002602001018181525050868181518110613d2f57613d2f6155a5565b60200260200101516020015182826006613d499190615463565b613d54906001615592565b81518110613d6457613d646155a5565b602002602001018181525050858181518110613d8257613d826155a5565b6020908102919091010151515182613d9b836006615463565b613da6906002615592565b81518110613db657613db66155a5565b602002602001018181525050858181518110613dd457613dd46155a5565b60209081029190910181015151015182613def836006615463565b613dfa906003615592565b81518110613e0a57613e0a6155a5565b602002602001018181525050858181518110613e2857613e286155a5565b602002602001015160200151600060028110613e4657613e466155a5565b602002015182613e57836006615463565b613e62906004615592565b81518110613e7257613e726155a5565b602002602001018181525050858181518110613e9057613e906155a5565b602002602001015160200151600160028110613eae57613eae6155a5565b602002015182613ebf836006615463565b613eca906005615592565b81518110613eda57613eda6155a5565b6020908102919091010152600101613cc2565b50613ef6614baa565b60006020826020860260208601600060086107d05a03f1905080613f505760405162461bcd60e51b8152602060048201526011602482015270496e76616c6964205369676e617475726560781b6044820152606401610b26565b505115159695505050505050565b6060613f6c838360006147d2565b9392505050565b6000613f7d612da5565b54600160401b900460ff16919050565b60008060008060ff85511115613fa257600080fd5b600060405160005b6088811015613fc157600082820152602001613faa565b506088602060005b8a51811015613fea578a820151848401526020928301929182019101613fc9565b505060898951019050608081830153600201602060005b89518110156140225789820151848401526020928301929182019101614001565b5050608b88518a5101019050875181830153508751875101608c018120915050604051818152600160208201536021602060005b89518110156140775789820151848401526020928301929182019101614056565b505050865187516021018201538651602201812095508582188152600260208201538651602201812094508482188152600360208201538651602201812093508382188152600460208201539551602201909520939692955090935050565b60008061411460008051602061587083398151915285880960008051602061587083398151915285880960008051602061587083398151915261426c565b60008051602061587083398151915280868809600080516020615870833981519152868a09089150915094509492505050565b6000806000805160206158708339815191528487086000805160206158708339815191528487089150915094509492505050565b600080600060405160208152602080820152602060408201528460608201527f0c19139cb84c680a6e14116da060561765e05aa45a1c72a34f082305b61f3f52608082015260008051602061587083398151915260a082015260208160c08360056107d05a03fa905193509050600080516020615870833981519152838009841491508061420c5760009250600091505b50915091565b6000600182161515614225600284615490565b915080156142665760008051602061587083398151915260026142576000805160206158708339815191526001615592565b6142619190615490565b830891505b50919050565b6000818061427c5761427c61547a565b61428684846154a4565b8508949350505050565b60008060405160208152602080820152602060408201528460608201526002840360808201528360a082015260208160c08360056107d05a03fa905192509050806142da57600080fd5b5092915050565b6000806142fd868560008051602061587083398151915261426c565b614316868560008051602061587083398151915261426c565b9150915094509492505050565b61432b614b8c565b871561439b57600188161561436c578051602082015160408301516060840151608085015160a08601516143699594939291908d8d8d8d8d8d6143a6565b90505b61437a87878787878761486f565b949b50929950909750955093509150614394600289615490565b975061432b565b979650505050505050565b6143ae614b8c565b881580156143ba575087155b156143fc578686868686868660005b60a0890192909252608088019290925260608701929092526040860192909252602085810193909352909102015261461f565b82158015614408575081155b1561441b578c8c8c8c8c8c8660006143c9565b61442785858b8b6140d6565b90955093506144388b8b85856140d6565b6060830152604082015261444e87878b8b6140d6565b909750955061445f8d8d85856140d6565b60a0830152608082018190528714801561447c575060a081015186145b156144c1576040810151851480156144975750606081015184145b156144b2576144aa8d8d8d8d8d8d61486f565b8660006143c9565b600160008181808086816143c9565b6144cd898985856140d6565b90935091506144ed858583600260200201518460035b60200201516142e1565b909d509b50614507878783600460200201518460056144e3565b909b5099506145188b8b81816140d6565b9099509750614538898983600460200201518460055b60200201516140d6565b909550935061454989898d8d6140d6565b909950975061455a898985856140d6565b60a083015260808201526145708d8d81816140d6565b9097509550614581878785856140d6565b909750955061459287878b8b6142e1565b90975095506145a3858560026149de565b90935091506145b4878785856142e1565b90975095506145c58b8b89896140d6565b602083015281526145d8858589896142e1565b909b5099506145e98d8d8d8d6140d6565b909b5099506146038989836002602002015184600361452e565b909d509b506146148b8b8f8f6142e1565b606083015260408201525b9c9b505050505050505050505050565b614637614b8c565b815161464b908360015b6020020151614a11565b60208301528152604082015161466390836003614641565b60608301526040820152608082015161467e90836005614641565b60a08301526080820152805160208201516146db91907f2fb347984f7911f74c0bec3cf559b143b78cc310c2c3330c99e39557176f553d7f16c9e55061ebae204ba4cc8bd75a079432ae2a1d0b7c9dce1665d51c640fcba26140d6565b602083015281526040810151606082015161473891907f063cf305489af5dcdc5ec698b6e2f9b9dbaae0eda9c95998dc54014671a0135a7f07c03cbcac41049a0704b5a7ec796f2b21807dc98fa25bd282d37f632623b0e36140d6565b60608301526040820152919050565b600080806147886000805160206158708339815191528087880960008051602061587083398151915287880908600080516020615870833981519152614290565b90506000805160206158708339815191528186096000805160206158708339815191528286096147c6906000805160206158708339815191526154a4565b92509250509250929050565b6060814710156147f7573060405163cd78605960e01b8152600401610b269190615009565b600080856001600160a01b031684866040516148139190615513565b60006040518083038185875af1925050503d8060008114614850576040519150601f19603f3d011682016040523d82523d6000602084013e614855565b606091505b5091509150614865868383614a38565b9695505050505050565b6000806000806000806148848c8c60036149de565b909650945061489586868e8e6140d6565b90965094506148a68a8a8a8a6140d6565b90985096506148b78c8c8c8c6140d6565b90945092506148c884848a8a6140d6565b90945092506148d9868681816140d6565b909c509a506148ea848460086149de565b90925090506148fb8c8c84846142e1565b909c509a5061490c888881816140d6565b909250905061491d848460046149de565b909450925061492e84848e8e6142e1565b909450925061493f848488886140d6565b90945092506149508a8a60086149de565b909650945061496186868c8c6140d6565b9096509450614972868684846140d6565b9096509450614983848488886142e1565b90945092506149948c8c60026149de565b90965094506149a586868a8a6140d6565b90965094506149b6888884846140d6565b90925090506149c7828260086149de565b809250819350505096509650965096509650969050565b60008060008051602061587083398151915283860960008051602061587083398151915284860991509150935093915050565b60008083614a2d846000805160206158708339815191526154a4565b915091509250929050565b606082614a4d57614a4882614a8b565b613f6c565b8151158015614a6457506001600160a01b0384163b155b15614a845783604051639996b31560e01b8152600401610b269190615009565b5080613f6c565b805115614a9b5780518082602001fd5b604051630a12f52160e11b815260040160405180910390fd5b60408051610140810182526000808252602082018190529181019190915260608101614ade614b0e565b81526020016000815260200160008152602001600081526020016000815260200160608152602001600081525090565b604051806040016040528060008152602001600081525090565b60405180608001604052806004906020820280368337509192915050565b6040518060400160405280614b59614bc8565b8152602001614b66614bc8565b905290565b508054600082556003029060005260206000209081019061085c9190614be6565b6040518060c001604052806006906020820280368337509192915050565b60405180602001604052806001906020820280368337509192915050565b60405180604001604052806002906020820280368337509192915050565b5b80821115614c195780546001600160a01b03199081168255600182018054909116905560006002820155600301614be7565b5090565b80356001600160401b0381168114614c3457600080fd5b919050565b600060208284031215614c4b57600080fd5b613f6c82614c1d565b80518252602090810151910152565b805180516001600160a01b03908116845260209182015116818401520151604082015260600190565b600081518084526020840193506020830160005b82811015614cc457614cb3868351614c63565b955060209190910190600101614ca0565b5093949350505050565b60208152614ce86020820183516001600160401b03169052565b60006020830151614d0460408401826001600160401b03169052565b5060408301516001600160a01b0381166060840152506060830151614d2c6080840182614c54565b50608083015160c083015260a083015160e083015260c083015161010083015260e0830151610120830152610100830151610160610140840152614d74610180840182614c8c565b90506101208401516101608401528091505092915050565b600060208284031215614d9e57600080fd5b5035919050565b6001600160401b0391909116815260200190565b634e487b7160e01b600052604160045260246000fd5b604080519081016001600160401b0381118282101715614df157614df1614db9565b60405290565b604051608081016001600160401b0381118282101715614df157614df1614db9565b604051601f8201601f191681016001600160401b0381118282101715614e4157614e41614db9565b604052919050565b600060208284031215614e5b57600080fd5b81356001600160401b03811115614e7157600080fd5b8201601f81018413614e8257600080fd5b80356001600160401b03811115614e9b57614e9b614db9565b614eae601f8201601f1916602001614e19565b818152856020838501011115614ec357600080fd5b81602084016020830137600091810160200191909152949350505050565b6001600160a01b038116811461085c57600080fd5b60006080828403121561426657600080fd5b60006001600160401b03821115614f2157614f21614db9565b5060051b60200190565b600082601f830112614f3c57600080fd5b8135614f4f614f4a82614f08565b614e19565b8082825260208201915060208360051b860101925085831115614f7157600080fd5b602085015b83811015614f9557614f8781614c1d565b835260209283019201614f76565b5095945050505050565b60008060008060e08587031215614fb557600080fd5b8435614fc081614ee1565b935060208501359250614fd68660408701614ef6565b915060c08501356001600160401b03811115614ff157600080fd5b614ffd87828801614f2b565b91505092959194509250565b6001600160a01b0391909116815260200190565b604081016124418284614c54565b60008060008084860361010081121561504357600080fd5b604081121561505157600080fd5b50849350604084013592506150698660608601614ef6565b915060e08501356001600160401b03811115614ff157600080fd5b6040808252835190820181905260009060208501906060840190835b818110156150c75783516001600160401b03168352602093840193909201916001016150a0565b50508381036020808601919091528551808352918101925085019060005b8181101561510e576150f8848451614c54565b60409390930192602092909201916001016150e5565b50919695505050505050565b60006040828403121561512c57600080fd5b615134614dcf565b823581526020928301359281019290925250919050565b60006080828403121561515d57600080fd5b615165614df7565b8235815260208084013590820152604080840135908201526060928301359281019290925250919050565b600082601f8301126151a157600080fd5b81356151af614f4a82614f08565b808282526020820191506020606084028601019250858311156151d157600080fd5b602085015b83811015614f955780870360608112156151ef57600080fd5b6151f7614dcf565b604082121561520557600080fd5b61520d614dcf565b9150823561521a81614ee1565b8252602083013561522a81614ee1565b602083810191909152918152604083013581830152845292909201916060016151d6565b60008060008084860361016081121561526657600080fd5b615270878761511a565b945061527f876040880161514b565b9350608060bf198201121561529357600080fd5b5061529c614df7565b60c0860135815260e08601356020820152610100860135604082015261012086013561ffff811681146152ce57600080fd5b606082015291506101408501356001600160401b038111156152ef57600080fd5b614ffd87828801615190565b6000806020838503121561530e57600080fd5b82356001600160401b0381111561532457600080fd5b8301601f8101851361533557600080fd5b80356001600160401b0381111561534b57600080fd5b8560208260051b840101111561536057600080fd5b6020919091019590945092505050565b60006020828403121561538257600080fd5b8135613f6c81614ee1565b918252602082015260400190565b600080600080600080600060e0888a0312156153b657600080fd5b87356153c181614ee1565b965060208801356153d181614ee1565b96999698505050506040850135946060810135946080820135945060a0820135935060c0909101359150565b600080600080610100858703121561541457600080fd5b61541e868661511a565b935061542d866040870161514b565b925060c085013561543d81614ee1565b9396929550929360e00135925050565b634e487b7160e01b600052601160045260246000fd5b80820281158282048414176124415761244161544d565b634e487b7160e01b600052601260045260246000fd5b60008261549f5761549f61547a565b500490565b818103818111156124415761244161544d565b6000608082840312156154c957600080fd5b613f6c838361514b565b6000604082840312156154e557600080fd5b613f6c838361511a565b60005b8381101561550a5781810151838201526020016154f2565b50506000910152565b600082516155258184602087016154ef565b9190910192915050565b6001600160401b039390931683526020830191909152604082015260600190565b6001600160401b038316815260608101613f6c602083018480358252602090810135910152565b93845260208401929092526040830152606082015260800190565b808201808211156124415761244161544d565b634e487b7160e01b600052603260045260246000fd5b6001600160a01b0385168152600061010082016155db6020840187614c54565b8451606084015260208501516080840152604085015160a084015261ffff60608601511660c084015261010060e08401528084518083526101208501915060208601925060005b8181101561564657615635838551614c63565b602094909401939250600101615622565b509098975050505050505050565b6001600160a01b038316815260608101613f6c6020830184614c54565b60008235607e1983360301811261552557600080fd5b6000808335601e1984360301811261569e57600080fd5b8301803591506001600160401b038211156156b857600080fd5b6020019150606081023603821315612ae657600080fd5b80546001600160a01b0319166001600160a01b0392909216919091179055565b81356156fa81614ee1565b61570481836156cf565b50602082013561571381614ee1565b61572081600184016156cf565b50604082013560028201555050565b6001600160401b0381811683821601908111156124415761244161544d565b6001600160a01b038416815260208101839052608081016132a46040830184614c54565b6000600182016157845761578461544d565b5060010190565b60006001600160401b0382166002600160401b031981016157ae576157ae61544d565b60010192915050565b6001600160401b039290921682526001600160a01b0316602082015260400190565b600084516157eb8184602089016154ef565b919091019283525060601b6001600160601b0319166020820152603401919050565b600060ff821660ff81036157ae576157ae61544d565b634e487b7160e01b600052600160045260246000fd5b6000826158485761584861547a565b500690565b60006020828403121561585f57600080fd5b81518015158114613f6c57600080fdfe30644e72e131a029b85045b68181585d97816a916871ca8d3c208c16d87cfd476e0956cda88cad152e89927e53611735b61a5c762d1428573c6931b0a5efcb01424c535f5349475f545259414e44494e4352454d454e545f4c49515549444154452b149d40ceb8aaae81be18991be06ac3b5b4c5e559dbefa33267e6dc24a138e5a164736f6c634300081a000a",
  "linkReferences": {},
  "deployedLinkReferences": {}
}