{
  "_format": "hh-sol-artifact-1",
  "contractName": "ServiceNodeContribution",
  "sourceName": "contracts/ServiceNodeContribution.sol",
  "abi": [
    {
      "inputs": [
        {
          "internalType": "address",
          "name": "_stakingRewardsContract",
          "type": "address"
        },
        {
          "internalType": "uint256",
          "name": "_maxContributors",
          "type": "uint256"
        },
        {
          "components": [
            {
              "internalType": "uint256",
              "name": "X",
              "type": "uint256"
            },
            {
              "internalType": "uint256",
              "name": "Y",
              "type": "uint256"
            }
          ],
          "internalType": "struct BN256G1.G1Point",
          "name": "_blsPubkey",
          "type": "tuple"
        },
        {
          "components": [
            {
              "internalType": "uint256",
              "name": "serviceNodePubkey",
              "type": "uint256"
            },
            {
              "internalType": "uint256",
              "name": "serviceNodeSignature1",
              "type": "uint256"
            },
            {
              "internalType": "uint256",
              "name": "serviceNodeSignature2",
              "type": "uint256"
            },
            {
              "internalType": "uint16",
              "name": "fee",
              "type": "uint16"
            }
          ],
          "internalType": "struct IServiceNodeRewards.ServiceNodeParams",
          "name": "_serviceNodeParams",
          "type": "tuple"
        }
      ],
      "stateMutability": "nonpayable",
      "type": "constructor"
    },
    {
      "inputs": [
        {
          "internalType": "address",
          "name": "target",
          "type": "address"
        }
      ],
      "name": "AddressEmptyCode",
      "type": "error"
    },
    {
      "inputs": [
        {
          "internalType": "address",
          "name": "account",
          "type": "address"
        }
      ],
      "name": "AddressInsufficientBalance",
      "type": "error"
    },
    {
      "inputs": [],
      "name": "FailedInnerCall",
      "type": "error"
    },
    {
      "inputs": [
        {
          "internalType": "address",
          "name": "token",
          "type": "address"
        }
      ],
      "name": "SafeERC20FailedOperation",
      "type": "error"
    },
    {
      "anonymous": false,
      "inputs": [
        {
          "indexed": true,
          "internalType": "uint256",
          "name": "serviceNodePubkey",
          "type": "uint256"
        }
      ],
      "name": "Cancelled",
      "type": "event"
    },
    {
      "anonymous": false,
      "inputs": [
        {
          "indexed": true,
          "internalType": "uint256",
          "name": "serviceNodePubkey",
          "type": "uint256"
        }
      ],
      "name": "Finalized",
      "type": "event"
    },
    {
      "anonymous": false,
      "inputs": [
        {
          "indexed": true,
          "internalType": "address",
          "name": "contributor",
          "type": "address"
        },
        {
          "indexed": false,
          "internalType": "uint256",
          "name": "amount",
          "type": "uint256"
        }
      ],
      "name": "NewContribution",
      "type": "event"
    },
    {
      "anonymous": false,
      "inputs": [
        {
          "indexed": true,
          "internalType": "address",
          "name": "contributor",
          "type": "address"
        },
        {
          "indexed": false,
          "internalType": "uint256",
          "name": "amount",
          "type": "uint256"
        }
      ],
      "name": "WithdrawContribution",
      "type": "event"
    },
    {
      "inputs": [],
      "name": "SENT",
      "outputs": [
        {
          "internalType": "contract IERC20",
          "name": "",
          "type": "address"
        }
      ],
      "stateMutability": "view",
      "type": "function"
    },
    {
      "inputs": [],
      "name": "WITHDRAWAL_DELAY",
      "outputs": [
        {
          "internalType": "uint64",
          "name": "",
          "type": "uint64"
        }
      ],
      "stateMutability": "view",
      "type": "function"
    },
    {
      "inputs": [],
      "name": "blsPubkey",
      "outputs": [
        {
          "internalType": "uint256",
          "name": "X",
          "type": "uint256"
        },
        {
          "internalType": "uint256",
          "name": "Y",
          "type": "uint256"
        }
      ],
      "stateMutability": "view",
      "type": "function"
    },
    {
      "inputs": [],
      "name": "blsSignature",
      "outputs": [
        {
          "internalType": "uint256",
          "name": "sigs0",
          "type": "uint256"
        },
        {
          "internalType": "uint256",
          "name": "sigs1",
          "type": "uint256"
        },
        {
          "internalType": "uint256",
          "name": "sigs2",
          "type": "uint256"
        },
        {
          "internalType": "uint256",
          "name": "sigs3",
          "type": "uint256"
        }
      ],
      "stateMutability": "view",
      "type": "function"
    },
    {
      "inputs": [
        {
          "internalType": "uint256",
          "name": "contributionRemaining",
          "type": "uint256"
        },
        {
          "internalType": "uint256",
          "name": "numContributors",
          "type": "uint256"
        },
        {
          "internalType": "uint256",
          "name": "maxNumContributors",
          "type": "uint256"
        }
      ],
      "name": "calcMinimumContribution",
      "outputs": [
        {
          "internalType": "uint256",
          "name": "result",
          "type": "uint256"
        }
      ],
      "stateMutability": "pure",
      "type": "function"
    },
    {
      "inputs": [],
      "name": "cancelNode",
      "outputs": [],
      "stateMutability": "nonpayable",
      "type": "function"
    },
    {
      "inputs": [],
      "name": "cancelled",
      "outputs": [
        {
          "internalType": "bool",
          "name": "",
          "type": "bool"
        }
      ],
      "stateMutability": "view",
      "type": "function"
    },
    {
      "inputs": [
        {
          "internalType": "uint256",
          "name": "amount",
          "type": "uint256"
        }
      ],
      "name": "contributeFunds",
      "outputs": [],
      "stateMutability": "nonpayable",
      "type": "function"
    },
    {
      "inputs": [
        {
          "internalType": "uint256",
          "name": "amount",
          "type": "uint256"
        },
        {
          "components": [
            {
              "internalType": "uint256",
              "name": "sigs0",
              "type": "uint256"
            },
            {
              "internalType": "uint256",
              "name": "sigs1",
              "type": "uint256"
            },
            {
              "internalType": "uint256",
              "name": "sigs2",
              "type": "uint256"
            },
            {
              "internalType": "uint256",
              "name": "sigs3",
              "type": "uint256"
            }
          ],
          "internalType": "struct IServiceNodeRewards.BLSSignatureParams",
          "name": "_blsSignature",
          "type": "tuple"
        }
      ],
      "name": "contributeOperatorFunds",
      "outputs": [],
      "stateMutability": "nonpayable",
      "type": "function"
    },
    {
      "inputs": [
        {
          "internalType": "address",
          "name": "",
          "type": "address"
        }
      ],
      "name": "contributionTimestamp",
      "outputs": [
        {
          "internalType": "uint256",
          "name": "",
          "type": "uint256"
        }
      ],
      "stateMutability": "view",
      "type": "function"
    },
    {
      "inputs": [
        {
          "internalType": "address",
          "name": "",
          "type": "address"
        }
      ],
      "name": "contributions",
      "outputs": [
        {
          "internalType": "uint256",
          "name": "",
          "type": "uint256"
        }
      ],
      "stateMutability": "view",
      "type": "function"
    },
    {
      "inputs": [
        {
          "internalType": "uint256",
          "name": "",
          "type": "uint256"
        }
      ],
      "name": "contributorAddresses",
      "outputs": [
        {
          "internalType": "address",
          "name": "",
          "type": "address"
        }
      ],
      "stateMutability": "view",
      "type": "function"
    },
    {
      "inputs": [],
      "name": "contributorAddressesLength",
      "outputs": [
        {
          "internalType": "uint256",
          "name": "result",
          "type": "uint256"
        }
      ],
      "stateMutability": "view",
      "type": "function"
    },
    {
      "inputs": [],
      "name": "finalized",
      "outputs": [
        {
          "internalType": "bool",
          "name": "",
          "type": "bool"
        }
      ],
      "stateMutability": "view",
      "type": "function"
    },
    {
      "inputs": [],
      "name": "maxContributors",
      "outputs": [
        {
          "internalType": "uint256",
          "name": "",
          "type": "uint256"
        }
      ],
      "stateMutability": "view",
      "type": "function"
    },
    {
      "inputs": [],
      "name": "minimumContribution",
      "outputs": [
        {
          "internalType": "uint256",
          "name": "result",
          "type": "uint256"
        }
      ],
      "stateMutability": "view",
      "type": "function"
    },
    {
      "inputs": [
        {
          "internalType": "uint256",
          "name": "_stakingRequirement",
          "type": "uint256"
        }
      ],
      "name": "minimumOperatorContribution",
      "outputs": [
        {
          "internalType": "uint256",
          "name": "result",
          "type": "uint256"
        }
      ],
      "stateMutability": "pure",
      "type": "function"
    },
    {
      "inputs": [],
      "name": "operator",
      "outputs": [
        {
          "internalType": "address",
          "name": "",
          "type": "address"
        }
      ],
      "stateMutability": "view",
      "type": "function"
    },
    {
      "inputs": [],
      "name": "operatorContribution",
      "outputs": [
        {
          "internalType": "uint256",
          "name": "result",
          "type": "uint256"
        }
      ],
      "stateMutability": "view",
      "type": "function"
    },
    {
      "inputs": [
        {
          "internalType": "address",
          "name": "tokenAddress",
          "type": "address"
        }
      ],
      "name": "rescueERC20",
      "outputs": [],
      "stateMutability": "nonpayable",
      "type": "function"
    },
    {
      "inputs": [
        {
          "internalType": "uint256",
          "name": "amount",
          "type": "uint256"
        }
      ],
      "name": "resetContract",
      "outputs": [],
      "stateMutability": "nonpayable",
      "type": "function"
    },
    {
      "inputs": [],
      "name": "serviceNodeParams",
      "outputs": [
        {
          "internalType": "uint256",
          "name": "serviceNodePubkey",
          "type": "uint256"
        },
        {
          "internalType": "uint256",
          "name": "serviceNodeSignature1",
          "type": "uint256"
        },
        {
          "internalType": "uint256",
          "name": "serviceNodeSignature2",
          "type": "uint256"
        },
        {
          "internalType": "uint16",
          "name": "fee",
          "type": "uint16"
        }
      ],
      "stateMutability": "view",
      "type": "function"
    },
    {
      "inputs": [],
      "name": "stakingRequirement",
      "outputs": [
        {
          "internalType": "uint256",
          "name": "",
          "type": "uint256"
        }
      ],
      "stateMutability": "view",
      "type": "function"
    },
    {
      "inputs": [],
      "name": "stakingRewardsContract",
      "outputs": [
        {
          "internalType": "contract IServiceNodeRewards",
          "name": "",
          "type": "address"
        }
      ],
      "stateMutability": "view",
      "type": "function"
    },
    {
      "inputs": [],
      "name": "totalContribution",
      "outputs": [
        {
          "internalType": "uint256",
          "name": "result",
          "type": "uint256"
        }
      ],
      "stateMutability": "view",
      "type": "function"
    },
    {
      "inputs": [],
      "name": "withdrawContribution",
      "outputs": [],
      "stateMutability": "nonpayable",
      "type": "function"
    }
  ],
  "bytecode": "0x610120604052600d805461ffff191690553480156200001d57600080fd5b50604051620023b5380380620023b58339810160408190526200004091620002aa565b836001600160a01b0381166200009d5760405162461bcd60e51b815260206004820152601e60248201527f5368617265643a206164647265737320696e70757420697320656d707479000060448201526064015b60405180910390fd5b8380600003620000f05760405162461bcd60e51b815260206004820152601b60248201527f5368617265643a2075696e7420696e70757420697320656d7074790000000000604482015260640162000094565b6001600160a01b03861660a081905260408051630ada733d60e31b815290516356d399e8916004808201926020929091908290030181865afa1580156200013b573d6000803e3d6000fd5b505050506040513d601f19601f8201168201806040525081019062000161919062000369565b60c0818152505060a0516001600160a01b0316637c89d2f06040518163ffffffff1660e01b8152600401602060405180830381865afa158015620001a9573d6000803e3d6000fd5b505050506040513d601f19601f82011682018060405250810190620001cf919062000383565b6001600160a01b03166080525050610100929092523260e052805160005560209081015160015581516002558101516003556040810151600455606001516005805461ffff191661ffff90921691909117905550620003aa565b6001600160a01b03811681146200023f57600080fd5b50565b604080519081016001600160401b03811182821017156200027357634e487b7160e01b600052604160045260246000fd5b60405290565b604051608081016001600160401b03811182821017156200027357634e487b7160e01b600052604160045260246000fd5b600080600080848603610100811215620002c357600080fd5b8551620002d08162000229565b602087015190955093506040603f1982011215620002ed57600080fd5b620002f762000242565b604087015181526060870151602082015292506080607f19820112156200031d57600080fd5b506200032862000279565b6080860151815260a0860151602082015260c0860151604082015260e086015161ffff811681146200035957600080fd5b6060820152939692955090935050565b6000602082840312156200037c57600080fd5b5051919050565b6000602082840312156200039657600080fd5b8151620003a38162000229565b9392505050565b60805160a05160c05160e05161010051611f486200046d600039600081816103990152610e3f0152600081816103380152818161053f0152818161071001528181610b5801528181610eda01528181611057015281816112380152611462015260008181610311015281816108b801528181610b1601528181610e16015281816116ce015261195d01526000818161023e015281816119350152611a0801526000818161035f01528181610aec015281816115e801526119830152611f486000f3fe608060405234801561001057600080fd5b50600436106101ae5760003560e01c80638467f7cb116100ee5780639a82a09a11610097578063b436950c11610071578063b436950c14610433578063c28b1e791461043b578063ccec37161461044e578063e50d50d81461046157600080fd5b80639a82a09a146103f15780639ca002a614610413578063b3f05b971461042657600080fd5b80638dd08557116100c85780638dd08557146103ce578063937e09b1146103e157806396a608c0146103e957600080fd5b80638467f7cb1461038157806386fa5063146103945780638c7e7a31146103bb57600080fd5b80634564168b1161015b5780634e7320ce116101355780634e7320ce146102d657806356d399e81461030c578063570ca7351461033357806360e52ecb1461035a57600080fd5b80634564168b1461029857806348a05132146102bb5780634a387cdf146102ce57600080fd5b80632c7baaf31161018c5780632c7baaf3146101fb578063336237941461023957806342e94c901461027857600080fd5b80630d616d20146101b35780630dcf4b8f146101bd5780630ebb172a146101d8575b600080fd5b6101bb610481565b005b6101c5610694565b6040519081526020015b60405180910390f35b6101e26201518081565b60405167ffffffffffffffff90911681526020016101cf565b6002546003546004546005546102159392919061ffff1684565b6040805194855260208501939093529183015261ffff1660608201526080016101cf565b6102607f000000000000000000000000000000000000000000000000000000000000000081565b6040516001600160a01b0390911681526020016101cf565b6101c5610286366004611c49565b600a6020526000908152604090205481565b6000546001546102a6919082565b604080519283526020830191909152016101cf565b6101bb6102c9366004611c72565b610706565b600c546101c5565b6006546007546008546009546102ec9392919084565b6040805194855260208501939093529183015260608201526080016101cf565b6101c57f000000000000000000000000000000000000000000000000000000000000000081565b6102607f000000000000000000000000000000000000000000000000000000000000000081565b6102607f000000000000000000000000000000000000000000000000000000000000000081565b6101bb61038f366004611c72565b610b4d565b6101c57f000000000000000000000000000000000000000000000000000000000000000081565b6101c56103c9366004611c8b565b610cf7565b6102606103dc366004611c72565b610dd9565b6101c5610e03565b6101c5610e68565b600d5461040390610100900460ff1681565b60405190151581526020016101cf565b6101c5610421366004611c72565b610eba565b600d546104039060ff1681565b6101bb610ecf565b6101bb610449366004611ccd565b61104c565b6101bb61045c366004611c49565b61122d565b6101c561046f366004611c49565b600b6020526000908152604090205481565b336000908152600a60205260409020546104e25760405162461bcd60e51b815260206004820152601960248201527f596f752068617665206e6f7420636f6e74726962757465642e0000000000000060448201526064015b60405180910390fd5b600d5460ff16156105355760405162461bcd60e51b815260206004820181905260248201527f4e6f64652068617320616c7265616479206265656e2066696e616c697a65642e60448201526064016104d9565b6001600160a01b037f00000000000000000000000000000000000000000000000000000000000000001633036105ad5760405162461bcd60e51b815260206004820152601860248201527f4f70657261746f722063616e6e6f74207769746864726177000000000000000060448201526064016104d9565b600d54610100900460ff1661064e57336000908152600b602052604090205462015180906105db9042611d74565b1161064e5760405162461bcd60e51b815260206004820152603060248201527f5769746864726177616c20756e617661696c61626c653a20323420686f75727360448201527f2068617665206e6f74207061737365640000000000000000000000000000000060648201526084016104d9565b60006106593361148c565b60405181815290915033907f249a82fbe5056a1940b4e996665ba2a82c340ae9fa1e069fd1ababf5508f396e9060200160405180910390a250565b600c54600090815b81811015610701576000600c82815481106106b9576106b9611d87565b60009182526020808320909101546001600160a01b0316808352600a9091526040909120549091506106eb9085611d9d565b93505080806106f990611db0565b91505061069c565b505090565b6001600160a01b037f00000000000000000000000000000000000000000000000000000000000000001633036107df57604080516080810182526006548152600754602082015260085491810191909152600954606082015261076890611615565b6107da5760405162461bcd60e51b815260206004820152603f60248201527f4f70657261746f72206d75737420696e697469616c6c7920636f6e747269627560448201527f7465207669612060636f6e7472696275744f70657261746f7246756e6473600060648201526084016104d9565b610839565b600c546108395760405162461bcd60e51b815260206004820152602260248201527f4f70657261746f7220686173206e6f7420636f6e74726962757465642066756e604482015261647360f01b60648201526084016104d9565b610841610e03565b8110156108b65760405162461bcd60e51b815260206004820152602e60248201527f436f6e747269627574696f6e2069732062656c6f7720746865206d696e696d7560448201527f6d20726571756972656d656e742e00000000000000000000000000000000000060648201526084016104d9565b7f0000000000000000000000000000000000000000000000000000000000000000816108e0610694565b6108ea9190611d9d565b111561095e5760405162461bcd60e51b815260206004820152602660248201527f436f6e747269627574696f6e2065786365656473207468652066756e64696e6760448201527f20676f616c2e000000000000000000000000000000000000000000000000000060648201526084016104d9565b600d5460ff16156109b15760405162461bcd60e51b815260206004820181905260248201527f4e6f64652068617320616c7265616479206265656e2066696e616c697a65642e60448201526064016104d9565b600d54610100900460ff1615610a095760405162461bcd60e51b815260206004820152601860248201527f4e6f646520686173206265656e2063616e63656c6c65642e000000000000000060448201526064016104d9565b336000908152600a60205260408120549003610a6f57600c80546001810182556000919091527fdf6966c971051c3d54ec59162606531493a51404a002842f56009d7e5cf4a8c701805473ffffffffffffffffffffffffffffffffffffffff1916331790555b336000908152600a602052604081208054839290610a8e908490611d9d565b9091555050336000818152600b602052604090819020429055517fbdaa686eb6f59012d211a74523da260341c516896e9e5be954163d6ecf26ffa290610ad79084815260200190565b60405180910390a2610b146001600160a01b037f00000000000000000000000000000000000000000000000000000000000000001633308461164a565b7f0000000000000000000000000000000000000000000000000000000000000000610b3d610694565b03610b4a57610b4a6116cc565b50565b336001600160a01b037f00000000000000000000000000000000000000000000000000000000000000001614610bd85760405162461bcd60e51b815260206004820152602a60248201527f4f6e6c7920746865206f70657261746f722063616e20706572666f726d20746860448201526934b99030b1ba34b7b71760b11b60648201526084016104d9565b600d5460ff16610c505760405162461bcd60e51b815260206004820152603a60248201527f596f752063616e6e6f74207265736574206120636f6e7472616374207468617460448201527f206861736e2774206265656e2066696e616c697365642079657400000000000060648201526084016104d9565b600c5460005b81811015610ca8576000600c8281548110610c7357610c73611d87565b60009182526020808320909101546001600160a01b03168252600a905260408120555080610ca081611db0565b915050610c56565b50610cb5600c6000611c17565b600d805460ff191690556040805160808101825260065481526007546020820152600854918101919091526009546060820152610cf390839061104c565b5050565b6000828211610d6e5760405162461bcd60e51b815260206004820152603c60248201527f436f6e7472696275746f727320657863656564207065726d6974746564206d6160448201527f78696d756d206e756d626572206f6620636f6e7472696275746f72730000000060648201526084016104d9565b82600003610d9f576004610d83600186611d74565b610d8d9190611dc9565b610d98906001611d9d565b9050610dd2565b6000610dab8484611d74565b905080610db9600187611d74565b610dc39190611dc9565b610dce906001611d9d565b9150505b9392505050565b600c8181548110610de957600080fd5b6000918252602090912001546001600160a01b0316905081565b6000610e63610e10610694565b610e3a907f0000000000000000000000000000000000000000000000000000000000000000611d74565b600c547f0000000000000000000000000000000000000000000000000000000000000000610cf7565b905090565b600c54600090610e785750600090565b600a6000600c600081548110610e9057610e90611d87565b60009182526020808320909101546001600160a01b03168352820192909252604001902054905090565b6000610ec98260006001610cf7565b92915050565b336001600160a01b037f00000000000000000000000000000000000000000000000000000000000000001614610f5a5760405162461bcd60e51b815260206004820152602a60248201527f4f6e6c7920746865206f70657261746f722063616e20706572666f726d20746860448201526934b99030b1ba34b7b71760b11b60648201526084016104d9565b600d5460ff1615610fad5760405162461bcd60e51b815260206004820152601f60248201527f43616e6e6f742063616e63656c20612066696e616c697a6564206e6f64652e0060448201526064016104d9565b600d54610100900460ff16156110055760405162461bcd60e51b815260206004820181905260248201527f4e6f64652068617320616c7265616479206265656e2063616e63656c6c65642e60448201526064016104d9565b600d805461ff00191661010017905561101d3361148c565b506002546040517fc41d93b8bfbf9fd7cf5bfe271fd649ab6a6fec0ea101c23b82a2a28eca2533a990600090a2565b336001600160a01b037f000000000000000000000000000000000000000000000000000000000000000016146110d75760405162461bcd60e51b815260206004820152602a60248201527f4f6e6c7920746865206f70657261746f722063616e20706572666f726d20746860448201526934b99030b1ba34b7b71760b11b60648201526084016104d9565b600c54156111325760405162461bcd60e51b815260206004820152602260248201527f4f70657261746f7220616c726561647920636f6e74726962757465642066756e604482015261647360f01b60648201526084016104d9565b600d54610100900460ff161561118a5760405162461bcd60e51b815260206004820152601860248201527f4e6f646520686173206265656e2063616e63656c6c65642e000000000000000060448201526064016104d9565b611192610e03565b8210156112075760405162461bcd60e51b815260206004820152602960248201527f436f6e747269627574696f6e2069732062656c6f77206d696e696d756d20726560448201527f71756972656d656e74000000000000000000000000000000000000000000000060648201526084016104d9565b8051600655602081015160075560408101516008556060810151600955610cf382610706565b336001600160a01b037f000000000000000000000000000000000000000000000000000000000000000016146112b85760405162461bcd60e51b815260206004820152602a60248201527f4f6e6c7920746865206f70657261746f722063616e20706572666f726d20746860448201526934b99030b1ba34b7b71760b11b60648201526084016104d9565b600d5460ff166113165760405162461bcd60e51b8152602060048201526024808201527f436f6e747261637420686173206e6f74206265656e2066696e616c697a6564206044820152633cb2ba1760e11b60648201526084016104d9565b600d54610100900460ff161561136e5760405162461bcd60e51b815260206004820152601c60248201527f436f6e747261637420686173206265656e2063616e63656c6c65642e0000000060448201526064016104d9565b6040516370a0823160e01b815230600482015281906000906001600160a01b038316906370a0823190602401602060405180830381865afa1580156113b7573d6000803e3d6000fd5b505050506040513d601f19601f820116820180604052508101906113db9190611deb565b9050600081116114535760405162461bcd60e51b815260206004820152602f60248201527f436f6e747261637420686173206e6f2062616c616e6365206f6620746865207360448201527f706563696669656420746f6b656e2e000000000000000000000000000000000060648201526084016104d9565b6114876001600160a01b0383167f000000000000000000000000000000000000000000000000000000000000000083611a7c565b505050565b6001600160a01b0381166000908152600a6020526040812054908190036114b257919050565b6001600160a01b0382166000908152600a60205260408120819055600c54905b818110156115da57600c81815481106114ed576114ed611d87565b6000918252602090912001546001600160a01b03908116908516036115c857600c611519600184611d74565b8154811061152957611529611d87565b600091825260209091200154600c80546001600160a01b03909216918390811061155557611555611d87565b9060005260206000200160006101000a8154816001600160a01b0302191690836001600160a01b03160217905550600c80548061159457611594611e04565b6000828152602090208101600019908101805473ffffffffffffffffffffffffffffffffffffffff191690550190556115da565b806115d281611db0565b9150506114d2565b5061160f6001600160a01b037f0000000000000000000000000000000000000000000000000000000000000000168484611a7c565b50919050565b805160009015158061162b575060008260200151115b8061163a575060008260400151115b80610ec957505060600151151590565b6040516001600160a01b0384811660248301528381166044830152606482018390526116c69186918216906323b872dd906084015b604051602081830303815290604052915060e01b6020820180517bffffffffffffffffffffffffffffffffffffffffffffffffffffffff8381831617835250505050611aad565b50505050565b7f00000000000000000000000000000000000000000000000000000000000000006116f5610694565b146117425760405162461bcd60e51b815260206004820152601e60248201527f46756e64696e6720676f616c20686173206e6f74206265656e206d65742e000060448201526064016104d9565b600d5460ff16156117955760405162461bcd60e51b815260206004820181905260248201527f4e6f64652068617320616c7265616479206265656e2066696e616c697a65642e60448201526064016104d9565b600d54610100900460ff16156117ed5760405162461bcd60e51b815260206004820152601860248201527f4e6f646520686173206265656e2063616e63656c6c65642e000000000000000060448201526064016104d9565b600d805460ff191660011790556002546040517f839cf22e1ba87ce2f5b9bbf46cf0175a09eed52febdfaac8852478e68203c76390600090a2600c5460009067ffffffffffffffff81111561184457611844611cb7565b60405190808252806020026020018201604052801561188957816020015b60408051808201909152600080825260208201528152602001906001900390816118625790505b50600c5490915060005b8181101561191d576000600c82815481106118b0576118b0611d87565b60009182526020808320909101546040805180820182526001600160a01b03909216808352808552600a8452932054918101919091528551919250908590849081106118fe576118fe611d87565b602002602001018190525050808061191590611db0565b915050611893565b5060405163095ea7b360e01b81526001600160a01b037f0000000000000000000000000000000000000000000000000000000000000000811660048301527f000000000000000000000000000000000000000000000000000000000000000060248301527f0000000000000000000000000000000000000000000000000000000000000000169063095ea7b3906044016020604051808303816000875af11580156119cc573d6000803e3d6000fd5b505050506040513d601f19601f820116820180604052508101906119f09190611e1a565b5060405163ab73513960e01b81526001600160a01b037f0000000000000000000000000000000000000000000000000000000000000000169063ab73513990611a46906000906006906002908890600401611e8b565b600060405180830381600087803b158015611a6057600080fd5b505af1158015611a74573d6000803e3d6000fd5b505050505050565b6040516001600160a01b0383811660248301526044820183905261148791859182169063a9059cbb9060640161167f565b6000611ac26001600160a01b03841683611b10565b90508051600014158015611ae7575080806020019051810190611ae59190611e1a565b155b1561148757604051635274afe760e01b81526001600160a01b03841660048201526024016104d9565b6060610dd28383600084600080856001600160a01b03168486604051611b369190611f0c565b60006040518083038185875af1925050503d8060008114611b73576040519150601f19603f3d011682016040523d82523d6000602084013e611b78565b606091505b5091509150611b88868383611b92565b9695505050505050565b606082611ba757611ba282611bee565b610dd2565b8151158015611bbe57506001600160a01b0384163b155b15611be757604051639996b31560e01b81526001600160a01b03851660048201526024016104d9565b5080610dd2565b805115611bfe5780518082602001fd5b604051630a12f52160e11b815260040160405180910390fd5b5080546000825590600052602060002090810190610b4a91905b80821115611c455760008155600101611c31565b5090565b600060208284031215611c5b57600080fd5b81356001600160a01b0381168114610dd257600080fd5b600060208284031215611c8457600080fd5b5035919050565b600080600060608486031215611ca057600080fd5b505081359360208301359350604090920135919050565b634e487b7160e01b600052604160045260246000fd5b60008082840360a0811215611ce157600080fd5b833592506080601f1982011215611cf757600080fd5b506040516080810181811067ffffffffffffffff82111715611d2957634e487b7160e01b600052604160045260246000fd5b806040525060208401358152604084013560208201526060840135604082015260808401356060820152809150509250929050565b634e487b7160e01b600052601160045260246000fd5b81810381811115610ec957610ec9611d5e565b634e487b7160e01b600052603260045260246000fd5b80820180821115610ec957610ec9611d5e565b600060018201611dc257611dc2611d5e565b5060010190565b600082611de657634e487b7160e01b600052601260045260246000fd5b500490565b600060208284031215611dfd57600080fd5b5051919050565b634e487b7160e01b600052603160045260246000fd5b600060208284031215611e2c57600080fd5b81518015158114610dd257600080fd5b600081518084526020808501945080840160005b83811015611e8057815180516001600160a01b031688528301518388015260409096019590820190600101611e50565b509495945050505050565b60006101608654835260018701546020840152855460408401526001860154606084015260028601546080840152600386015460a0840152845460c0840152600185015460e0840152600285015461010084015261ffff60038601541661012084015280610140840152611f0181840185611e3c565b979650505050505050565b6000825160005b81811015611f2d5760208186018101518583015201611f13565b50600092019182525091905056fea164736f6c6343000814000a",
  "linkReferences": {},
  "deployedLinkReferences": {}
}